:1000000005C2000024C2000022C2000020C200007D
:100010001EC200001CC200001AC2000018C200006C
:1000200016C2000014C2000012C2000010C200007C
:1000300070C400000CC200000AC2000008C2000028
:1000400006C2000004C2000002C2000000C200009C
:10005000FEC10000FCC10000FAC10000F8C10000B0
:10006000F6C100000C948F1E0C94E11EF0C100003C
:10007000EEC10000ECC10000EAC10000E8C10000D0
:10008000E6C10000E4C10000E2C10000E0C10000E0
:100090000C94251F0C94771FDAC100000C940F22DA
:1000A000D6C10000D4C10000D2C10000D0C1000000
:1000B000CEC10000CCC10000CAC10000C8C1000010
:1000C000C6C10000C4C10000C2C100000C94BB1F27
:1000D0000C940D20BCC100000C9451200C94A32062
:1000E000B6C10000950195019501C401CC01DB0169
:1000F00095019501C401CC013122A122A122A122A6
:10010000A122A122A122A1223122A122A122A12247
:10011000A122A122A122A1223322A122A122A12235
:10012000A122A122A122A122A122A122A122A122B7
:10013000A122A122A122A1223322A122A122A12215
:10014000A122A122A122A122A122A122A122A12297
:10015000A122A122A122A1229D22A122A122A1228B
:10016000A122A122A122A1226822A122A122A122B0
:10017000A122A122A122A122A122A122A122A12267
:10018000A122A122A122A1225C22A122A122A1229C
:10019000A122A122A122A122802202EA18E00F2E90
:1001A000FAECEF2EF8E0FF2EF02D8091A1088823C5
:1001B00011F10FB6F8940F92D8011596ED91FC91BC
:1001C0001697C681D781CE01029609D280919708F1
:1001D0008150809397088091A10881508093A10855
:1001E0000F900FBE8F89988D87D1CE0185D18091D8
:1001F000A1088111DECFF7018081823008F0C4D2DE
:100200000E94D112D2CFCF93DF9300D000D0CDB7D0
:10021000DEB7CE0101964C0144244394E12CF12C2D
:10022000512CC82ED92CE091F808F091F908808162
:10023000882309F4D7C00580F681E02DA080B18025
:100240000E94070CC4010E9463128C0189818111F4
:1002500048C00A151B05B0F10E94D10CE091F808C6
:10026000F091F9080580F681E02D66807780C30162
:100270000296B5D1D30153968C91539782FF17C044
:100280001C966D917C911D976A0D7B1D9501A801AF
:10029000C3010E946E11882369F00E2D1F2D2E2D93
:1002A0003F2DA501652DC3010E941C1203C08E7F46
:1002B000F301838BD3015096ED91FC915197C301CB
:1002C000199584C0452DB501601B710B8091F40810
:1002D0009091F5088CD60E94D10C811177C054D230
:1002E00075C00E94D10C72C0898188230CF46EC045
:1002F000AC80BD80F50182859385892B19F0C501FD
:1003000002966DD1CE0106960E946312AC01E9817E
:100310000E2E000CFF0BEA30F10508F057C08827BD
:10032000EE58FF4F8F4F0C94F924D50153968C91C2
:100330005397816053968C9353972A813B811C96E7
:100340006D917C911D97620F731FC5010E946E1104
:100350008823E1F1D5015096ED91FC915197C501AB
:100360001995F501838982FF31C04A815B818485BB
:100370009585480F591F0E2D1F2D2E2D3F2D652DB4
:10038000C5010E941C1222C0D50153968C9153972F
:100390008E7F53968C931AC0F50183898160838B7D
:1003A0006A817B8175876487640F751F9A01C50117
:1003B0000E946E110BC0D50153968C9181FD03C034
:1003C000C5019AD003C08E7FF501838B4E2D5F2D22
:1003D0006C2D7D2D8091F4089091F508C3D4811186
:1003E00083CF21CF0E94070CC4010E9463128C01AD
:1003F0008981811176CFE091F608F091F70880812C
:10040000442D8111452DAE2CBF2C5DCF11241FBE74
:10041000CFEFD1E2DEBFCDBF00E00CBF18E0A0E01F
:10042000B2E0E4E3F3E500E00BBF02C007900D92F9
:10043000AA38B107D9F72AE0AAE8B8E001C01D92AE
:10044000A33BB207E1F70E94EC120C949829D8CD97
:10045000CF93DF931F921F92CDB7DEB7CE010196E7
:100460009093780A8093770A0F900F90DF91CF9145
:10047000089568E272E083E00C940B1D08950E94D9
:10048000391D882341F08EE692E00E948D268AE095
:1004900090E00C944E0D0895E091770AF091780A5F
:1004A000808191810895E7E0F1E080818F60808311
:1004B0000895E8E0F1E09081907F908390818F70C3
:1004C000982B90830895E8E0F1E08081807F80831D
:1004D0000895CF93DF93EC010E94070CCE010E9498
:1004E0001B25EC010E94D10C209711F40E94D2121E
:1004F000CE01DF91CF910895CF93DF93009741F024
:10050000EC010E94070CCE010E94B3250E94D10C81
:10051000DF91CF910895FC010396928381832FEFA1
:100520003FEF34832383968385839087878310826C
:100530000895FC01118610860895CF93DF939C01E6
:10054000FB01DC011196CD91DC911297D383C2831C
:100550008C819D81958384838C819D81DC011396A0
:100560007C936E9312977D836C8331872087F9018A
:1005700080818F5F8083DF91CF910895CF93DF9348
:10058000EB01488159814F3F2FEF520721F4FC01C5
:10059000A781B0850DC0DC01139601C0DF01129662
:1005A000ED91FC9113972081318142175307B0F7E9
:1005B0001296ED91FC911397FB83EA83D583C48354
:1005C000BD83AC831396DC93CE931297998788876B
:1005D000FC0120812F5F2083DF91CF910895CF937D
:1005E000DF93FC01A085B185C281D381848195818F
:1005F0009D838C83C481D581828193819B838A83EF
:1006000011968D919C911297E817F90731F4848126
:10061000958112969C938E931197118610868C91DA
:1006200081508C938C91DF91CF91089531E1FC0141
:100630003083319722E220833197A3E3A08331975F
:100640006083319770833197108231971082319790
:1006500060E8608331971082319710823197108261
:10066000319762E06083319763E06083319764E0A3
:100670006083319765E06083319766E060833197EE
:1006800067E06083319768E06083319769E0608359
:10069000319760E1608331973083319732E1308365
:1006A000319733E13083319734E13083319735E14D
:1006B0003083319736E13083319737E1308331979A
:1006C00038E13083319739E13083319730E230833C
:1006D000319731E2308331972083319723E22083B1
:1006E0003197408331975083319726E220833197A9
:1006F00027E22083319728E22083319729E2208363
:10070000319720E32083319721E32083899708954F
:10071000A89590EC88E10FB6F894A89580936000B6
:100720000FBE90936000A091EE08B091EF08CD91BC
:10073000CDBFDD91DEBFFF91EF91DF91CF91BF91F2
:10074000AF919F918F917F916F915F914F913F9169
:100750002F911F910F91FF90EF90DF90CF90BF905E
:10076000AF909F908F907F906F905F904F903F9051
:100770002F901F900F900CBE0F900BBE0F900FBECE
:100780000F90089581E008950F920FB6F8940F929C
:100790000BB60F920CB60F921F9211242F923F921C
:1007A0004F925F926F927F928F929F92AF92BF9281
:1007B000CF92DF92EF92FF920F931F932F933F936D
:1007C0004F935F936F937F938F939F93AF93BF9359
:1007D000CF93DF93EF93FF93A091EE08B091EF08D2
:1007E0000DB60D920EB60D920E945F0DA091EE080F
:1007F000B091EF08CD91CDBFDD91DEBFFF91EF91BC
:10080000DF91CF91BF91AF919F918F917F916F9128
:100810005F914F913F912F911F910F91FF90EF901A
:10082000DF90CF90BF90AF909F908F907F906F9010
:100830005F904F903F902F901F900F900CBE0F90A5
:100840000BBE0F900FBE0F9008950F920FB6F89445
:100850000F920BB60F920CB60F921F9211242F928B
:100860003F924F925F926F927F928F929F92AF9240
:10087000BF92CF92DF92EF92FF920F931F932F932D
:100880003F934F935F936F937F938F939F93AF9318
:10089000BF93CF93DF93EF93FF93A091EE08B091B6
:1008A000EF080DB60D920EB60D9213BEC0D7811192
:1008B0000E945F0DA091EE08B091EF08CD91CDBFE1
:1008C000DD91DEBFFF91EF91DF91CF91BF91AF91AD
:1008D0009F918F917F916F915F914F913F912F9158
:1008E0001F910F91FF90EF90DF90CF90BF90AF904E
:1008F0009F908F907F906F905F904F903F902F9040
:100900001F900F900CBE0F900BBE0F900FBE0F905C
:1009100008959BDF18950FB6F8940F92FC01928D05
:100920000F900FBE81E0911180E008950F931F9307
:10093000CF93DF93EC01042F1A8D4C8D41110CC025
:1009400088819981892B09F042C08C819D810E9408
:10095000270F1D821C8242C0011117C050E08A81FE
:100960009B810E9440262C8D8A819B81820F911D44
:100970009B838A832C813D818217930750F1888164
:1009800099819B838A8380E029C050E08E819F817A
:100990000E9440268C8D90E09195819591092E8141
:1009A0003F81280F391F3F832E83488159812417A7
:1009B000350730F42C813D81820F931F9F838E83F6
:1009C000023049F4112349F0115080E007C080E063
:1009D00005C080E003C080E001C080E01F5F1A8F87
:1009E000DF91CF911F910F910895FC01448D442315
:1009F000A9F050E026813781240F351F37832683E5
:100A0000848195812817390720F08081918197830F
:100A10008683CB01668177810C9440260895EF92FE
:100A2000FF920F931F93CF938C010FB6F8940F9200
:100A3000FC01C68D1C16ACF48189811106C011C061
:100A4000F8018189811105C00CC07801F1E1EF0E38
:100A5000F11CC7010E94160E81110E949E0EC1500A
:100A600079F78FEFF801868F0F900FBE0FB6F894CD
:100A70000F92C58D1C16ACF48085811106C011C083
:100A8000F8018085811105C00CC07801F8E0EF0EF7
:100A9000F11CC7010E94160E81110E949E0EC150CA
:100AA00079F78FEFF801858F0F900FBECF911F91CF
:100AB0000F91FF90EF900895CF93DF93EC010FB665
:100AC000F8940F92E881F9818B8D2C8D90E030E0C5
:100AD000829FA001839F500D929F500D11244E0FB5
:100AE0005F1F5D834C831A8EFB83EA830197829F8D
:100AF000A001839F500D929F500D1124CF01840FB0
:100B0000951F9F838E838FEF8D8F8E8F61110BC00A
:100B10008885882371F0CE0108960E94160E8823DE
:100B200041F032DE06C0CE010896F5DCCE014196DA
:100B3000F2DC0F900FBE81E0DF91CF910895FF921C
:100B40000F931F93CF93DF93082F162FF42E662356
:100B5000B9F0869FC00111248196BBDCEC0100979F
:100B600041F414C00B8F1C8F61E0CE01A5DFF8A209
:100B70000DC0819699838883F5CFD983C883F2CF3E
:100B800081E290E0A6DCEC01892BB9F7CE01DF9180
:100B9000CF911F910F91FF9008959F92AF92BF92B6
:100BA000CF92DF92EF92FF920F931F93CF93DF9339
:100BB00000D01F921F92CDB7DEB78C016B015D8311
:100BC0004C83A22EB12C992493947C0188E0E80EEA
:100BD000F11C0FB6F8940F92F801928D838D98173F
:100BE00018F0F2E0AF1216C04A2DB601C8019EDE21
:100BF000F8019189992341F0C80141960E94160E8F
:100C0000882321F0C1DD02C08111BEDD0F900FBE2F
:100C100081E047C08C819D81892B21F40F900FBE0C
:100C200080E03FC0B11005C0CE0101960E945E0E6B
:100C3000B92C0F900FBEEBD50FB6F8940F92F801B8
:100C4000858D8F3F09F4158EF801868D8F3F09F44D
:100C5000168E0F900FBEBE016C5F7F4FCE010196C6
:100C60000E94690E811119C00FB6F8940F92F80115
:100C7000928D838D0F900FBE98130BC06C817D8178
:100C8000C701ABD7C801CBDE8CD68111A2CF7CDDEA
:100C9000A0CFC801C4DE85D69CCFC801C0DE81D6F6
:100CA00080E00F900F900F900F900F90DF91CF91F9
:100CB0001F910F91FF90EF90DF90CF90BF90AF907A
:100CC0009F900895CF93DF93482F60E081E037DF56
:100CD000EC01009759F01D821C82198218821E8235
:100CE00020E040E050E060E070E057DFCE01DF91AF
:100CF000CF910895EF92FF920F931F93CF93DF93BD
:100D00008A01FC01528D338D531710F02230E1F42B
:100D1000422F7801EC011E8D09DE1F3F79F489898D
:100D20008823A1F0CE01419681D7882389F0E11470
:100D3000F10481F081E0F70180830DC0FF24F3947A
:100D4000F10EFE8E81E007C080E005C081E003C0A7
:100D500081E001C081E0DF91CF911F910F91FF9061
:100D6000EF9008959F92AF92BF92CF92DF92EF9251
:100D7000FF920F931F93CF93DF9300D01F921F9288
:100D8000CDB7DEB78C015B015D834C83E12C9924E8
:100D900093946C0181E1C80ED11C0FB6F8940F92A8
:100DA000F801F28CFF2091F0B501C8011EDEFA9423
:100DB000F801F28E8085882329F0C801089636D77D
:100DC0008111E2DC0F900FBE81E044C08C819D81D7
:100DD000892B21F40F900FBE80E03CC0E11004C0CD
:100DE000CE0101966BD7E92C0F900FBE10D50FB630
:100DF000F8940F92F801858D8F3F09F4158EF80154
:100E0000868D8F3F09F4168E0F900FBEBE016C5F6A
:100E10007F4FCE0101965DD7811113C0C8017BDDE4
:100E2000882359F06C817D81C601D7D6C801F7DDD2
:100E3000B8D58111B2CFA8DCB0CFC801F0DDB1D5F3
:100E4000ACCFC801ECDDADD5C80165DD882309F460
:100E5000A4CF80E00F900F900F900F900F90DF9134
:100E6000CF911F910F91FF90EF90DF90CF90BF90A7
:100E7000AF909F900895BF92CF92DF92EF92FF9232
:100E80000F931F93CF93DF9300D01F921F92CDB784
:100E9000DEB78C017D836C83B12CD12CCC24C39420
:100EA0007C0181E1E80EF11C0FB6F8940F92D80195
:100EB0005A968C915A978823D9F081505A968C93E0
:100EC0005A978D919C91892B29F40E94B70FF801B4
:100ED00095838483D80118968C91882329F0C801C2
:100EE0000896A4D6811150DC0F900FBE81E070C02F
:100EF0008C819D81892B21F40F900FBE80E068C00A
:100F0000D11004C0CE010196D9D6DC2C0F900FBEB3
:100F10007ED40FB6F8940F92F801858D8F3F09F4B7
:100F2000158ED8015E968C915E978F3F11F45E9678
:100F30001C920F900FBEBE016C5F7F4FCE010196D9
:100F4000C8D6811121C0C801E6DC8823C9F0F801A8
:100F500080819181892B49F40FB6F8940F92848196
:100F6000958103D7B82E0F900FBE6C817D81C7018C
:100F700034D6C80154DD15D5811196CF05DC94CF48
:100F8000C8014DDD0ED590CFC80149DD0AD5C80195
:100F9000C2DC882309F488CFBB20C9F00FB6F894CF
:100FA0000F92F8018189882339F00688F789E02DAE
:100FB000808164E0681B01C060E0D80114968D91C7
:100FC0009C91159784D70F900FBE80E001C080E000
:100FD0000F900F900F900F900F90DF91CF911F9176
:100FE0000F91FF90EF90DF90CF90BF900895CF9337
:100FF000DF93EC010FB6F8940F928D8D8F3F09F4BB
:101000001D8E8E8D8F3F09F41E8E0F900FBE8A8D20
:10101000811103C0CE014196F1D5CE0100DDDF91F3
:10102000CF910895FC014481558122813381240FA1
:10103000351F80819181B901681B790BCB01641741
:10104000750710F0841B950B0895AF92BF92CF9255
:10105000DF92EF92FF920F931F93CF93DF936C0178
:101060005B017A01FC01C281D381048115810C1BD3
:101070001D0B4017510708F48A01F60184859585F8
:10108000A801B5018C0F9D1F0E9440260E151F055B
:1010900058F4A701401B510BB501600F711FF601F9
:1010A000848595850E944026CE018E0D9F1DF601F8
:1010B000248135818217930710F0821B930BF60170
:1010C00093838283C701DF91CF911F910F91FF908E
:1010D000EF90DF90CF90BF90AF900895CF92DF92C6
:1010E000EF92FF920F931F93CF93DF931F921F9264
:1010F000CDB7DEB75A83498321153105C9F06B019D
:101100007C01FC01868580FD08C0CA0124173507D3
:1011100008F4C9019A83898311C02017310758F058
:1011200042E050E0BE016F5F7F4FC7018EDF06C017
:1011300080E090E008C080E090E005C049815A81DD
:10114000B601C70182DF0F900F90DF91CF911F9101
:101150000F91FF90EF90DF90CF900895AF92BF92E4
:10116000CF92DF92EF92FF920F931F93CF93DF9373
:101170007C015B01E9014217530708F4EA0120975B
:1011800079F1F70100811181C480D580C01AD10A9C
:10119000CC15DD0508F46E01F70164857585600FD7
:1011A000711FA601C5010E944026CC16DD0658F429
:1011B000AE014C195D09F70164857585C5018C0D7B
:1011C0009D1D0E9440260C0F1D1FF70184819581F3
:1011D0000817190710F0081B190BF701118300837A
:1011E000CE01DF91CF911F910F91FF90EF90DF9093
:1011F000CF90BF90AF900895EF92FF921F93CF933F
:10120000DF93EB0111E0413009F010E0209711F479
:10121000C1E0D0E07C012FEFE21AF20A419659D9E1
:10122000009781F020E1FC0111922A95E9F79C01D9
:10123000205F3F4FFC0135872487F582E482D78306
:10124000C6831687DF91CF911F91FF90EF9008958D
:10125000CF93DF93FC0127850FB6F8940F9280851A
:101260009185892BD1F482859385892BC1F486855C
:101270004681578164817581A485B58590E1EF0130
:1012800019929A95E9F7B587A48775836483578384
:1012900046838687278781E003C080E001C080E025
:1012A0000F900FBEDF91CF910895FC01248135810D
:1012B0008081918142815381820F931F0197841B0A
:1012C000950B8217930710F0821B930B0895AF9232
:1012D000BF92CF92DF92EF92FF920F931F93CF9323
:1012E000DF93EC015B016A0179018E8580FF04C008
:1012F0008A010E5F1F4F01C08A01CE01D6DF9C011B
:10130000A601B501CE01EADE6C01892BB1F0CE0158
:1013100089DE2E813F818217930778F08885998531
:10132000892B59F08885998500E010E020E040E0A5
:1013300050E0BA012FD719861886C601DF91CF91E8
:101340001F910F91FF90EF90DF90CF90BF90AF90E3
:1013500008956F927F928F929F92AF92BF92CF9299
:10136000DF92EF92FF920F931F93CF93DF931F9221
:101370001F92CDB7DEB76C013B014A017901FC0138
:10138000868580FD03C0A12CB12C04C06894AA24DA
:10139000A1F8B12CE114F10429F10FB6F8940F92E1
:1013A000C60140DE8C01A816B90638F080E090E056
:1013B00081D7C8D4F601918780870F900FBEA01601
:1013C000B106B0F000E010E020E030E0A90160E0FC
:1013D00070E0CB01DED5F60111861086C60122DE53
:1013E0008C0103C0C6011EDE8C01A016B106B8F543
:1013F000A114B104C1F0F601E080F1809801A501CB
:10140000BE016F5F7F4FC601A9DE89819A810A19EB
:101410001B098816990630F4F601F182E082812CCE
:10142000912C01C04C019801A401B301C60196DEC4
:101430007C01892BB1F0EBD1F60182859385892B54
:1014400061F08285938500E010E020E040E050E00C
:10145000BA0122D6F60113861286A3D202C0E12C6D
:10146000F12CC7010F900F90DF91CF911F910F9139
:10147000FF90EF90DF90CF90BF90AF909F908F90B4
:101480007F906F900895E091B608F091B708808141
:10149000811107C08FEF9FEF90938E0880938D0886
:1014A0000895E091B608F091B7080580F681E02D27
:1014B0000680F781E02D8281938190938E0880933E
:1014C0008D080895FF920F931F93CF93DF93EC0144
:1014D000F62E00919508109196088091EE08909153
:1014E000EF0802967CD8CF3F8FEFD80761F4FF203A
:1014F00051F06091EE087091EF086E5F7F4F88E9C0
:1015000098E01BD82DC0C00FD11FE091EE08F091DC
:10151000EF08D383C283C017D10760F46091EE084F
:101520007091EF088091B4089091B5086E5F7F4F7D
:1015300025D816C06091EE087091EF088091B6082A
:101540009091B7086E5F7F4F19D880918D08909168
:101550008E08C817D90720F4D0938E08C0938D0841
:10156000DF91CF911F910F91FF9008954F925F925D
:101570006F927F928F929F92AF92BF92CF92DF92A3
:10158000EF92FF920F93CF93DF934C016B015A01BF
:101590002901CA010E9469023C01892B09F4F3C0A8
:1015A0008CE290E00E946902EC01892B99F0788E20
:1015B0006F8AA50165EA70E0C3010E94492681E0B7
:1015C000A81AB1088F89988DA80EB91EC114D1042C
:1015D00029F420C0C3010E947C02D5C0D6018C91A1
:1015E000898F8C918823A1F0AE01465E5F4FF60192
:1015F0003196B8E0CB0ED11CCF012191DA012D93A9
:10160000AD01DC018C91882319F0EC15FD05A1F7E3
:1016100018A201C0198E043008F003E00E8B0BA352
:101620001CA26E01B2E0CB0ED11CC6010E94990231
:10163000CE010C960E949902D987C88784E090E079
:10164000801B91099D878C87DB8BCA8B1EA21DA2F4
:101650001FA218A619A61AA61BA6A201B401C501AD
:101660000E94160399838883E114F10419F0F701AD
:10167000D183C0830FB6F8940F92809197088F5F43
:10168000809397088091EE089091EF08892BD1F50F
:10169000D093EF08C093EE0880919708813009F04D
:1016A00041C08AEC98E00E948B0283ED98E00E9492
:1016B0008B028CED98E00E948B0285EE98E00E94F0
:1016C0008B0281EC98E00E948B0288EB98E00E94EC
:1016D0008B028BEA98E00E948B0282EA98E00E94DB
:1016E0008B0288E998E00E948B0281EC98E090934D
:1016F000B7088093B60888EB98E09093B50880937C
:10170000B40810C08091930881110CC0E091EE08DC
:10171000F091EF0896898E89891720F0D093EF0811
:10172000C093EE0880918F088F5F80938F0889A304
:101730008E8990919408981710F48093940890E003
:101740009C01220F331F220F331F220F331F820FE2
:10175000931FB6018653974F0E949D020F900FBEB4
:1017600080919308882359F0E091EE08F091EF08FA
:1017700096898E89981728F407D881E005C081E002
:1017800003C081E001C08FEFDF91CF910F91FF90F7
:10179000EF90DF90CF90BF90AF909F908F907F9011
:1017A0006F905F904F900895EF92FF920F930F2EDE
:1017B000FBE8EF2EF8E0FF2EF02D00E020E030E017
:1017C00040EC50E06FE772E08DEC90E0CFDE8130CE
:1017D000D1F4DCD58130B9F4F8948FEF9FEF90937A
:1017E0008E0880938D0881E080939308109296086C
:1017F00010929508E091EE08F091EF0885A10E9403
:1018000059020E9488030F91FF90EF9008958091F4
:101810008A088F5F80938A0808950FB6F8940F9214
:1018200080919508909196080F900FBE0895CF92E1
:10183000DF92EF92FF920F931F93CF93DF938091EC
:101840008A08811198C0E0909508F09096088FEF73
:10185000E81AF80AF0929608E0929508E114F1046B
:10186000B1F48091B6089091B7082091B4083091F6
:10187000B5083093B7082093B6089093B5088093C5
:10188000B408809190088F5F80939008FCDD809170
:101890008D0890918E08E816F90610F4D12C53C0EB
:1018A000D12CCC24C394E091B608F091B708808184
:1018B000811107C08FEF9FEF90938E0880938D0862
:1018C00042C0E091B608F091B7080580F681E02D9E
:1018D000C681D7818A819B81E816F90628F4909306
:1018E0008E0880938D082FC08E010E5F1F4FC80198
:1018F0000E94EF028C899D89892B21F0CE010C96E4
:101900000E94EF028E8990919408981710F48093AA
:10191000940890E09C01220F331F220F331F220FE7
:10192000331F820F931FB8018653974F0E949D0269
:10193000E091EE08F091EF089E898689981708F4E7
:10194000B2CFDC2CB0CFE091EE08F091EF088689A1
:1019500090E0FC01EE0FFF1FEE0FFF1FEE0FFF1FC9
:101960008E0F9F1FFC01E653F74F8081823048F0B5
:10197000DD24D39406C0809192088F5F80939208F3
:10198000D12C80919108882311F0DD24D3948D2DE2
:10199000DF91CF911F910F91FF90EF90DF90CF904B
:1019A0000895DF92EF92FF920F931F93CF93DF93EF
:1019B0000FB6F8940F9280918A08815080938A081C
:1019C00080918A0881115DC080919708811133C090
:1019D0005BC0D7011596ED91FC911697C681D78112
:1019E000CE010C960E94EF028E010E5F1F4FC801C0
:1019F0000E94EF028E8990919408981710F48093BA
:101A0000940890E09C01220F331F220F331F220FF6
:101A1000331F820F931FB8018653974F0E949D0278
:101A2000E091EE08F091EF089E898689981768F09A
:101A3000D09291080AC0C0E0D0E00F2EFBEAEF2E52
:101A4000F8E0FF2EF02DDD24D394F7018081811181
:101A5000C0CFCD2B09F017DDC0919208CC2349F0FF
:101A6000D1E0E5DE8111D0939108C150D1F71092F9
:101A7000920880919108882331F00E94C40381E08C
:101A800003C080E001C080E00F900FBEDF91CF91D6
:101A90001F910F91FF90EF90DF900895CF93DF9308
:101AA000EC01892B39F0B3DE60E0CE010BDD79DF8C
:101AB000811102C00E94C403DF91CF9108958091EB
:101AC0008A08882321F081E080939108089510927C
:101AD0009108E091EE08F091EF0885A10E94630261
:101AE000A091EE08B091EF08E091EE08F091EF08B8
:101AF0002D913C918789908D8217930758F06091C2
:101B0000EE087091EF088091EE089091EF08675E03
:101B10007F4F55D520919408822F90E0FC01EE0F65
:101B2000FF1FEE0FFF1FEE0FFF1FE80FF91FE65319
:101B3000F74F3081311111C02150822F90E0FC010C
:101B4000EE0FFF1FEE0FFF1FEE0FFF1FE80FF91F35
:101B5000E653F74F3081332379F3AC01440F551F1F
:101B6000440F551F440F551F480F591FDA01A65344
:101B7000B74F1196ED91FC9112970280F381E02D01
:101B80001296FC93EE9311974353574FE417F507C2
:101B900029F442815381FD0152834183FC01EE0F00
:101BA000FF1FEE0FFF1FEE0FFF1F8E0F9F1FFC0189
:101BB000E653F74F0180F281E02D86819781909363
:101BC000EF088093EE0820939408E091EE08F091DE
:101BD000EF0885A10C9459020895CF93DF93EB0190
:101BE0006091EE087091EF08645F7F4F0E94BE0223
:101BF00061E0CE0167DCDF91CF9108950F931F93D1
:101C0000CF938B01C42F6091EE087091EF08645F51
:101C10007F4F0E949D02CC2311F00FEF1FEF6C2F1E
:101C2000C80150DCCF911F910F9108950F931F931E
:101C3000CF93DF93DC011596ED91FC911697C68149
:101C4000D7818E01045F1F4FC8010E94EF0280916F
:101C50008A0881111CC00A501109C8010E94EF02B4
:101C60008E8990919408981710F48093940890E0CE
:101C70009C01220F331F220F331F220F331F820FAD
:101C8000931FB8018653974F0E949D0205C0B8016B
:101C90008BEA98E00E949D02E091EE08F091EF0837
:101CA0009E898689891720F481E08093910801C07C
:101CB00080E0DF91CF911F910F91089520919008BE
:101CC000FC0120832091950830919608328321836E
:101CD0000895CF93DF930FB6F8940F922091950853
:101CE00030919608DB014D915C914F3FBFEF5B0750
:101CF000E9F0EC01E981FA81A0919008B881BA1766
:101D000019F02E173F07A0F42E1B3F0B24173507A1
:101D100040F4FB01421B530B51834083CFDF80E033
:101D200008C0FB011182108281E003C080E001C085
:101D300081E00F900FBEDF91CF91089581E08093F5
:101D4000910808958091EE089091EF080895809190
:101D50009308882331F080918A08882321F080E05D
:101D6000089581E0089582E008950F931F93CF9323
:101D7000DF93FC01892B09F464C02689A091EE0849
:101D8000B091EF0856968C91281708F04EC08485C4
:101D90009585992364F0A091EE08B091EF085696CE
:101DA0003C9184E090E0831B91099587848730E023
:101DB000C901880F991F880F991F880F991F280F35
:101DC000391F2653374F828593858217930721F554
:101DD0008F01EF012296CE010E94EF02E091EE0802
:101DE000F091EF088689F801868B909194089817F6
:101DF00010F48093940890E09C01220F331F220F6F
:101E0000331F220F331F820F931FBE018653974F3C
:101E10000E949D0281E016C0A091EE08B091EF08EB
:101E200056968C91868B81E00DC0A091EE08B09102
:101E3000EF0881E023A156969C91291718F080E0C5
:101E400001C080E0DF91CF911F910F9108950F9312
:101E50001F93CF93DF93FC01892B79F184A18150EB
:101E600084A3268993A1291751F181112AC0EF017A
:101E70008F010E5F1F4FC8010E94EF028BA18E8B56
:101E800024E030E0281B31093D872C87909194088D
:101E9000981710F48093940890E09C01220F331F50
:101EA000220F331F220F331F820F931FB801865357
:101EB000974F0E949D0281E005C080E003C080E052
:101EC00001C080E0DF91CF911F910F9108950F9392
:101ED0001F93CF93DF93FC01892B09F443C093A197
:101EE000961708F4962F86898917E1F124A12130ED
:101EF000C9F5968B24853585332334F024E030E012
:101F0000291B31093587248790E09C01220F331F5C
:101F1000220F331F220F331F820F931F8653974FB9
:101F20002285338528173907E9F4EF018F010E5F09
:101F30001F4FC8010E94EF028E8990919408981754
:101F400010F48093940890E09C01220F331F220F1D
:101F5000331F220F331F820F931FB8018653974FF1
:101F60000E949D02DF91CF911F910F910895809162
:101F7000EE089091EF08892B39F0E091EE08F0918E
:101F8000EF0884A18F5F84A38091EE089091EF0801
:101F900008954F925F926F927F928F929F92AF922D
:101FA000BF92EF92FF920F931F9349015A010FB610
:101FB000F8940F92E091EE08F091EF0823A52230FB
:101FC00021F1E091EE08F091EF0847A050A461A440
:101FD00072A4DC01CB0180959095A095B0958421E9
:101FE0009521A621B72187A390A7A1A7B2A7E09129
:101FF000EE08F091EF0881E083A7E114F10429F0E5
:1020000061E0C7015FDA0E94C4030F900FBE0FB6F4
:10201000F8940F920115110569F0E091EE08F09126
:10202000EF0887A190A5A1A5B2A5F80180839183AF
:10203000A283B383E091EE08F091EF0883A582308C
:10204000B1F4E091EE08F091EF0887A190A5A1A569
:10205000B2A580949094A094B09488229922AA2248
:10206000BB2287A290A6A1A6B2A681E001C080E013
:10207000E091EE08F091EF0813A60F900FBE1F91AC
:102080000F91FF90EF90BF90AF909F908F907F90B7
:102090006F905F904F9008950F931F93CF93DF93AE
:1020A000FC010FB6F8940F920115110549F087A1B4
:1020B00090A5A1A5B2A5E80188839983AA83BB83D3
:1020C00083A592E093A72230B1F018F4213031F0CB
:1020D0002AC02330E9F0243001F125C007A110A562
:1020E00021A532A5402B512B622B732B47A350A760
:1020F00061A772A718C047A150A561A572A54F5F3F
:102100005F4F6F4F7F4F47A350A761A772A70BC0C8
:1021100047A350A761A772A706C0823079F147A3F1
:1021200050A761A772A7813059F5EF018F010E5FAB
:102130001F4FC8010E94EF028E8990919408981752
:1021400010F48093940890E09C01220F331F220F1B
:10215000331F220F331F820F931FB8018653974FEF
:102160000E949D02E091EE08F091EF089E89868919
:10217000891740F40E94C40381E005C080E003C0D9
:1021800081E001C081E00F900FBEDF91CF911F91E0
:102190000F910895EF92FF920F931F93CF93DF93C8
:1021A000FC010115110549F087A190A5A1A5B2A5D3
:1021B000E80188839983AA83BB8383A592E093A7D0
:1021C0002230B1F018F4213031F02BC02330E9F087
:1021D000243001F126C007A110A521A532A5402B6E
:1021E000512B622B732B47A350A761A772A719C06D
:1021F00047A150A561A572A54F5F5F4F6F4F7F4FFD
:1022000047A350A761A772A70CC047A350A761A717
:1022100072A707C0823009F441C047A350A761A745
:1022200072A78130E9F5EF0180918A0881111DC004
:102230008F010E5F1F4FC8010E94EF028E8990919F
:102240009408981710F48093940890E09C01220F52
:10225000331F220F331F220F331F820F931FB8012A
:102260008653974F0E949D0207C0BF01645F7F4F56
:102270008BEA98E00E949D02E091EE08F091EF0851
:102280009E898689891770F4E114F10419F081E0C0
:10229000F701808381E08093910805C080E003C04E
:1022A00081E001C081E0DF91CF911F910F91FF90FC
:1022B000EF900895009721F48091EE089091EF0837
:1022C0000FB6F8940F92FC0123A5223019F413A63F
:1022D00081E001C080E00F900FBE0895FC01738380
:1022E0006283918780874617570790F0421B530BF4
:1022F0008485958548175907E0F4BF016E5F7F4FCD
:102300008091F6089091F7080E94BE0280E008953F
:102310004217530718F46217730768F4BF016E5F22
:102320007F4F8091F8089091F9080E94BE0280E0EA
:10233000089581E0089581E008950FB6F8940F9212
:102340008091F4089091F508892BE9F483E099E0F5
:102350000E948B028AEF98E00E948B0283E099E052
:102360009093F9088093F8088AEF98E09093F70823
:102370008093F60840E065E08AE00E949F05909314
:10238000F5088093F4080F900FBE0895EF92FF9226
:102390000F93D3DF8091F4089091F508892B89F091
:1023A0000F2EF2EFEF2EF8E0FF2EF02D03E020E0ED
:1023B00030E045E550E064E872E083E091E0D6D893
:1023C00001C080E00F91FF90EF9008958F929F924F
:1023D000AF92BF92CF92DF92FF920F931F93CF9352
:1023E000DF934C015B01F42E690184E190E00E94CF
:1023F0006902EC01892B99F01B8A9FDF9982888200
:10240000BD86AC86DF86CE86198B088BCE01029600
:102410000E949902FF2019F08B8984608B8BCE017A
:10242000DF91CF911F910F91FF90DF90CF90BF90E0
:10243000AF909F908F9008950F931F93CF93DF934A
:1024400000D01F921F92CDB7DEB7E091F408F09153
:10245000F508309769F1D90169835B834A839D83CD
:102460008C836630E4F473DC823061F420E0A801F0
:10247000BE016F5F7F4F8091F4089091F5080E9434
:10248000CD0517C020E040E050E0BE016F5F7F4FF8
:102490008091F4089091F5080E94CD050AC020E0D3
:1024A000AD01BE016F5F7F4FCF010E947A0601C070
:1024B00080E00F900F900F900F900F90DF91CF91D1
:1024C0001F910F910895AF92BF92CF92DF92EF923A
:1024D000FF920F931F93CF93DF936C019ED97C01E2
:1024E0008091F0089091F108E816F90608F047C0CD
:1024F0002FC00580F681E02DA080B180C681D781F4
:102500008E010E5F1F4FC8010E94EF02E889F98912
:10251000CE0119958B8982FF1BC08C859D858A0D04
:102520009B1DA816B90660F49B838A83D987C88748
:10253000B8018091F8089091F9080E94BE0208C085
:1025400000E010E020E030E0A50160E0CE0174DFA3
:10255000E091F808F091F90880818111CACF80914B
:10256000F6089091F7089093F9088093F808F09393
:10257000F708E093F60881E0F601808302C0F601D7
:102580001082F092F108E092F008C701DF91CF913C
:102590001F910F91FF90EF90DF90CF90BF90AF9081
:1025A00008950895279A2F9A2FEF80E792E02150FF
:1025B00080409040E1F700C000001F9AF5CF279AB5
:1025C0002F9A2FEF87EA91E6215080409040E1F763
:1025D00000C000001F9AF5CF0E94530280E00E94C5
:1025E0000521E1D014D30E9439024ED31BD06FEFE6
:1025F0007FEF8091830A9091840A0E943B076FEFDE
:102600007FEF80917D0A90917E0A0E943B076FEFD9
:102610007FEF8091810A9091820A0E943B07BBD193
:10262000C3D8FFCF88E067D381E050C60895CF9329
:10263000DF9381E087D682E090E030DA80E082D6D6
:1026400086E990E02BDA92D6882321F08CE892E09C
:102650000E948D2686E990E021DAB5D7882321F003
:1026600083EA92E00E948D268CE099E091D688233F
:1026700029F084EB92E00E948D260EC08CE099E058
:102680009F938F9380EC92E09F938F930E947A2682
:102690000F900F900F900F904CE059E06EEC72E0AD
:1026A0008FEE92E00E94C11B882321F080E093E02E
:1026B0000E948D2680E0C1D6883029F480E193E025
:1026C0000E948D2613C0873089F4C5E0D0E080E0F9
:1026D000B4D6873039F48FE193E00E948D2621979C
:1026E000B1F704C08BE293E00E948D26DF91CF9179
:1026F0000895EF92FF920F931F93CF93DF93CDB77F
:10270000DEB766970FB6F894DEBF0FBECDBF86E08A
:1027100090E0C4D9D4D586E090E0C0D9EAD2F82EB2
:10272000E92EE5D2182F092F0E944C0226E02A83B9
:1027300021E02983EB82FC820D831E839F8388879F
:10274000BE016F5F7F4F80E09BD693EF980F923072
:10275000E8F081110DC01F921F9289E393E09F93CF
:102760008F930E947A260F900F900F900F900EC0BB
:102770000E94E21B9F938F9382E693E09F938F9337
:102780000E947A260F900F900F900F9066960FB6CA
:10279000F894DEBF0FBECDBFDF91CF911F910F9197
:1027A000FF90EF90089581E00E9462069093920A54
:1027B0008093910A892B39F481E00E9462069093FC
:1027C000920A8093910A81E00E9462069093840AA3
:1027D0008093830A892B39F481E00E9462069093EA
:1027E000840A8093830A81E00E94620690937E0AA5
:1027F00080937D0A892B39F481E00E9462069093D0
:102800007E0A80937D0A81E00E9462069093820A8C
:102810008093810A892B39F481E00E9462069093AB
:10282000820A8093810A81E00E94620690938A0A5C
:102830008093890A892B39F481E00E946206909383
:102840008A0A8093890A08956FEF7FEF8091910A39
:102850009091920A0E943B078130B1F70E940D0CC3
:1028600000E010E020E030E0AC0162E08091790A05
:1028700090917A0AE1DD813059F00E940D0C20E040
:1028800030E0AC0161E08091790A90917A0AD4DD60
:1028900020E040E050E060E070E08091910A90918B
:1028A000920A0E94CD058DE69DE0F8D8CDCFC7E60F
:1028B000D3E06FEF7FEF8091830A9091840A0E94AA
:1028C0003B078130B1F70E943F02DF93CF930E9414
:1028D0007A2684E690E0E2D820E040E050E060E034
:1028E00070E08091830A9091840A0E94CD0589EA64
:1028F00093E0D4D80F900F90DCCFC0E7D3E06FEF18
:102900007FEF80917D0A90917E0A0E943B07813083
:10291000B1F7C2D1DF93CF930E947A2684E690E08C
:10292000BDD820E040E050E060E070E080917D0A9A
:1029300090917E0A0E94CD0589EA93E0AFD80F906E
:102940000F90DDCF74DE86E090E0A8D8CEE7D3E02C
:102950006FEF7FEF8091810A9091820A0E943B077E
:102960008130B1F7C6DEDF93CF930E947A2684E6EA
:1029700090E094D820E040E050E060E070E080918A
:10298000810A9091820A0E94CD0583E597E086D85E
:102990000F900F90DDCFEF92FF920F930F2EF7E87D
:1029A000EF2EFAE0FF2EF02D03E021E030E040ECC6
:1029B00050E068E873E084E294E10E94B60A0F2ECA
:1029C000FDE8EF2EFAE0FF2EF02D02E021E030E0EE
:1029D00040EC50E069E973E087E594E10E94B60AB3
:1029E0000F2EFBE8EF2EFAE0FF2EF02D21E030E075
:1029F00040EC50E062EA73E08DE794E10E94B60A91
:102A00000F2EF5E8EF2EFAE0FF2EF02D21E030E05A
:102A100040EC50E060EB73E082EA94E10E94B60A79
:102A20000F91FF90EF9008958FEB93E09F938F931A
:102A30000E947A266FEF7FEF8091810A9091820A3F
:102A40000E943B070F900F90813041F089ED93E099
:102A50009F938F930E947A260F900F9020E040E082
:102A600050E060E070E08091910A9091920A0E949B
:102A7000CD05813041F080E094E09F938F930E94D8
:102A80007A260F900F9008950F931F9383E294E09E
:102A90009F938F930E947A266FEF7FEF8091910A28
:102AA0009091920A0E943B070F900F90813041F065
:102AB00083E394E09F938F930E947A260F900F9068
:102AC00020E040E050E060E070E08091830A909167
:102AD000840A0E94CD05813041F08BE594E09F93FC
:102AE0008F930E947A260F900F900E940D0C00E0A9
:102AF00010E020E030E0AC0161E080917F0A90912D
:102B0000800A9ADC1F910F9108950F931F938CE711
:102B100094E09F938F930E947A266FEF7FEF8091CE
:102B2000830A9091840A0E943B070F900F90813096
:102B300041F081E994E09F938F930E947A260F9051
:102B40000F9020E040E050E060E070E080917D0A6E
:102B500090917E0A0E94CD05813041F087EB94E090
:102B60009F938F930E947A260F900F900E940D0CD6
:102B700000E010E020E030E0AC0161E080917B0AF1
:102B800090917C0A59DC1F910F9108950F931F9328
:102B90008CED94E09F938F930E947A266FEF7FEFE6
:102BA00080917D0A90917E0A0E943B070F900F90C2
:102BB000813041F08DEE94E09F938F930E947A26AE
:102BC0000F900F9020E040E050E060E070E08091D6
:102BD000810A9091820A0E94CD05813041F087E1FF
:102BE00095E09F938F930E947A260F900F900E94FA
:102BF0000D0C00E010E020E030E0AC0161E08091DD
:102C00008F0A9091900A18DC1F910F9108950F93ED
:102C10001F9304E415E120E030E040E066EE7AE046
:102C200089E395E0D3DB90937A0A8093790A05E8EB
:102C300015E121E030E040E066E371E083E495E0F7
:102C4000C5DB9093800A80937F0A06EC15E122E0B1
:102C500030E040E066E371E082E595E0B7DB909319
:102C60007C0A80937B0A04E115E123E030E040E038
:102C700062EA73E08DE595E0A9DB9093900A80937A
:102C80008F0A1F910F91089595D0811104C081E79B
:102C900095E00C948D2608958EE390E00E944E0DF1
:102CA000A1D0882361F01F928F938AE895E09F93CB
:102CB0008F930E947A260F900F900F900F9083E0D1
:102CC00090E00E944E0DA3D0882361F01F928F9355
:102CD00087EA95E09F938F930E947A260F900F903A
:102CE0000F900F908EE390E00C944E0D0895DBC092
:102CF0000895B3C00895E3E9FAE023E63CE13183A7
:102D0000208326E63CE13383228321E73CE13583BF
:102D1000248325E73CE1378326832BE73CE1318799
:102D2000208727E83CE1338722872CE83CE1358780
:102D3000248728E93CE13787268728E73CE1318B67
:102D4000208B2DE93CE1338B228B2AEA3CE1358B49
:102D5000248B682FCF0152C108956530F1F4FA0138
:102D600080818F7390E0982F88272181822B909308
:102D70000902809308028281F0E48F9FC001112430
:102D8000FA01238126952695822B90930702809342
:102D9000060281E080931D090895643051F080E0BF
:102DA00090E4909307028093060290930902809327
:102DB000080208950F931F930DEA16E120E034E214
:102DC00044EF50E060E087E20E943F2190931F09AA
:102DD00080931E0921E0892B09F020E0822F1F91AA
:102DE0000F91089580911E0990911F09009759F045
:102DF00040E060E070E00E949021843031F4109255
:102E00001D0980E0089582E0089583E0089580918F
:102E10001E0990911F09009739F064E00E94DC219F
:102E2000853021F083E0089582E0089580E00895E0
:102E3000609108027091090280E090E00E94E62310
:102E400020E030E048EC52E40E94742420E038EFA7
:102E50004FE756E40C944D230895EADF20E030E07C
:102E600040E251E40E9474240E94BA23CB010895E9
:102E7000609106027091070280E090E00E94E623D4
:102E800020E030E045E253E40E94742420E038EF73
:102E90004FE756E40E944D2320E030E040E252E448
:102EA0000C94E8220895E4DF20E030E040E251E4B1
:102EB0000E9474240E94B523CB010895CF93DF9321
:102EC00090E0FC01EE0FFF1FE80FF91FEE0FFF1F50
:102ED000E05EF64F238121110AC0EF01E0919B0AC9
:102EE000F0919C0A6A8188819981199512C0DC0150
:102EF000AA0FBB1FED01C80FD91FCC0FDD1FC05E8D
:102F0000D64FE091A50AF091A60A6A81888199813D
:102F10001995DF91CF910895CF93DF9390E0FC0155
:102F2000EE0FFF1FE80FF91FEE0FFF1FE05EF64FD9
:102F3000238121110AC0EF01E091A50AF091A60AB0
:102F40006A8188819981199512C0DC01AA0FBB1F83
:102F5000ED01C80FD91FCC0FDD1FC05ED64FE09129
:102F60009B0AF0919C0A6A81888199811995DF9169
:102F7000CF91089585EC95E00E948D260F2EF3E900
:102F8000CF2EFAE0DF2EF02D04E0C0E2D9E010E011
:102F90008C81813069F0E8F0823039F5D6011C96D9
:102FA000ED91FC911D976A818881998119951DC0C9
:102FB0008D818F5F8A3010F48D8317C01D82D601FA
:102FC0001C96ED91FC911D976A81888199811995D4
:102FD0000CC08D81882331F0812F9EDF8D8181503F
:102FE0008D8303C00C83812F69DF1F5F2696143009
:102FF00079F685E090E00E944E0DC7CFCF92DF9228
:10300000EF92FF920F931F93CF93DF93062F0F2E14
:10301000F3E9EF2EFAE0FF2EF02DD7011896ED918F
:10302000FC91199766E087E290E01995C0E2D9E03B
:103030000F2EF8E2CF2ED12CF02DD982C88286E057
:103040008A831B8214E01C8380E038DFD701189646
:10305000ED91FC91199767E087E290E01995DF8286
:10306000CE8287E0888719861A8781E027DFD7011B
:103070001896ED91FC91199765E083E390E019951E
:10308000D7011896ED91FC91199761E084E390E0E7
:10309000199584E390E09D878C8785E08E871F8655
:1030A000188B82E00BDFD7011896ED91FC911997F0
:1030B00064E081E091E01995D7011896ED91FC91BB
:1030C000199761E082E091E0199582E091E09B8B95
:1030D0008A8B1C8B1D8A1E8B83E0F0DEE12CF12C89
:1030E00020E030E040EC50E06CED75E08AEB97E1D9
:1030F0000E94B60ADF91CF911F910F91FF90EF9040
:10310000DF90CF9008950F931F93CF93DF931F927B
:103110001F92CDB7DEB78C0119822DC0E0919C09BA
:10312000EC3250F481E08E0F80939C09F0E0E45380
:10313000F64F8A81808302C010929C098A818A306E
:10314000D1F440919C0950E0FA01E653F64F108209
:10315000415051099E012F5F3F4F6CEC79E0809107
:103160009D0990919E090E946709898181110E94A1
:10317000C40310929C09BE016E5F7F4FC801B3D596
:10318000882361F20F900F90DF91CF911F910F91E3
:1031900008950F931F93CF93DF938C01EB018091E0
:1031A0009D0990919E090E942809B80188E399E041
:1031B0000E945B26209779F0E8E3F9E00190002077
:1031C000E9F7319780E290E091838083BE0188E344
:1031D00099E00E945026E8E3F9E0DF010D9000201D
:1031E000E9F711978DE09AE011969C938E931296D1
:1031F0001C9201900020E9F73197E853F940AE2F77
:1032000088E399E0AC016A2F80919F099091A00911
:103210001AD581110FC028E235E04DE250E066E298
:103220007AE080919D0990919E090E94A90986E209
:103230009AE002C080E090E0DF91CF911F910F9162
:103240000895AF92BF92CF92DF92EF92FF920F93C9
:103250001F93CF93DF936C01FC0101900020E9F7ED
:1032600031977F01E81AF90A08E518E0C0E0D0E0DC
:10327000F80160817181A701C6010E946226892B35
:1032800049F4FE01EE0FFF1FEC0FFD1FE95AF74F47
:10329000808107C021960D5F1F4FC131D10541F7D5
:1032A00080E1DF91CF911F910F91FF90EF90DF9020
:1032B000CF90BF90AF9008956CDFC3CF08958091F9
:1032C0009D0990919E090C94280908958F929F92D0
:1032D000AF92CF92EF920F93CF93C82F41E060E06F
:1032E00070E088EC90E00E94FC0890939E09809327
:1032F0009D090F2EF3E88F2EF8E19F2EF02D689494
:10330000AA24A6F86894CC24C6F8E12C00E023E0B7
:1033100040E051EE60E070E08C2FDAD39093A0098A
:1033200080939F09E0919B0AF0919C0A64E087E0FA
:1033300091E01995CF910F91EF90CF90AF909F9022
:103340008F900895882349F0E091A50AF091A60A8C
:1033500064E088E091E019950895E0919B0AF0916E
:103360009C0A64E088E091E01995089560E070E0BF
:1033700083E096E00EDFE6E2FAE001900020E9F754
:103380003197E652FA4081E0759708F080E00895A1
:10339000CF93DF93EC0160E070E084E196E0F9DE2A
:1033A000E6E2FAE001900020E9F7E753FA4039F449
:1033B00066E27AE0CE010E945B2680E002C01882BD
:1033C00081E0DF91CF910895FC0101900020E9F7A1
:1033D0009F01215131092817390729F4BC0182E4E2
:1033E00096E06ACF089589E00895FC0101900020DD
:1033F000E9F79F01215131092817390729F4BC0148
:1034000081E596E059CF089589E00895FC01019087
:103410000020E9F79F01215231092817390729F4C3
:10342000BC0180E696E048CF089589E0089560E009
:1034300070E08FE996E040CF0895E82FF0E0EE0FBE
:10344000FF1FED5AF74F6081718188EA96E034DF03
:10345000811112C028E235E04DE250E066E27AE0E8
:1034600080919D0990919E090E94A909882321F0CD
:1034700086E29AE0E6CE089586E29AE0E2CE0895EA
:10348000CF93DF931F92CDB7DEB7DB0111969C91EE
:103490001197953108F087C0992381F160E070E0C1
:1034A000272F30E0462F50E0FD01E40FF51F9281F9
:1034B00092959F709A3010F0995C01C0905DF9016F
:1034C000E954F64F90832F5F3F4FFD01E40FF51F46
:1034D00092819F70492F50E04A30510514F0995C59
:1034E00001C0905DF901E954F64F90837E5F6F5FF4
:1034F00011969C911197691798F201C070E0E72F1F
:10350000F0E0E954F64F10824C91811103C081EB39
:1035100096E002C083EB96E027EB39E03F932F93D0
:103520001F924F939F938F9387EB96E09F938F9378
:1035300089EF99E09F938F930E94BD2660E070E031
:1035400089EF99E0B9DE0FB6F894DEBF0FBECDBFAC
:103550008E3051F587E08983BE016F5F7F4F86E231
:103560009AE03CD18093A109E981F0E0EA5DF54F52
:10357000DF010D900020E9F71197AE1BBF0BAA23C6
:1035800081F0BB271197CD010AF401969595879597
:103590008093A209AF014F5F5F4F64E183EA99E036
:1035A00049D18EE001C084E10F90DF91CF91089561
:1035B000813019F067EC76E002C067E877E08BECC9
:1035C00096E07ACE08952F923F924F925F926F923B
:1035D0007F928F929F92AF92BF92CF92DF92EF92A3
:1035E000FF920F931F93CF93DF93CDB7DEB7A097D2
:1035F0000FB6F894DEBF0FBECDBF60E177E08CE17F
:1036000097E0C7DD1EDE8111A3C080E2E1E2F2E0B7
:10361000DE01119601900D928A95E1F79E012F5FD0
:103620003F4F6901E12CF12C0F2EF8E2AF2EF7E0AD
:10363000BF2EF02D09EF19E00F2EF1E44F2EF7E029
:103640005F2EF02D0F2EF8E58F2EF7E09F2EF02D38
:103650000F2EF2E76F2EF7E07F2EF02D3E2C2F2C51
:10366000FF92EF92BF92AF921F930F930E94BD26DD
:1036700060E070E0C8018DDDE4DD0F900F900F90E9
:103680000F900F900F90811163C032E03E15E8F467
:10369000F60183818F9382818F9381818F938081C3
:1036A0008F93FF92EF925F924F921F930F930E941E
:1036B000BD2660E070E0C8016CDDC3DD0FB6F89494
:1036C000DEBF0FBECDBF811143C02F923F929F92AC
:1036D0008F921F930F930E94BD2660E070E0C80197
:1036E00058DDAFDD0F900F900F900F900F900F905F
:1036F00081112EC02F923F927F926F921F930F9352
:103700000E94BD2660E070E0C80143DD9ADD0F90A5
:103710000F900F900F900F900F90811119C03FEFF5
:10372000E31AF30A84E0C80ED11C98E0E916F1040C
:1037300009F094CF60E070E08AE897E02ADD81DD4F
:10374000811106C060E070E08BE997E022DD79DD51
:10375000A0960FB6F894DEBF0FBECDBFDF91CF911C
:103760001F910F91FF90EF90DF90CF90BF90AF909F
:103770009F908F907F906F905F904F903F902F9091
:103780000895EF92FF920F931F93CF93DF93EC0175
:103790008B017A0181E00CDF81110DC0CE0125DEA5
:1037A000811109C0C80132DE811105C0C7010CDEDC
:1037B000811101C03CDEDF91CF911F910F91FF90ED
:1037C000EF90089590E0FC01EE0FFF1F8E0F9F1FFA
:1037D000FC01E95AF74F818192810895DC0100973D
:1037E00029F1FB012081FC0101900020E9F73197CC
:1037F000E81BF90B822F90E0E817F907C8F080E08A
:1038000008C0880F382F330F330F830F8053890F71
:103810002F5FFD01E20FF11D908130ED390F3A303D
:1038200010F49111EECFFB012083089580E00895FC
:1038300080E008950F931F93CF93DF93DC01EA019B
:103840002097E1F1FA0101900020E9F73197E41B9C
:10385000F50B329710F532C08D01040F151F30E0C3
:10386000AE01420F531FFA019081913428F0975313
:10387000592F5295507F03C0592F5295507F2C0FCE
:103880003D1FF9019181913410F0975301C090537D
:10389000950FF80190838F5F01C080E0282F220FE1
:1038A000482F50E0FE0101900020E9F73197EC1B12
:1038B000FD0B4E175F0710F48613CECFDF91CF912B
:1038C0001F910F910895FC0180810895FC012081D2
:1038D00081E090E002C0880F991F6A95E2F7822389
:1038E0000895FC01808186230895FC01608308957A
:1038F000FC0110820895FC01408121E030E002C00B
:10390000220F331F6A95E2F7242B20830895FC01D0
:103910002081622B60830895FC01408121E030E02A
:1039200002C0220F331F6A95E2F7242720830895EF
:10393000FC012081622760830895FC01908121E0D1
:1039400030E002C0220F331F6A95E2F72095292349
:1039500020830895FC019081609569236083089518
:103960008091560A860F8093560A9091590A913099
:1039700079F028F09230A9F0933019F108956F3F53
:1039800009F048C01092560A81E08093590A0895C0
:10399000663809F03FC01092550A82E08093590AB8
:1039A0000895E091550A81E08E0F8093550AF0E06A
:1039B000ED5AF54F6083823069F583E08093590AB0
:1039C00008959091550A21E0290F2093550A9630C9
:1039D00009F581110EC0E3E5FAE0808190E0982FAF
:1039E00088272181820F911D90935B0A80935A0A48
:1039F00004C010925B0A10925A0A1092590AE09180
:103A0000570AF091580A309729F080915A0A9091FC
:103A10005B0A199508958F929F92AF92CF92EF9281
:103A20000F93CF93DF93EB010F2EF0EB8F2EFCE182
:103A30009F2EF02D6894AA24A4F86894CC24C4F88E
:103A4000E12C00E023E040E855E260E070E040D087
:103A500090935D0A80935C0AD093580AC093570AEA
:103A6000DF91CF910F91EF90CF90AF909F908F907B
:103A70000895CF93DF93CDB7DEB729970FB6F894AB
:103A8000DEBF0FBECDBF89E0E1E4F2E09E012F5F13
:103A90003F4FD90101900D928A95E1F710925B0A90
:103AA00010925A0A80915C0A90915D0A009731F059
:103AB000422F532F69E0C7D080E001C082E02996F1
:103AC0000FB6F894DEBF0FBECDBFDF91CF91089542
:103AD0002F923F924F925F926F927F928F929F921E
:103AE000AF92CF92EF92FF920F931F93CF93DF93FA
:103AF000CDB7DEB7F82E2A013B0188E090E09BD7D6
:103B00008C018F2D90E0880F991FFC01E25AF54F30
:103B100011830083FC01E65FFD4F80819181D80114
:103B20008D939C936C2D70E084E090E06AD71C012B
:103B300061E070E086E090E064D77C014C2DB1013B
:103B40002BD5F801F582E4826A2D70E084E090E0E4
:103B500058D71C0161E070E086E090E052D77C010C
:103B60004A2DB10119D5D8011396FC92EE92129705
:103B700017969C928E921697FFB6F894ED91FC9151
:103B8000119736978081826080838D909C90C301CD
:103B9000B2011CD620E030E040E051E4A5D69B0104
:103BA000AC0160E074E284E79BE477D520E030E08C
:103BB00040E85FE30DD5DED5F40132976083D8018C
:103BC000ED91FC911197359788E98083ED91FC91F7
:103BD000349786E08083FFBEC801DF91CF911F91AB
:103BE0000F91FF90EF90CF90AF909F908F907F902C
:103BF0006F905F904F903F902F900895CF93DF93F9
:103C0000EC01EA81FB81938182812581981B9223BB
:103C100084819817A1F0938126952923A081B181F1
:103C2000A20FB11D6C939F5F258192239383E8813E
:103C3000F981359780818062808380E001C082E0D5
:103C4000DF91CF910895EF92FF920F931F93CF933F
:103C5000DF937C01DC011296ED91FC911397938127
:103C60008281981B858198238481891B861798F10E
:103C7000662341F1842F952FDC016150462F50E0DF
:103C80004F5F5F4F480F591FE701EA81FB81938126
:103C900082812581981B92238481981779F08C91D9
:103CA000938126952923608171818B01020F111D5B
:103CB000E80188839F5F8581982393831196A417D9
:103CC000B50711F7D701ED91FC913597808180629E
:103CD000808380E001C082E0DF91CF911F910F913E
:103CE000FF90EF900895DC011496ED91FC911597EB
:103CF00093818281981789F09281858186958923A5
:103D0000A081B181A80FB11D8C91DB018C939F5FC5
:103D100085819823928380E0089583E008951F921F
:103D20000F920FB60F9211240BB60F922F933F9361
:103D30004F935F936F937F938F939F93AF93BF93B3
:103D4000CF93DF93EF93FF93A0915E0AB0915F0A48
:103D5000109711F16091C6001496ED91FC911597A2
:103D6000938182812581981B92238481981761F029
:103D7000838126952823C081D181C20FD11D6883FC
:103D80008F5F9581892383831696ED91FC91179718
:103D9000309711F0CD011995FF91EF91DF91CF91FF
:103DA000BF91AF919F918F917F916F915F914F9153
:103DB0003F912F910F900BBE0F900FBE0F901F9051
:103DC00018951F920F920FB60F9211240BB60F92F7
:103DD0002F938F939F93AF93BF93EF93FF93E091B4
:103DE0005E0AF0915F0A3097B9F00280F381E02D0E
:103DF000938182819817B1F092818581282F269531
:103E00002923A081B181A20FB11D2C919F5F89232D
:103E100082832093C6000BC0E1ECF0E080818F7DAF
:103E2000808305C0E1ECF0E080818F7D8083FF918D
:103E3000EF91BF91AF919F918F912F910F900BBEFA
:103E40000F900FBE0F901F9018951F920F920FB6F4
:103E50000F9211240BB60F922F933F934F935F93C2
:103E60006F937F938F939F93AF93BF93CF93DF9382
:103E7000EF93FF93A091600AB091610A109711F13E
:103E80006091CE001496ED91FC91159793818281FB
:103E90002581981B92238481981761F08381269550
:103EA0002823C081D181C20FD11D68838F5F958186
:103EB000892383831696ED91FC911797309711F023
:103EC000CD011995FF91EF91DF91CF91BF91AF9106
:103ED0009F918F917F916F915F914F913F912F9122
:103EE0000F900BBE0F900FBE0F901F9018951F9252
:103EF0000F920FB60F9211240BB60F922F938F9340
:103F00009F93AF93BF93EF93FF93E091600AF0917B
:103F1000610A3097B9F00280F381E02D93818281AC
:103F20009817B1F092818581282F26952923A081A9
:103F3000B181A20FB11D2C919F5F892382832093B1
:103F4000CE000BC0E9ECF0E080818F7D808305C05E
:103F5000E9ECF0E080818F7D8083FF91EF91BF914C
:103F6000AF919F918F912F910F900BBE0F900FBE2D
:103F70000F901F9018951F920F920FB60F92112459
:103F80000BB60F922F933F934F935F936F937F9353
:103F90008F939F93AF93BF93CF93DF93EF93FF9351
:103FA000A091620AB091630A109711F16091D60056
:103FB0001496ED91FC911597938182812581981B30
:103FC00092238481981761F0838126952823C081EC
:103FD000D181C20FD11D68838F5F9581892383832F
:103FE0001696ED91FC911797309711F0CD01199528
:103FF000FF91EF91DF91CF91BF91AF919F918F9101
:104000007F916F915F914F913F912F910F900BBED8
:104010000F900FBE0F901F9018951F920F920FB622
:104020000F9211240BB60F922F938F939F93AF9300
:10403000BF93EF93FF93E091620AF091630A309788
:10404000B9F00280F381E02D938182819817B1F05D
:1040500092818581282F26952923A081B181A20FE5
:10406000B11D2C919F5F892382832093D6000BC0C2
:10407000E1EDF0E080818F7D808305C0E1EDF0E02F
:1040800080818F7D8083FF91EF91BF91AF919F9150
:104090008F912F910F900BBE0F900FBE0F901F901E
:1040A00018951F920F920FB60F9211240BB60F9214
:1040B0002F933F934F935F936F937F938F939F9330
:1040C000AF93BF93CF93DF93EF93FF93A091640AD5
:1040D000B091650A109711F1609136011496ED9137
:1040E000FC911597938182812581981B922384816D
:1040F000981761F0838126952823C081D181C20F52
:10410000D11D68838F5F9581892383831696ED91F6
:10411000FC911797309711F0CD011995FF91EF9110
:10412000DF91CF91BF91AF919F918F917F916F91CF
:104130005F914F913F912F910F900BBE0F900FBE4B
:104140000F901F9018951F920F920FB60F92112487
:104150000BB60F922F938F939F93AF93BF93EF93D1
:10416000FF93E091640AF091650A3097B9F00280FC
:10417000F381E02D938182819817B1F0928185813E
:10418000282F26952923A081B181A20FB11D2C9142
:104190009F5F89238283209336010BC0E1E3F1E026
:1041A00080818F7D808305C0E1E3F1E080818F7D98
:1041B0008083FF91EF91BF91AF919F918F912F914C
:1041C0000F900BBE0F900FBE0F901F901895CF93BE
:1041D000DF931F92CDB7DEB7BE016F5F7F4F809137
:1041E000660A9091670A7FDD8111F6CF898190E0A0
:1041F0000F90DF91CF910895682F8091660A90917A
:10420000670AFCDC80E090E008958F929F92AF9265
:10421000CF92EF920F93812C912C6894AA24A7F847
:104220006894CC24C7F8E12C00E023E040E051EE94
:1042300060E070E04DDC9093670A8093660AEDEAD7
:10424000FAE082E192E091838083938382830F91ED
:10425000EF90CF90AF909F908F9008958091760AC5
:1042600081110CC08CE08093B8008FEF8093BB006D
:1042700084E08093BC0081E08093760A0895AF9239
:10428000BF92CF92DF92EF92FF920F931F93CF9343
:10429000DF93A82EB62E69017A0184E090E0CBD39B
:1042A000EC01892B61F1A88281E0B81212C0C7012C
:1042B000B60120EA36E841E050E079D3DA01C901DD
:1042C0004097A109B109B695A795979587958983D8
:1042D00011C0C701B60120E83AE146E050E067D3DB
:1042E000DA01C9014097A109B109B695A79597953B
:1042F000879589831B830A838C2F9D2F02C080E0C2
:1043000090E0DF91CF911F910F91FF90EF90DF90A0
:10431000CF90BF90AF9008958091BC0081700895B8
:10432000FF920F931F93CF93DF930097D1F14A3001
:10433000D0F5F42E8B01EC01EFDF811136C08091B6
:10434000690A90916A0AC817D90741F087DF898105
:104350008093B800D0936A0AC093690A81E08F0DF8
:1043600080936B0A8881880F80936C0AFF2089F004
:10437000F801ADE6BAE04FEF4F0D642F70E0CB01CE
:104380000196B801680F791F81918D93E617F707A1
:10439000D9F788EF8093200285EA8093BC0084E0FF
:1043A00005C086E003C087E001C082E0DF91CF91C5
:1043B0001F910F91FF9008951F93CF93DF93009764
:1043C00029F16B3028F5162FEC01A6DF811122C0F0
:1043D0008091690A90916A0AC817D90741F03EDFB7
:1043E00089818093B800D0936A0AC093690A1093B8
:1043F0006B0A8881880F816080936C0A88EF8093B4
:10440000200285EA8093BC0085E005C086E003C0F9
:1044100087E001C082E0DF91CF911F9108951F9244
:104420000F920FB60F9211240BB60F922F933F935A
:104430004F935F936F937F938F939F93AF93BF93AC
:10444000EF93FF93E091B9008E2F90E0FC01389735
:10445000E135F10508F075C08827E458FF4F8F4F0C
:10446000C8C21092680AE091680A80916B0AE81746
:1044700070F481E08E0F8093680AF0E0E459F54F04
:1044800080818093BB0085E88093BC0072C084E982
:104490008093BC008091690A90916A0ADC011296AF
:1044A000ED91FC911397309709F463C020E040E050
:1044B00050E064E019955DC0E091680A81E08E0FDC
:1044C0008093680A8091BB00F0E0E459F54F808347
:1044D0008091B900803411F41092680A2091680A22
:1044E00030E080916B0A90E001972817390724F497
:1044F00085EC8093BC003DC085E88093BC0039C04A
:104500008091BB00E091680AF0E0E459F54F8083A8
:1045100084E98093BC008091690A90916A0ADC0169
:104520001296ED91FC911397309719F120916B0A37
:104530004CE65AE065E019951CC085EA8093BC0002
:1045400018C08091B9008093200284E08093BC0061
:104550008091690A90916A0ADC011296ED91FC91B2
:104560001397309731F020E040E050E06091200256
:104570001995FF91EF91BF91AF919F918F917F918D
:104580006F915F914F913F912F910F900BBE0F90C4
:104590000FBE0F901F901895FC01411101C06CD304
:1045A000842F90E09C012150310982239323892B91
:1045B00009F062D3413808F05FD31282138244833A
:1045C000440F415045837183608380E090E00895FB
:1045D0005058BB27AA270ED04DC13ED130F043D151
:1045E00020F031F49F3F11F41EF433C10EF4E09536
:1045F000E7FB29C1E92F4FD180F3BA176207730790
:104600008407950718F071F49EF567C10EF4E095E4
:104610000B2EBA2FA02D0B01B90190010C01CA017C
:10462000A0011124FF27591B99F0593F50F4503E27
:1046300068F11A16F040A22F232F342F4427585F19
:10464000F3CF469537952795A795F0405395C9F731
:104650007EF41F16BA0B620B730B840BBAF09150E9
:10466000A1F0FF0FBB1F661F771F881FC2F70EC088
:10467000BA0F621F731F841F48F48795779567955B
:10468000B795F7959E3F08F0B3CF9395880F08F044
:104690009927EE0F9795879508950CD0EBC0E3D03E
:1046A00040F0DAD030F021F45F3F19F0CCC0511166
:1046B00015C1CFC0F0D098F39923C9F35523B1F3B6
:1046C000951B550BBB27AA2762177307840738F081
:1046D0009F5F5F4F220F331F441FAA1FA9F333D0E0
:1046E0000E2E3AF0E0E830D091505040E695001C94
:1046F000CAF729D0FE2F27D0660F771F881FBB1F50
:10470000261737074807AB07B0E809F0BB0B802D29
:10471000BF01FF2793585F4F2AF09E3F510568F075
:1047200092C0DCC05F3FECF3983EDCF38695779552
:104730006795B795F7959F5FC9F7880F911D969577
:10474000879597F90895E1E0660F771F881FBB1FD3
:10475000621773078407BA0720F0621B730B840B80
:10476000BA0BEE1F88F7E095089504D06894B11154
:10477000B5C0089598D088F09F5790F0B92F992729
:10478000B751A0F0D1F0660F771F881F991F1AF05C
:10479000BA95C9F712C0B13081F09FD0B1E0089549
:1047A0009CC0672F782F8827B85F39F0B93FCCF3CA
:1047B000869577956795B395D9F73EF49095809552
:1047C000709561957F4F8F4F9F4F0895E89409C072
:1047D00097FB3EF490958095709561957F4F8F4F34
:1047E0009F4F9923A9F0F92F96E9BB279395F6954A
:1047F000879577956795B795F111F8CFFAF4BB0FC8
:1048000011F460FF1BC06F5F7F4F8F4F9F4F16C02B
:10481000882311F096E911C0772321F09EE8872FB5
:10482000762F05C0662371F096E8862F70E060E071
:104830002AF09A95660F771F881FDAF7880F9695EA
:10484000879597F9089597F99F6780E870E060E091
:1048500008959FEF80EC089500240A941616170619
:1048600018060906089500240A9412161306140661
:1048700005060895092E0394000C11F4882352F0C4
:10488000BB0F40F4BF2B11F460FF04C06F5F7F4F7C
:104890008F4F9F4F089557FD9058440F551F59F063
:1048A0005F3F71F04795880F97FB991F61F09F3F1D
:1048B00079F087950895121613061406551FF2CF46
:1048C0004695F1DF08C0161617061806991FF1CF96
:1048D00086957105610508940895E894BB276627BD
:1048E0007727CB0197F908950BD0C4CFB5DF28F017
:1048F000BADF18F0952309F0A6CFABCF1124EECF85
:10490000CADFA0F3959FD1F3950F50E0551F629F2A
:10491000F001729FBB27F00DB11D639FAA27F00D18
:10492000B11DAA1F649F6627B00DA11D661F829F3F
:104930002227B00DA11D621F739FB00DA11D621F24
:10494000839FA00D611D221F749F3327A00D611D41
:10495000231F849F600D211D822F762F6A2F112423
:104960009F5750408AF0E1F088234AF0EE0FFF1F76
:10497000BB1F661F771F881F91505040A9F79E3FAD
:10498000510570F060CFAACF5F3FECF3983EDCF3A7
:10499000869577956795B795F795E7959F5FC1F7EA
:1049A000FE2B880F911D9695879597F90895A1E2A2
:1049B0001A2EAA1BBB1BFD010DC0AA1FBB1FEE1F99
:1049C000FF1FA217B307E407F50720F0A21BB30BE4
:1049D000E40BF50B661F771F881F991F1A9469F760
:1049E00060957095809590959B01AC01BD01CF01BC
:1049F0000895EE0FFF1F881F8BBF0790F691E02DE3
:104A000019940F931F93CF93DF93869F8001879F05
:104A1000100D969F100D1124C8010DD0EC010097C8
:104A200021F0A80160E070E034D1CE01DF91CF9198
:104A30001F910F9108950F931F93CF93DF938230AF
:104A4000910510F482E090E0E091AB0AF091AC0A9D
:104A500020E030E0A0E0B0E0309719F140815181D2
:104A60000281138148175907C8F08417950769F424
:104A7000109731F012960C93129713961C9327C03F
:104A80000093AB0A1093AC0A22C02115310519F02E
:104A90004217530718F49A01BD01EF01DF01F80135
:104AA000DBCF21153105F9F0281B390B24303105F6
:104AB00080F48A819B816115710521F0FB0193834C
:104AC000828304C09093AC0A8093AB0AFE013296B5
:104AD00044C0FE01E20FF31F8193919322503109EC
:104AE000398328833AC02091A90A3091AA0A232B3E
:104AF00041F420910202309103023093AA0A2093DC
:104B0000A90A20910002309101022115310541F4DA
:104B10002DB73EB74091040250910502241B350B7E
:104B2000E091A90AF091AA0AE217F307A0F42E1B5C
:104B30003F0B2817390778F0AC014E5F5F4F241701
:104B4000350748F04E0F5F1F5093AA0A4093A90AF9
:104B50008193919302C0E0E0F0E0CF01DF91CF912B
:104B60001F910F910895CF93DF93009709F481C0AF
:104B7000FC01329713821282A091AB0AB091AC0A69
:104B8000109781F420813181820F931F2091A90A0F
:104B90003091AA0A2817390751F5F093AA0AE09331
:104BA000A90A67C0ED0120E030E0CE17DF0740F42E
:104BB0004A815B819E0141155105F1F0EA01F5CF73
:104BC000D383C28340815181840F951FC817D907B1
:104BD00059F488819981840F951F0296918380836F
:104BE0008A819B81938382832115310529F4F09377
:104BF000AC0AE093AB0A3DC0E901FB83EA8349912B
:104C00005991C40FD51FEC17FD0761F48081918184
:104C1000840F951F0296E90199838883828193818D
:104C20009B838A83E0E0F0E012968D919C9113972C
:104C3000009719F0FD01DC01F7CF8D919C91119740
:104C40009D012E5F3F4F820F931F2091A90A309143
:104C5000AA0A2817390769F4309729F41092AC0A88
:104C60001092AB0A02C013821282B093AA0AA093D8
:104C7000A90ADF91CF91089581E090E0F89458C39C
:104C8000FB01DC0102C001900D9241505040D8F769
:104C90000895DC0101C06D9341505040E0F7089544
:104CA000FB01DC010D900020E9F7119701900D92B6
:104CB0000020E1F70895FB01DC0101900D92002036
:104CC000E1F70895FB01DC014150504088F08D91DF
:104CD00081341CF08B350CF4805E619161341CF0E2
:104CE0006B350CF4605E861B611171F3990B0895AE
:104CF000881BFCCFCF93DF93CDB7DEB7AE014A5F01
:104D00005F4FFA0161917191AF018091AF0A90916B
:104D1000B00A61D0DF91CF9108950F931F93CF9385
:104D2000DF93E091AF0AF091B00A238121FF1BC00D
:104D30008C01D0E0C0E0F80181918F016091AF0A51
:104D40007091B00ADB011896ED91FC9119978823B8
:104D500031F01995892B79F3DFEFCFEFECCF8AE0B3
:104D60001995892B19F08FEF9FEF02C08D2F9C2F83
:104D7000DF91CF911F910F9108950F931F93CF93C0
:104D8000DF93CDB7DEB72E970FB6F894DEBF0FBE18
:104D9000CDBF0E891F8986E08C831A8309838FEF2C
:104DA0009FE79E838D83AE01465E5F4F688D798D50
:104DB000CE01019610D0EF81F885E00FF11F10822F
:104DC0002E960FB6F894DEBF0FBECDBFDF91CF9108
:104DD0001F910F9108952F923F924F925F926F9281
:104DE0007F928F929F92AF92BF92CF92DF92EF927B
:104DF000FF920F931F93CF93DF93CDB7DEB72B971F
:104E00000FB6F894DEBF0FBECDBF6C017B018A01E7
:104E1000FC0117821682838181FFBFC1CE010196FA
:104E20003C01F6019381F70193FD859193FF8191F8
:104E30007F01882309F4ADC1853239F493FD859152
:104E400093FF81917F01853221F4B60190E0D6D1A4
:104E5000E8CF912C212C312CFFE1F315D8F08B32C7
:104E600079F038F4803279F08332A1F4232D206177
:104E70001DC08D3261F0803369F4232D216016C08E
:104E8000832D8260382EE32DE4603E2E2AC0F32D60
:104E9000F8601DC037FC2DC020ED280F2A3040F0EF
:104EA0008E32B9F436FC75C1232D2064322E19C020
:104EB00036FE06C08AE0989E200D1124922E11C065
:104EC000EAE02E9E200D1124222EF32DF0623F2EBB
:104ED00008C08C3621F4832D8068382E02C08836B5
:104EE00041F4F70193FD859193FF81917F01811139
:104EF000B3CF982F9F7D9554933028F40C5F1F4FAC
:104F00009FE399830DC0833631F0833771F0833589
:104F100009F055C020C0F801808189830E5F1F4FC2
:104F200088248394912C530112C02801F2E04F0E83
:104F3000511CF801A080B18036FE03C0692D70E0DD
:104F400002C06FEF7FEFC5014ED14C018201F32DFE
:104F5000FF773F2E15C0280122E0420E511CF801B8
:104F6000A080B18036FE03C0692D70E002C06FEFF3
:104F70007FEFC5012DD14C01F32DF0683F2E82014A
:104F800033FC19C0822D90E088169906A0F4B60172
:104F900080E290E033D12A94F5CFF50137FC85917A
:104FA00037FE81915F01B60190E028D121102A944B
:104FB00021E0821A91088114910479F7E1C08436C6
:104FC00011F0893639F5F80137FE07C0608171812B
:104FD000828193810C5F1F4F08C060817181072E11
:104FE000000C880B990B0E5F1F4FF32DFF763F2EA1
:104FF00097FF09C090958095709561957F4F8F4F71
:105000009F4FF0683F2E2AE030E0A30133D1882E75
:10501000861844C0853731F4232D2F7EB22E2AE026
:1050200030E025C0932D997FB92E8F36C1F018F44A
:10503000883579F0AEC0803719F0883721F0A9C0E3
:10504000E92FE061BE2EB4FE0DC0FB2DF460BF2E33
:1050500009C034FE0AC0292F2660B22E06C028E0FF
:1050600030E005C020E130E002C020E132E0F8018C
:10507000B7FE07C060817181828193810C5F1F4FF1
:1050800006C06081718180E090E00E5F1F4FA30138
:10509000F1D0882E8618FB2DFF773F2E36FE0DC0EF
:1050A000232D2E7FA22E891458F434FE0BC032FC1F
:1050B00009C0832D8E7EA82E05C0B82CA32C03C05A
:1050C000B82C01C0B92CA4FE0FC0FE01E80DF11DE3
:1050D0008081803321F49A2D997EA92E09C0A2FEE9
:1050E00006C0B394B39404C08A2D867809F0B394B3
:1050F000A3FC10C0A0FE06C0B21480F4280C922CB1
:105100009B180DC0B21458F4B60180E290E076D03E
:10511000B394F8CFB21418F42B1802C0982C212C99
:10512000A4FE0FC0B60180E390E068D0A2FE16C0D6
:10513000A1FC03C088E790E002C088E590E0B601DA
:105140000CC08A2D867851F0A1FE02C08BE201C00E
:1051500080E2A7FC8DE2B60190E050D0891430F4D3
:10516000B60180E390E04AD09A94F8CF8A94F30194
:10517000E80DF11D8081B60190E040D08110F6CF9E
:10518000222009F44ECEB60180E290E037D02A9476
:10519000F7CFF6018681978102C08FEF9FEF2B96A4
:1051A0000FB6F894DEBF0FBECDBFDF91CF911F9138
:1051B0000F91FF90EF90DF90CF90BF90AF909F90B6
:1051C0008F907F906F905F904F903F902F900895B9
:1051D000FC010590615070400110D8F780959095C2
:1051E0008E0F9F1F0895FC016150704001900110C7
:1051F000D8F7809590958E0F9F1F08950F931F935A
:10520000CF93DF93FB01238121FD03C08FEF9FEF3D
:105210002CC022FF16C04681578124813581421758
:10522000530744F4A081B1819D012F5F3F4F31832B
:1052300020838C93268137812F5F3F4F37832683CE
:1052400014C08B01EC01FB010084F185E02D199560
:10525000892BE1F6D80116968D919C9117970196AE
:1052600017969C938E931697CE01DF91CF911F9145
:105270000F910895FA01AA27283051F1203181F1C8
:10528000E8946F936E7F6E5F7F4F8F4F9F4FAF4F4E
:10529000B1E03ED0B4E03CD0670F781F891F9A1F61
:1052A000A11D680F791F8A1F911DA11D6A0F711D15
:1052B000811D911DA11D20D009F468943F912AE021
:1052C000269F11243019305D3193DEF6CF01089509
:1052D000462F4770405D4193B3E00FD0C9F7F6CF3A
:1052E000462F4F70405D4A3318F0495D31FD405202
:1052F000419302D0A9F7EACFB4E0A6959795879598
:1053000077956795BA95C9F7009761057105089576
:105310009B01AC010A2E0694579547953795279522
:10532000BA95C9F7620F731F841F951FA01D0895BA
:04533000F894FFCF1F
:105334000000B30A200000400040C600CE00D600A2
:1053440036010000000300000000FC20E7200000FC
:10535400F8A027BE33E034C1332042C43360E5AE45
:1053640033A0F2B133E0FFB433200DB833601ABB7D
:1053740033FF0186000000000079FF0179A00000DE
:105384000000E6FF0179000000000086FF018700AD
:105394000000000078FF0188000000000000434F77
:1053A400325F53454E534F525F4552524F5200495C
:1053B400444C4500546D7220537663004641435477
:1053C4004F52595F52455345545F4641494C5552DB
:1053D400452000434F4E4649475552455F4252458A
:1053E400414B2000485755495F4552524F522000C7
:1053F40025732C204445565F455549200A006439DD
:10540400346433393966343766356533353561622A
:10541400626332663633616439313831653100652F
:105424003534353963326166326439303631660079
:105434004944454E544954595F425245414B20001A
:105444004C4F52415F414343455054454420004C26
:105454004F52415F44454E494544004C4F52415FD1
:1054640041434345505445440052657475726E205F
:10547400636F6465202853656E642075706C6F617A
:1054840064206D65737361676529202D3E2025694D
:1054940020003E25733C00636F32207461736B00FF
:1054A40074656D702068756D207461736B006C6F2A
:1054B4007261207461736B00537461727420437958
:1054C400636C65205461736B00434F3220546173E5
:1054D4006B0074656D702068756D205461736B008A
:1054E4004C6F52612073656E642064617461003195
:1054F4006D2072657374617274206379636C6520C6
:1055040063616C6C6261636B004552524F52203A86
:10551400204C6F52612073656D6170686F726520F5
:105524006E6F742074616B656E206261636B2E0014
:105534004552524F52203A204379636C652073657B
:105544006D6170686F7265206E6F7420676976652F
:105554006E2E00376D20636F322063616C6C626164
:10556400636B004552524F52203A204379636C6575
:105574002073656D6170686F7265206E6F7420743E
:10558400616B656E206261636B2E004552524F520F
:10559400203A20434F322073656D6170686F7265E5
:1055A400206E6F7420676976656E2E00316D2074ED
:1055B400656D705F68756D2063616C6C6261636BAF
:1055C400004552524F52203A20434F322073656DAA
:1055D4006170686F7265206E6F742074616B656EA4
:1055E400206261636B2E004552524F52203A205480
:1055F400656D7048756D2073656D6170686F726557
:10560400206E6F7420676976656E2E00316D206C94
:105614006F72612063616C6C6261636B004552520E
:105624004F52203A2054656D7048756D2073656D36
:105634006170686F7265206E6F742074616B656E43
:10564400206261636B2E004552524F52203A204C27
:105654006F52612073656D6170686F7265206E6F43
:105664007420676976656E2E00434F322054696D4D
:1056740065720054656D702048756D2054696D65C0
:1056840072004C6F52612054696D657200526573EB
:1056940074617274204379636C652054696D65721A
:1056A4000074656D705F68756D5F73656E736F729E
:1056B4005F63726561746564200074656D705F6812
:1056C400756D5F53454E534F525F4552524F5220B2
:1056D4002D2D3E2025640074656D705F68756D5FC7
:1056E40053454E534F525F4552524F5231202D2D48
:1056F4003E2025640048414C206C6564207461732D
:105704006B207374617274656421210048414C5F9D
:105714004C454400737973207265736574006D6140
:1057240063207061757365006D61632072657375C4
:105734006D650073797320666163746F7279524585
:1057440053455400737973206765742068776575D1
:1057540069006D6163206765742067776E62006D10
:10576400616320736574206C696E6B63686B2025BC
:1057740064006D6163207365742064657665756982
:10578400006D6163207365742061707065756900D4
:105794006D616320736574206170706B6579006D51
:1057A400616320736574206E776B736B6579006D2C
:1057B40061632073657420617070736B6579006D2B
:1057C4006163207365742064657661646472006D3E
:1057D40061632073617665006D6163206A6F696E31
:1057E40000756E636E66006D6163207478202573A6
:1057F400202564202573006F6666006D6163207345
:10580400657420616472006D616320676574206152
:105814006472006D61632073657420647220256472
:10582400006D616320676574206472006D6163209C
:1058340073657420727864656C6179312025640025
:105844003320383639353235303030006D616320DD
:1058540073657420727832006D61632073657420FF
:10586400636820646379636C652025642037393963
:10587400006D6163207365742063682066726571CE
:1058840020256420256C75006D6163207365742088
:10589400636820647272616E67652025642030201D
:1058A40037006D61632073657420636820737461CD
:1058B400747573202564206F6E006D6163207365B9
:1058C40074207077726964782031006D616320738D
:1058D400657420726574782037006F7461610061AB
:1058E4006270004B4559535F4E4F545F494E4954C3
:1058F400004E4F5F465245455F43480053494C456F
:105904004E540042555359004D41435F5041555345
:10591400454400494E56414C49445F504152414D23
:10592400004E4F545F4A4F494E454400494E56413C
:105934004C49445F444154415F4C454E00465241FA
:105944004D455F434F554E5445525F4552525F5249
:10595400454A4F494E5F4E4545444544004D4143F9
:105964005F54585F4F4B004D41435F52585F4F4B5C
:10597400004D41435F4552524F5200554E4B4E4FDE
:10598400574E00AA07AF07003E0801450802B307B7
:1059940003C10704CC0705D30706D8070724030867
:1059A400300309E3070AF1070BFC070C0D080D2D62
:0A59B400080E37080F4108104B08D9
:00000001FF
