:1000000005C2000024C2000022C2000020C200007D
:100010001EC200001CC200001AC2000018C200006C
:1000200016C2000014C2000012C2000010C200007C
:100030005CC400000CC200000AC2000008C200003C
:1000400006C2000004C2000002C2000000C200009C
:10005000FEC10000FCC10000FAC10000F8C10000B0
:10006000F6C100000C94471A0C94991AF0C10000D4
:10007000EEC10000ECC10000EAC10000E8C10000D0
:10008000E6C10000E4C10000E2C10000E0C10000E0
:100090000C94DD1A0C942F1BDAC100000C94E61CA2
:1000A000D6C10000D4C10000D2C10000D0C1000000
:1000B000CEC10000CCC10000CAC10000C8C1000010
:1000C000C6C10000C4C10000C2C100000C94731B73
:1000D0000C94C51BBCC100000C94091C0C945B1C47
:1000E000B6C10000950195019501C401CC01DB0169
:1000F00095019501C401CC01081D781D781D781D5E
:10010000781D781D781D781D081D781D781D781DB7
:10011000781D781D781D781D0A1D781D781D781DA5
:10012000781D781D781D781D781D781D781D781D27
:10013000781D781D781D781D0A1D781D781D781D85
:10014000781D781D781D781D781D781D781D781D07
:10015000781D781D781D781D741D781D781D781DFB
:10016000781D781D781D781D3F1D781D781D781D20
:10017000781D781D781D781D781D781D781D781DD7
:10018000781D781D781D781D331D781D781D781D0C
:10019000781D781D781D781D571D04EA16E00F2E76
:1001A000FCECEF2EF6E0FF2EF02D8091A3068823C5
:1001B00011F10FB6F8940F92D8011596ED91FC91BC
:1001C0001697C681D781CE010296F5D18091990606
:1001D0008150809399068091A30681508093A30655
:1001E0000F900FBE8F89988D73D1CE0171D1809100
:1001F000A3068111DECFF7018081823008F0B0D2F2
:100200000E94BD12D2CFCF93DF9300D000D0CDB7E4
:10021000DEB7CE0101964C0144244394E12CF12C2D
:10022000512CC82ED92CE091FA06F091FB06808162
:10023000882309F4D7C00580F681E02DA080B18025
:100240000E94F30BC4010E944F128C01898181111D
:1002500048C00A151B05B0F10E94BD0CE091FA06DA
:10026000F091FB060580F681E02D66807780C30162
:100270000296A1D1D30153968C91539782FF17C058
:100280001C966D917C911D976A0D7B1D9501A801AF
:10029000C3010E945A11882369F00E2D1F2D2E2DA7
:1002A0003F2DA501652DC3010E94081203C08E7F5A
:1002B000F301838BD3015096ED91FC915197C301CB
:1002C000199584C0452DB501601B710B8091F60610
:1002D0009091F70678D60E94BD0C811177C040D26C
:1002E00075C00E94BD0C72C0898188230CF46EC059
:1002F000AC80BD80F50182859385892B19F0C501FD
:10030000029659D1CE0106960E944F12AC01E981A6
:100310000E2E000CFF0BEA30F10508F057C08827BD
:10032000EE58FF4F8F4F0C94A91FD50153968C9117
:100330005397816053968C9353972A813B811C96E7
:100340006D917C911D97620F731FC5010E945A1118
:100350008823E1F1D5015096ED91FC915197C501AB
:100360001995F501838982FF31C04A815B818485BB
:100370009585480F591F0E2D1F2D2E2D3F2D652DB4
:10038000C5010E94081222C0D50153968C91539743
:100390008E7F53968C931AC0F50183898160838B7D
:1003A0006A817B8175876487640F751F9A01C50117
:1003B0000E945A110BC0D50153968C9181FD03C048
:1003C000C50186D003C08E7FF501838B4E2D5F2D36
:1003D0006C2D7D2D8091F6069091F706AFD481119A
:1003E00083CF21CF0E94F30BC4010E944F128C01D6
:1003F0008981811176CFE091F806F091F90680812C
:10040000442D8111452DAE2CBF2C5DCF11241FBE74
:10041000CFEFD1E2DEBFCDBF00E00CBF16E0A0E021
:10042000B2E0E4E9F8E400E00BBF02C007900D92EF
:10043000AC38B107D9F728E0ACE8B6E001C01D92AE
:10044000A73AB207E1F70E94D8120C944824D8CDFD
:10045000CF93DF931F921F92CDB7DEB7CE010196E7
:1004600090937408809373080F900F90DF91CF9151
:10047000089568E272E083E00C94F2180895E7E0D2
:10048000F1E080818F6080830895E8E0F1E0908161
:10049000907F908390818F70982B90830895E8E0EF
:1004A000F1E08081807F80830895CF93DF93EC011A
:1004B0000E94F30BCE010E94CB1FEC010E94BD0CE9
:1004C000209711F40E94BE12CE01DF91CF910895C2
:1004D000CF93DF93009741F0EC010E94F30BCE0124
:1004E0000E9463200E94BD0CDF91CF910895FC0112
:1004F0000396928381832FEF3FEF34832383968388
:1005000085839087878310820895FC011186108669
:100510000895CF93DF939C01FB01DC011196CD91EF
:10052000DC911297D383C2838C819D8195838483D0
:100530008C819D81DC0113967C936E9312977D8351
:100540006C8331872087F90180818F5F8083DF9101
:10055000CF910895CF93DF93EB01488159814F3FAD
:100560002FEF520721F4FC01A781B0850DC0DC01FB
:10057000139601C0DF011296ED91FC911397208133
:10058000318142175307B0F71296ED91FC91139702
:10059000FB83EA83D583C483BD83AC831396DC934A
:1005A000CE93129799878887FC0120812F5F208343
:1005B000DF91CF910895CF93DF93FC01A085B185A2
:1005C000C281D381848195819D838C83C481D581AF
:1005D000828193819B838A8311968D919C9112973E
:1005E000E817F90731F48481958112969C938E93D4
:1005F0001197118610868C9181508C938C91DF918C
:10060000CF91089531E1FC013083319722E22083BC
:100610003197A3E3A083319760833197708331973B
:10062000108231971082319760E860833197108291
:100630003197108231971082319762E06083319751
:1006400063E06083319764E06083319765E06083A5
:10065000319766E06083319767E06083319768E0A7
:100660006083319769E06083319760E160833197FF
:100670003083319732E13083319733E130833197E2
:1006800034E13083319735E13083319736E130837F
:10069000319737E13083319738E13083319739E151
:1006A0003083319730E23083319731E230833197B4
:1006B0002083319723E22083319740833197508301
:1006C000319726E22083319727E22083319728E271
:1006D0002083319729E22083319720E320833197CB
:1006E00021E3208389970895A89590EC88E10FB6BF
:1006F000F894A895809360000FBE90936000A0913D
:10070000F006B091F106CD91CDBFDD91DEBFFF9136
:10071000EF91DF91CF91BF91AF919F918F917F9199
:100720006F915F914F913F912F911F910F91FF908A
:10073000EF90DF90CF90BF90AF909F908F907F9081
:100740006F905F904F903F902F901F900F900CBE36
:100750000F900BBE0F900FBE0F90089581E008958B
:100760000F920FB6F8940F920BB60F920CB60F9231
:100770001F9211242F923F924F925F926F927F921D
:100780008F929F92AF92BF92CF92DF92EF92FF92A1
:100790000F931F932F933F934F935F936F937F9389
:1007A0008F939F93AF93BF93CF93DF93EF93FF9379
:1007B000A091F006B091F1060DB60D920EB60D9215
:1007C0000E944B0DA091F006B091F106CD91CDBFE6
:1007D000DD91DEBFFF91EF91DF91CF91BF91AF919E
:1007E0009F918F917F916F915F914F913F912F9149
:1007F0001F910F91FF90EF90DF90CF90BF90AF903F
:100800009F908F907F906F905F904F903F902F9030
:100810001F900F900CBE0F900BBE0F900FBE0F904D
:1008200008950F920FB6F8940F920BB60F920CB674
:100830000F921F9211242F923F924F925F926F92CC
:100840007F928F929F92AF92BF92CF92DF92EF9260
:10085000FF920F931F932F933F934F935F936F9349
:100860007F938F939F93AF93BF93CF93DF93EF9338
:10087000FF93A091F006B091F1060DB60D920EB661
:100880000D9213BEC0D781110E944B0DA091F006AE
:10089000B091F106CD91CDBFDD91DEBFFF91EF911B
:1008A000DF91CF91BF91AF919F918F917F916F9188
:1008B0005F914F913F912F911F910F91FF90EF907A
:1008C000DF90CF90BF90AF909F908F907F906F9070
:1008D0005F904F903F902F901F900F900CBE0F9005
:1008E0000BBE0F900FBE0F9008959BDF18950FB6AB
:1008F000F8940F92FC01928D0F900FBE81E0911140
:1009000080E008950F931F93CF93DF93EC01042FA2
:100910001A8D4C8D41110CC088819981892B09F069
:1009200042C08C819D810E94130F1D821C8242C097
:10093000011117C050E08A819B810E94F0202C8D0C
:100940008A819B81820F911D9B838A832C813D81AB
:100950008217930750F1888199819B838A8380E075
:1009600029C050E08E819F810E94F0208C8D90E004
:100970009195819591092E813F81280F391F3F83E1
:100980002E83488159812417350730F42C813D810D
:10099000820F931F9F838E83023049F4112349F005
:1009A000115080E007C080E005C080E003C080E017
:1009B00001C080E01F5F1A8FDF91CF911F910F91CF
:1009C0000895FC01448D4423A9F050E0268137812D
:1009D000240F351F37832683848195812817390793
:1009E00020F08081918197838683CB016681778116
:1009F0000C94F0200895EF92FF920F931F93CF93E2
:100A00008C010FB6F8940F92FC01C68D1C16ACF445
:100A10008189811106C011C0F8018189811105C049
:100A20000CC07801F1E1EF0EF11CC7010E94020E2B
:100A300081110E948A0EC15079F78FEFF801868FDD
:100A40000F900FBE0FB6F8940F92C58D1C16ACF424
:100A50008085811106C011C0F8018085811105C013
:100A60000CC07801F8E0EF0EF11CC7010E94020EE5
:100A700081110E948A0EC15079F78FEFF801858F9E
:100A80000F900FBECF911F910F91FF90EF9008959F
:100A9000CF93DF93EC010FB6F8940F92E881F981C0
:100AA0008B8D2C8D90E030E0829FA001839F500DB4
:100AB000929F500D11244E0F5F1F5D834C831A8E41
:100AC000FB83EA830197829FA001839F500D929F31
:100AD000500D1124CF01840F951F9F838E838FEFBC
:100AE0008D8F8E8F61110BC08885882371F0CE01A8
:100AF00008960E94020E882341F032DE06C0CE0125
:100B00000896F5DCCE014196F2DC0F900FBE81E035
:100B1000DF91CF910895FF920F931F93CF93DF93AF
:100B2000082F162FF42E6623B9F0869FC0011124DA
:100B30008196BBDCEC01009741F414C00B8F1C8F35
:100B400061E0CE01A5DFF8A20DC08196998388836C
:100B5000F5CFD983C883F2CF81E290E0A6DCEC0127
:100B6000892BB9F7CE01DF91CF911F910F91FF90A3
:100B700008959F92AF92BF92CF92DF92EF92FF9231
:100B80000F931F93CF93DF9300D01F921F92CDB787
:100B9000DEB78C016B015D834C83A22EB12C9924AE
:100BA00093947C0188E0E80EF11C0FB6F8940F9244
:100BB000F801928D838D981718F0F2E0AF1216C0ED
:100BC0004A2DB601C8019EDEF8019189992341F0B2
:100BD000C80141960E94020E882321F0C1DD02C0A7
:100BE0008111BEDD0F900FBE81E047C08C819D81D9
:100BF000892B21F40F900FBE80E03FC0B11005C0DB
:100C0000CE0101960E944A0EB92C0F900FBEEBD573
:100C10000FB6F8940F92F801858D8F3F09F4158E69
:100C2000F801868D8F3F09F4168E0F900FBEBE011E
:100C30006C5F7F4FCE0101960E94550E811119C045
:100C40000FB6F8940F92F801928D838D0F900FBE1E
:100C500098130BC06C817D81C701ABD7C801CBDE77
:100C60008CD68111A2CF7CDDA0CFC801C4DE85D691
:100C70009CCFC801C0DE81D680E00F900F900F900E
:100C80000F900F90DF91CF911F910F91FF90EF90F8
:100C9000DF90CF90BF90AF909F900895CF93DF9358
:100CA000482F60E081E037DFEC01009759F01D82AA
:100CB0001C82198218821E8220E040E050E060E031
:100CC00070E057DFCE01DF91CF910895EF92FF9250
:100CD0000F931F93CF93DF938A01FC01528D338DC5
:100CE000531710F02230E1F4422F7801EC011E8DF1
:100CF00009DE1F3F79F489898823A1F0CE0141964E
:100D000081D7882389F0E114F10481F081E0F701B3
:100D100080830DC0FF24F394F10EFE8E81E007C0A6
:100D200080E005C081E003C081E001C081E0DF9187
:100D3000CF911F910F91FF90EF9008959F92AF92E6
:100D4000BF92CF92DF92EF92FF920F931F93CF93B8
:100D5000DF9300D01F921F92CDB7DEB78C015B01ED
:100D60005D834C83E12C992493946C0181E1C80E3E
:100D7000D11C0FB6F8940F92F801F28CFF2091F07D
:100D8000B501C8011EDEFA94F801F28E8085882331
:100D900029F0C801089636D78111E2DC0F900FBE0A
:100DA00081E044C08C819D81892B21F40F900FBE7E
:100DB00080E03CC0E11004C0CE0101966BD7E92C65
:100DC0000F900FBE10D50FB6F8940F92F801858DD5
:100DD0008F3F09F4158EF801868D8F3F09F4168E2A
:100DE0000F900FBEBE016C5F7F4FCE0101965DD7A5
:100DF000811113C0C8017BDD882359F06C817D818E
:100E0000C601D7D6C801F7DDB8D58111B2CFA8DCAD
:100E1000B0CFC801F0DDB1D5ACCFC801ECDDADD5A8
:100E2000C80165DD882309F4A4CF80E00F900F90FE
:100E30000F900F900F90DF91CF911F910F91FF9026
:100E4000EF90DF90CF90BF90AF909F900895BF92AA
:100E5000CF92DF92EF92FF920F931F93CF93DF9386
:100E600000D01F921F92CDB7DEB78C017D836C83BB
:100E7000B12CD12CCC24C3947C0181E1E80EF11C6F
:100E80000FB6F8940F92D8015A968C915A978823EE
:100E9000D9F081505A968C935A978D919C91892BB9
:100EA00029F40E94A30FF80195838483D801189632
:100EB0008C91882329F0C8010896A4D6811150DCB2
:100EC0000F900FBE81E070C08C819D81892B21F431
:100ED0000F900FBE80E068C0D11004C0CE01019613
:100EE000D9D6DC2C0F900FBE7ED40FB6F8940F929B
:100EF000F801858D8F3F09F4158ED8015E968C918F
:100F00005E978F3F11F45E961C920F900FBEBE014C
:100F10006C5F7F4FCE010196C8D6811121C0C801F8
:100F2000E6DC8823C9F0F80180819181892B49F49E
:100F30000FB6F8940F928481958103D7B82E0F9045
:100F40000FBE6C817D81C70134D6C80154DD15D533
:100F5000811196CF05DC94CFC8014DDD0ED590CF21
:100F6000C80149DD0AD5C801C2DC882309F488CF4D
:100F7000BB20C9F00FB6F8940F92F801818988233D
:100F800039F00688F789E02D808164E0681B01C094
:100F900060E0D80114968D919C91159784D70F909D
:100FA0000FBE80E001C080E00F900F900F900F9077
:100FB0000F90DF91CF911F910F91FF90EF90DF90F5
:100FC000CF90BF900895CF93DF93EC010FB6F894C4
:100FD0000F928D8D8F3F09F41D8E8E8D8F3F09F4FA
:100FE0001E8E0F900FBE8A8D811103C0CE014196D7
:100FF000F1D5CE0100DDDF91CF910895FC01448150
:10100000558122813381240F351F80819181B9015F
:10101000681B790BCB016417750710F0841B950BC7
:101020000895AF92BF92CF92DF92EF92FF920F930B
:101030001F93CF93DF936C015B017A01FC01C281A6
:10104000D381048115810C1B1D0B4017510708F437
:101050008A01F60184859585A801B5018C0F9D1F35
:101060000E94F0200E151F0558F4A701401B510BDC
:10107000B501600F711FF601848595850E94F020EF
:10108000CE018E0D9F1DF6012481358182179307B5
:1010900010F0821B930BF60193838283C701DF91CB
:1010A000CF911F910F91FF90EF90DF90CF90BF9065
:1010B000AF900895CF92DF92EF92FF920F931F931C
:1010C000CF93DF931F921F92CDB7DEB75A83498328
:1010D00021153105C9F06B017C01FC01868580FD7D
:1010E00008C0CA012417350708F4C9019A83898307
:1010F00011C02017310758F042E050E0BE016F5F89
:101100007F4FC7018EDF06C080E090E008C080E01E
:1011100090E005C049815A81B601C70182DF0F9076
:101120000F90DF91CF911F910F91FF90EF90DF9083
:10113000CF900895AF92BF92CF92DF92EF92FF923D
:101140000F931F93CF93DF937C015B01E90142175B
:10115000530708F4EA01209779F1F7010081118122
:10116000C480D580C01AD10ACC15DD0508F46E0103
:10117000F70164857585600F711FA601C5010E9486
:10118000F020CC16DD0658F4AE014C195D09F701CC
:1011900064857585C5018C0D9D1D0E94F0200C0F86
:1011A0001D1FF701848195810817190710F0081B8E
:1011B000190BF70111830083CE01DF91CF911F91AD
:1011C0000F91FF90EF90DF90CF90BF90AF90089578
:1011D000EF92FF921F93CF93DF93EB0111E0413029
:1011E00009F010E0209711F4C1E0D0E07C012FEF6E
:1011F000E21AF20A419659D9009781F020E1FC01E8
:1012000011922A95E9F79C01205F3F4FFC01358739
:101210002487F582E482D783C6831687DF91CF9136
:101220001F91FF90EF900895CF93DF93FC012785E6
:101230000FB6F8940F9280859185892BD1F4828521
:101240009385892BC1F48685468157816481758198
:10125000A485B58590E1EF0119929A95E9F7B587D4
:10126000A48775836483578346838687278781E0B5
:1012700003C080E001C080E00F900FBEDF91CF91EE
:101280000895FC01248135818081918142815381BF
:10129000820F931F0197841B950B8217930710F001
:1012A000821B930B0895AF92BF92CF92DF92EF9281
:1012B000FF920F931F93CF93DF93EC015B016A01C1
:1012C00079018E8580FF04C08A010E5F1F4F01C027
:1012D0008A01CE01D6DF9C01A601B501CE01EADE6E
:1012E0006C01892BB1F0CE0189DE2E813F818217FE
:1012F000930778F088859985892B59F08885998599
:1013000000E010E020E040E050E0BA012FD719865D
:101310001886C601DF91CF911F910F91FF90EF903A
:10132000DF90CF90BF90AF9008956F927F928F9291
:101330009F92AF92BF92CF92DF92EF92FF920F9364
:101340001F93CF93DF931F921F92CDB7DEB76C012F
:101350003B014A017901FC01868580FD03C0A12C77
:10136000B12C04C06894AA24A1F8B12CE114F104B2
:1013700029F10FB6F8940F92C60140DE8C01A81631
:10138000B90638F080E090E081D7C8D4F6019187A3
:1013900080870F900FBEA016B106B0F000E010E0FD
:1013A00020E030E0A90160E070E0CB01DED5F6017D
:1013B00011861086C60122DE8C0103C0C6011EDE26
:1013C0008C01A016B106B8F5A114B104C1F0F60164
:1013D000E080F1809801A501BE016F5F7F4FC601DB
:1013E000A9DE89819A810A191B098816990630F4A9
:1013F000F601F182E082812C912C01C04C01980110
:10140000A401B301C60196DE7C01892BB1F0EBD1BA
:10141000F60182859385892B61F08285938500E0B2
:1014200010E020E040E050E0BA0122D6F601138639
:101430001286A3D202C0E12CF12CC7010F900F90AD
:10144000DF91CF911F910F91FF90EF90DF90CF90A0
:10145000BF90AF909F908F907F906F900895E09194
:10146000B806F091B9068081811107C08FEF9FEF18
:101470009093900680938F060895E091B806F091BE
:10148000B9060580F681E02D0680F781E02D828186
:1014900093819093900680938F060895FF920F9307
:1014A0001F93CF93DF93EC01F62E009197061091D6
:1014B00098068091F0069091F10602967CD8CF3F75
:1014C0008FEFD80761F4FF2051F06091F006709122
:1014D000F1066E5F7F4F8AE996E01BD82DC0C00FE2
:1014E000D11FE091F006F091F106D383C283C017BB
:1014F000D10760F46091F0067091F1068091B60614
:101500009091B7066E5F7F4F25D816C06091F006A8
:101510007091F1068091B8069091B9066E5F7F4F89
:1015200019D880918F0690919006C817D90720F49A
:10153000D0939006C0938F06DF91CF911F910F91AA
:10154000FF9008954F925F926F927F928F929F9239
:10155000AF92BF92CF92DF92EF92FF920F93CF9311
:10156000DF934C016B015A012901CA010E94550207
:101570003C01892B09F4F3C08CE290E00E945502F3
:10158000EC01892B99F0788E6F8AA50165EA70E0ED
:10159000C3010E94F92081E0A81AB1088F89988DB3
:1015A000A80EB91EC114D10429F420C0C3010E94A1
:1015B0006802D5C0D6018C91898F8C918823A1F0C7
:1015C000AE01465E5F4FF6013196B8E0CB0ED11CFE
:1015D000CF012191DA012D93AD01DC018C9188239B
:1015E00019F0EC15FD05A1F718A201C0198E043001
:1015F00008F003E00E8B0BA31CA26E01B2E0CB0E31
:10160000D11CC6010E948502CE010C960E94850263
:10161000D987C88784E090E0801B91099D878C87DB
:10162000DB8BCA8B1EA21DA21FA218A619A61AA682
:101630001BA6A201B401C5010E94020399838883FD
:10164000E114F10419F0F701D183C0830FB6F894C7
:101650000F92809199068F5F809399068091F00692
:101660009091F106892BD1F5D093F106C093F00645
:1016700080919906813009F041C08CEC96E00E947F
:10168000770285ED96E00E9477028EED96E00E944B
:10169000770287EE96E00E94770283EC96E00E9444
:1016A00077028AEB96E00E9477028DEA96E00E942C
:1016B000770284EA96E00E9477028AE996E00E9427
:1016C000770283EC96E09093B9068093B8068AEB94
:1016D00096E09093B7068093B60610C08091950669
:1016E00081110CC0E091F006F091F10696898E8987
:1016F000891720F0D093F106C093F00680919106EF
:101700008F5F8093910689A38E8990919606981792
:1017100010F48093960690E09C01220F331F220F55
:10172000331F220F331F820F931FB6018453994F2B
:101730000E9489020F900FBE80919506882359F070
:10174000E091F006F091F10696898E89981728F4B9
:1017500007D881E005C081E003C081E001C08FEFC0
:10176000DF91CF910F91FF90EF90DF90CF90BF90DE
:10177000AF909F908F907F906F905F904F90089563
:10178000EF92FF920F930F2EFDE8EF2EF6E0FF2E63
:10179000F02D00E020E030E040EC50E06DE172E040
:1017A0008DEC90E0CFDE8130D1F4DCD58130B9F41E
:1017B000F8948FEF9FEF9093900680938F0681E0CF
:1017C000809395061092980610929706E091F00685
:1017D000F091F10685A10E9445020E9474030F91C9
:1017E000FF90EF90089580918C068F5F80938C0618
:1017F00008950FB6F8940F928091970690919806ED
:101800000F900FBE0895CF92DF92EF92FF920F9349
:101810001F93CF93DF9380918C06811198C0E09045
:101820009706F09098068FEFE81AF80AF09298065B
:10183000E0929706E114F104B1F48091B80690911A
:10184000B9062091B6063091B7063093B9062093B9
:10185000B8069093B7068093B606809192068F5F84
:1018600080939206FCDD80918F0690919006E81699
:10187000F90610F4D12C53C0D12CCC24C394E091A0
:10188000B806F091B9068081811107C08FEF9FEFF4
:101890009093900680938F0642C0E091B806F09135
:1018A000B9060580F681E02DC681D7818A819B81AA
:1018B000E816F90628F49093900680938F062FC0BF
:1018C0008E010E5F1F4FC8010E94DB028C899D892B
:1018D000892B21F0CE010C960E94DB028E8990911B
:1018E0009606981710F48093960690E09C01220FBC
:1018F000331F220F331F220F331F820F931FB80194
:101900008453994F0E948902E091F006F091F1060C
:101910009E898689981708F4B2CFDC2CB0CFE0916D
:10192000F006F091F106868990E0FC01EE0FFF1FB2
:10193000EE0FFF1FEE0FFF1F8E0F9F1FFC01E453E2
:10194000F94F8081823048F0DD24D39406C0809125
:1019500094068F5F80939406D12C80919306882300
:1019600011F0DD24D3948D2DDF91CF911F910F9134
:10197000FF90EF90DF90CF900895DF92EF92FF926B
:101980000F931F93CF93DF930FB6F8940F9280912C
:101990008C06815080938C0680918C0681115DC0ED
:1019A00080919906811133C05BC0D7011596ED91E6
:1019B000FC911697C681D781CE010C960E94DB025E
:1019C0008E010E5F1F4FC8010E94DB028E8990912D
:1019D0009606981710F48093960690E09C01220FCB
:1019E000331F220F331F220F331F820F931FB801A3
:1019F0008453994F0E948902E091F006F091F1061C
:101A00009E898689981768F0D09293060AC0C0E034
:101A1000D0E00F2EFDEAEF2EF6E0FF2EF02DDD24B4
:101A2000D394F70180818111C0CFCD2B09F017DD50
:101A3000C0919406CC2349F0D1E0E5DE8111D0932A
:101A40009306C150D1F71092940680919306882393
:101A500031F00E94B00381E003C080E001C080E06B
:101A60000F900FBEDF91CF911F910F91FF90EF90DC
:101A7000DF900895CF93DF93EC01892B39F0B3DE2B
:101A800060E0CE010BDD79DF811102C00E94B0035E
:101A9000DF91CF91089580918C06882321F081E019
:101AA00080939306089510929306E091F006F091CA
:101AB000F10685A10E944F02A091F006B091F106B7
:101AC000E091F006F091F1062D913C918789908D7F
:101AD0008217930758F06091F0067091F10680919B
:101AE000F0069091F106675E7F4F55D520919606DE
:101AF000822F90E0FC01EE0FFF1FEE0FFF1FEE0F95
:101B0000FF1FE80FF91FE453F94F3081311111C065
:101B10002150822F90E0FC01EE0FFF1FEE0FFF1F00
:101B2000EE0FFF1FE80FF91FE453F94F3081332305
:101B300079F3AC01440F551F440F551F440F551F37
:101B4000480F591FDA01A453B94F1196ED91FC913A
:101B500012970280F381E02D1296FC93EE93119779
:101B60004153594FE417F50729F442815381FD0190
:101B700052834183FC01EE0FFF1FEE0FFF1FEE0F9C
:101B8000FF1F8E0F9F1FFC01E453F94F0180F2816C
:101B9000E02D868197819093F1068093F006209343
:101BA0009606E091F006F091F10685A10C944502AD
:101BB0000895CF93DF93EB016091F0067091F106E9
:101BC000645F7F4F0E94AA0261E0CE0167DCDF9173
:101BD000CF9108950F931F93CF938B01C42F6091E2
:101BE000F0067091F106645F7F4F0E948902CC235A
:101BF00011F00FEF1FEF6C2FC80150DCCF911F9138
:101C00000F9108950F931F93CF93DF93DC011596E7
:101C1000ED91FC911697C681D7818E01045F1F4F0D
:101C2000C8010E94DB0280918C0681111CC00A5001
:101C30001109C8010E94DB028E89909196069817BF
:101C400010F48093960690E09C01220F331F220F20
:101C5000331F220F331F820F931FB8018453994FF4
:101C60000E94890205C0B8018DEA96E00E948902AF
:101C7000E091F006F091F1069E898689891720F49B
:101C800081E08093930601C080E0DF91CF911F91A6
:101C90000F91089520919206FC01208320919706D0
:101CA00030919806328321830895CF93DF930FB646
:101CB000F8940F922091970630919806DB014D9190
:101CC0005C914F3FBFEF5B07E9F0EC01E981FA81DE
:101CD000A0919206B881BA1719F02E173F07A0F409
:101CE0002E1B3F0B2417350740F4FB01421B530BFF
:101CF00051834083CFDF80E008C0FB011182108256
:101D000081E003C080E001C081E00F900FBEDF9151
:101D1000CF91089581E08093930608958091F00615
:101D20009091F106089580919506882331F0809175
:101D30008C06882321F080E0089581E0089582E0F8
:101D400008950F931F93CF93DF93FC01892B09F420
:101D500064C02689A091F006B091F10656968C9148
:101D6000281708F04EC084859585992364F0A091CA
:101D7000F006B091F10656963C9184E090E0831B0A
:101D800091099587848730E0C901880F991F880FD2
:101D9000991F880F991F280F391F2453394F8285A7
:101DA00093858217930721F58F01EF012296CE01CB
:101DB0000E94DB02E091F006F091F1068689F801BD
:101DC000868B90919606981710F48093960690E073
:101DD0009C01220F331F220F331F220F331F820F4C
:101DE000931FBE018453994F0E94890281E016C05F
:101DF000A091F006B091F10656968C91868B81E009
:101E00000DC0A091F006B091F10681E023A1569695
:101E10009C91291718F080E001C080E0DF91CF91FC
:101E20001F910F9108950F931F93CF93DF93FC01A0
:101E3000892B79F184A1815084A3268993A1291744
:101E400051F181112AC0EF018F010E5F1F4FC801B0
:101E50000E94DB028BA18E8B24E030E0281B31092D
:101E60003D872C8790919606981710F480939606DC
:101E700090E09C01220F331F220F331F220F331FCC
:101E8000820F931FB8018453994F0E94890281E009
:101E900005C080E003C080E001C080E0DF91CF9109
:101EA0001F910F9108950F931F93CF93DF93FC0120
:101EB000892B09F443C093A1961708F4962F8689BD
:101EC0008917E1F124A12130C9F5968B2485358548
:101ED000332334F024E030E0291B3109358724878F
:101EE00090E09C01220F331F220F331F220F331F5C
:101EF000820F931F8453994F228533852817390702
:101F0000E9F4EF018F010E5F1F4FC8010E94DB0251
:101F10008E8990919606981710F48093960690E01B
:101F20009C01220F331F220F331F220F331F820FFA
:101F3000931FB8018453994F0E948902DF91CF917A
:101F40001F910F9108958091F0069091F106892BD1
:101F500039F0E091F006F091F10684A18F5F84A33F
:101F60008091F0069091F10608954F925F926F92E2
:101F70007F928F929F92AF92BF92EF92FF920F93B8
:101F80001F9349015A010FB6F8940F92E091F006A1
:101F9000F091F10623A5223021F1E091F006F091B5
:101FA000F10647A050A461A472A4DC01CB01809586
:101FB0009095A095B09584219521A621B72187A35E
:101FC00090A7A1A7B2A7E091F006F091F10681E0F9
:101FD00083A7E114F10429F061E0C7015FDA0E94F0
:101FE000B0030F900FBE0FB6F8940F9201151105B4
:101FF00069F0E091F006F091F10687A190A5A1A506
:10200000B2A5F80180839183A283B383E091F006A7
:10201000F091F10683A58230B1F4E091F006F091E1
:10202000F10687A190A5A1A5B2A580949094A09453
:10203000B09488229922AA22BB2287A290A6A1A6A8
:10204000B2A681E001C080E0E091F006F091F106D7
:1020500013A60F900FBE1F910F91FF90EF90BF90AE
:10206000AF909F908F907F906F905F904F9008956A
:102070000F931F93CF93DF93FC010FB6F8940F9249
:102080000115110549F087A190A5A1A5B2A5E80108
:1020900088839983AA83BB8383A592E093A7223088
:1020A000B1F018F4213031F02AC02330E9F02430A7
:1020B00001F125C007A110A521A532A5402B512B68
:1020C000622B732B47A350A761A772A718C047A123
:1020D00050A561A572A54F5F5F4F6F4F7F4F47A31C
:1020E00050A761A772A70BC047A350A761A772A70B
:1020F00006C0823079F147A350A761A772A781304B
:1021000059F5EF018F010E5F1F4FC8010E94DB02DE
:102110008E8990919606981710F48093960690E019
:102120009C01220F331F220F331F220F331F820FF8
:10213000931FB8018453994F0E948902E091F006E1
:10214000F091F1069E898689891740F40E94B003B8
:1021500081E005C080E003C081E001C081E00F9014
:102160000FBEDF91CF911F910F910895EF92FF92D3
:102170000F931F93CF93DF93FC010115110549F0D5
:1021800087A190A5A1A5B2A5E80188839983AA8318
:10219000BB8383A592E093A72230B1F018F42130DD
:1021A00031F02BC02330E9F0243001F126C007A123
:1021B00010A521A532A5402B512B622B732B47A3D1
:1021C00050A761A772A719C047A150A561A572A524
:1021D0004F5F5F4F6F4F7F4F47A350A761A772A715
:1021E0000CC047A350A761A772A707C0823009F4AB
:1021F00041C047A350A761A772A78130E9F5EF015D
:1022000080918C0681111DC08F010E5F1F4FC80188
:102210000E94DB028E8990919606981710F48093A5
:10222000960690E09C01220F331F220F331F220FCE
:10223000331F820F931FB8018453994F0E94890264
:1022400007C0BF01645F7F4F8DEA96E00E9489025C
:10225000E091F006F091F1069E898689891770F465
:10226000E114F10419F081E0F701808381E08093AB
:10227000930605C080E003C081E001C081E0DF91EA
:10228000CF911F910F91FF90EF900895009721F447
:102290008091F0069091F1060FB6F8940F92FC0130
:1022A00023A5223019F413A681E001C080E00F902D
:1022B0000FBE0895FC017383628391878087461760
:1022C000570790F0421B530B848595854817590793
:1022D000E0F4BF016E5F7F4F8091F8069091F906A0
:1022E0000E94AA0280E008954217530718F462176B
:1022F000730768F4BF016E5F7F4F8091FA0690917B
:10230000FB060E94AA0280E0089581E0089581E022
:1023100008950FB6F8940F928091F6069091F70603
:10232000892BE9F485E097E00E9477028CEF96E034
:102330000E94770285E097E09093FB068093FA066F
:102340008CEF96E09093F9068093F80640E065E004
:102350008AE00E948B059093F7068093F6060F9013
:102360000FBE0895EF92FF920F93D3DF8091F60690
:102370009091F706892B89F00F2EF4EFEF2EF6E0FF
:10238000FF2EF02D03E020E030E045E550E062E272
:1023900072E083E091E0D6D801C080E00F91FF9019
:1023A000EF9008958F929F92AF92BF92CF92DF925B
:1023B000FF920F931F93CF93DF934C015B01F42E99
:1023C000690184E190E00E945502EC01892B99F0AB
:1023D0001B8A9FDF99828882BD86AC86DF86CE8687
:1023E000198B088BCE0102960E948502FF2019F0FE
:1023F0008B8984608B8BCE01DF91CF911F910F91E0
:10240000FF90DF90CF90BF90AF909F908F900895F6
:102410000F931F93CF93DF9300D01F921F92CDB7DE
:10242000DEB7E091F606F091F706309769F1D90131
:1024300069835B834A839D838C836630E4F473DC19
:10244000823061F420E0A801BE016F5F7F4F809170
:10245000F6069091F7060E94B90517C020E040E00B
:1024600050E0BE016F5F7F4F8091F6069091F706B6
:102470000E94B9050AC020E0AD01BE016F5F7F4F29
:10248000CF010E94660601C080E00F900F900F9070
:102490000F900F90DF91CF911F910F910895AF9200
:1024A000BF92CF92DF92EF92FF920F931F93CF9341
:1024B000DF936C019ED97C018091F2069091F30626
:1024C000E816F90608F047C02FC00580F681E02D18
:1024D000A080B180C681D7818E010E5F1F4FC801D9
:1024E0000E94DB02E889F989CE0119958B8982FF68
:1024F0001BC08C859D858A0D9B1DA816B90660F4AE
:102500009B838A83D987C887B8018091FA06909106
:10251000FB060E94AA0208C000E010E020E030E0C4
:10252000A50160E0CE0174DFE091FA06F091FB06B0
:1025300080818111CACF8091F8069091F90690931D
:10254000FB068093FA06F093F906E093F80681E023
:10255000F601808302C0F6011082F092F306E09249
:10256000F206C701DF91CF911F910F91FF90EF907D
:10257000DF90CF90BF90AF9008950895279A2F9A3B
:102580002FEF80E792E0215080409040E1F700C0BB
:1025900000001F9AF5CF279A2F9A2FEF87EA91E62E
:1025A000215080409040E1F700C000001F9AF5CF15
:1025B00081B1816881B90E943F0280E00E94BD1C08
:1025C000E4D098D10E9439020FD022D112D900E074
:1025D00010E020E030E0AC0161E08091790890915A
:1025E0007A0816DFCDD8FFCFDF92EF92FF920F93DC
:1025F0001F93CF93DF9383E088D2C5E0D0E00F2E06
:10260000FAE2EF2EF2E0FF2EF02D0AE412E080E075
:1026100033D3D82E0BD59F938F93DF93CF93FF9215
:10262000EF920E942A210F900F900F900F900F9021
:102630000F9088E0D816B1F01F930F930E942A21C3
:1026400088E391E017DA21970F900F9001F7C8E522
:10265000D2E0DF93CF930E942A210E94B0030F9013
:102660000F90F7CFDF91CF911F910F91FF90EF90D7
:10267000DF900895CF93DF9381E083D282E090E0F2
:10268000F9D980E07ED286E990E0F4D98ED2882311
:1026900021F08CE592E00E943D2186E990E0EAD9A4
:1026A000CDD3882321F083E792E00E943D218EE084
:1026B00097E08DD2882329F084E892E00E943D21A2
:1026C0000EC08EE097E09F938F9380E992E09F93F6
:1026D0008F930E942A210F900F900F900F904EE041
:1026E00057E06EE972E08FEB92E07BD4882321F013
:1026F00080ED92E00E943D2180E0BED2883029F436
:1027000080EE92E00E943D2113C0873089F4C5E03D
:10271000D0E080E0B1D2873039F48FEE92E00E94B1
:102720003D212197B1F704C08BEF92E00E943D213B
:10273000DF91CF91089589E093E09F938F930E945A
:102740002A218FE290E096D9EFE1F7E080E38283DF
:1027500089E3838382E0848383EA858384E08683BC
:1027600087E58783BF0180E0AAD260D49F938F93CF
:1027700083E193E09F938F930E942A210F900F9003
:102780000F900F900F900F90089580917508909181
:102790007608892B39F481E00E944E0690937608E2
:1027A000809375088091810890918208892B39F473
:1027B00081E00E944E069093820880938108809168
:1027C000830890918408892B39F481E00E944E0699
:1027D00090938408809383080895C8E2D3E0DF9340
:1027E000CF930E942A218EE390E044D96FEF7FEFD0
:1027F00080918308909184080E9427070F900F9082
:10280000813069F78AEF90E035D934DF94DFE7CF84
:10281000EF92FF920F930F2EF7E7EF2EF8E0FF2EC7
:10282000F02D02E021E030E040EC50E062E373E0A4
:102830008DEE93E10E94A20A0F91FF90EF90089510
:1028400082E593E09F938F930E942A2120E040E04D
:1028500050E060E070E080917508909176080E94E9
:10286000B9050F900F90813041F088E693E09F9377
:102870008F930E942A210F900F90089586E793E08E
:102880009F938F930E942A2120E040E050E060E077
:1028900070E080918108909182080E94B9050F90A4
:1028A0000F90813041F088E693E09F938F930E94D0
:1028B0002A210F900F90089580E993E09F938F93C2
:1028C0000E942A2120E040E050E060E070E080912A
:1028D0008308909184080E94B9050F900F90813071
:1028E00041F088E693E09F938F930E942A210F90F6
:1028F0000F9008950F931F9300E214E120E030E061
:1029000041E06DE770E088EA93E04CDD9093800849
:1029100080937F080EE314E121E030E041E06BEBAF
:1029200070E082EB93E03EDD90938608809385080B
:102930000CE514E122E030E041E06BEB70E081EC6B
:1029400093E030DD90937A08809379081F910F917E
:1029500008950F931F93CF93DF931F921F92CDB7CC
:10296000DEB78C0119822DC0E0919907EC3250F44A
:1029700081E08E0F80939907F0E0E753F84F8A814A
:10298000808302C0109299078A818A30D1F44091E5
:10299000990750E0FA01E953F84F1082415051096C
:1029A0009E012F5F3F4F69EC77E080919A079091ED
:1029B0009B070E945309898181110E94B0031092E4
:1029C0009907BE016E5F7F4FC80145D5882361F22C
:1029D0000F900F90DF91CF911F910F9108950F935A
:1029E0001F93CF93DF938C01EB0180919A07909115
:1029F0009B070E941409B80185E397E00E940B2110
:102A0000209779F0E5E3F7E001900020E9F73197AE
:102A100080E290E091838083BE0185E397E00E948D
:102A20000021E5E3F7E0DF010D900020E9F71197C1
:102A30008DE09AE011969C938E9312961C920190D1
:102A40000020E9F73197E553F740AE2F85E397E093
:102A5000AC016A2F80919C0790919D07ACD48111A5
:102A60000FC028E235E04DE250E063E278E080916B
:102A70009A0790919B070E94950983E298E002C013
:102A800080E090E0DF91CF911F910F910895AF9278
:102A9000BF92CF92DF92EF92FF920F931F93CF934B
:102AA000DF936C01FC0101900020E9F731977F0171
:102AB000E81AF90A09E516E0C0E0D0E0F801608103
:102AC0007181A701C6010E941221892B49F4FE01E0
:102AD000EE0FFF1FEC0FFD1FE85AF94F808107C072
:102AE00021960D5F1F4FC131D10541F780E1DF9184
:102AF000CF911F910F91FF90EF90DF90CF90BF90FB
:102B0000AF9008956CDFC3CF08958F929F92AF92DC
:102B1000CF92EF920F93CF93C82F41E060E070E027
:102B200088EC90E00E94E80890939B0780939A07B6
:102B30000F2EF9EA8F2EF4E19F2EF02D6894AA242F
:102B4000A6F86894CC24C6F8E12C00E023E040E02D
:102B500051EE60E070E08C2F73D390939D078093CB
:102B60009C07E0918F08F091900864E087E091E085
:102B70001995CF910F91EF90CF90AF909F908F903C
:102B80000895882349F0E0919908F0919A0864E04B
:102B900088E091E019950895E0918F08F0919008F0
:102BA00064E088E091E01995089560E070E08BEEB4
:102BB00093E015DFE3E2F8E001900020E9F73197B8
:102BC000E352F84081E0759708F080E00895CF93D4
:102BD000DF93EC0160E070E08CEF93E000DFE3E274
:102BE000F8E001900020E9F7E453F84039F463E29B
:102BF00078E0CE010E940B2180E002C0188281E0C3
:102C0000DF91CF910895FC0101900020E9F79F0129
:102C1000215131092817390729F4BC018AE294E0CF
:102C200071CF089589E00895FC0101900020E9F733
:102C30009F01215131092817390729F4BC0189E383
:102C400094E060CF089589E00895FC010190002090
:102C5000E9F79F01215231092817390729F4BC01EE
:102C600088E494E04FCF089589E0089560E070E033
:102C700087E894E047CF0895E82FF0E0EE0FFF1FBC
:102C8000EC5AF94F6081718180E994E03BDF81115A
:102C900012C028E235E04DE250E063E278E0809136
:102CA0009A0790919B070E949509882321F083E25F
:102CB00098E0EDCE089583E298E0E9CE0895CF93B1
:102CC000DF931F92CDB7DEB7DB0111969C91119770
:102CD000953108F087C0992381F160E070E0272FDB
:102CE00030E0462F50E0FD01E40FF51F92819295F0
:102CF0009F709A3010F0995C01C0905DF901EC541E
:102D0000F84F90832F5F3F4FFD01E40FF51F928135
:102D10009F70492F50E04A30510514F0995C01C072
:102D2000905DF901EC54F84F90837E5F6F5F1196D0
:102D30009C911197691798F201C070E0E72FF0E0BD
:102D4000EC54F84F10824C91811103C089E994E052
:102D500002C08BE994E024EB37E03F932F931F925E
:102D60004F939F938F938FE994E09F938F9386EF78
:102D700097E09F938F930E946D2160E070E086EF53
:102D800097E0C0DE0FB6F894DEBF0FBECDBF8E3029
:102D900051F587E08983BE016F5F7F4F83E298E042
:102DA00051D180939E07E981F0E0ED5DF74FDF019F
:102DB0000D900020E9F71197AE1BBF0BAA2381F0FD
:102DC000BB271197CD010AF40196959587958093BD
:102DD0009F07AF014F5F5F4F64E180EA97E05ED1EC
:102DE0008EE001C084E10F90DF91CF910895813092
:102DF00019F06FEA74E002C068E875E083EB94E0D4
:102E000081CE08958830C0F41F928F938BEC94E0AC
:102E10009F938F9386EF97E09F938F930E946D21EE
:102E200060E070E086EF97E06DDE0F900F900F90FE
:102E30000F900F900F90089589E008952F923F9280
:102E40004F925F926F927F928F929F92AF92BF92BA
:102E5000CF92DF92EF92FF920F931F93CF93DF9366
:102E600068EF74E084E095E0BADD11DE8111A6C060
:102E700060E175E086E195E0B2DD09DE81119EC07A
:102E8000C0E0D0E00F2EF0E68F2EF5EE9F2EFEEA8A
:102E9000AF2EF3E3BF2EF02D0F2EF9E2EF2EF5E06B
:102EA000FF2EF02D06EF17E00F2EF2E4CF2EF5E007
:102EB000DF2EF02D0F2EF9E56F2EF5E07F2EF02D91
:102EC0000F2EF3E74F2EF5E05F2EF02DDF93CF931B
:102ED000FF92EF921F930F930E946D2160E070E0CC
:102EE000C8017DDDD4DD0F900F900F900F900F90F3
:102EF0000F90811163C0C33008F44DC0BF92AF92F0
:102F00009F928F92DF93CF93DF92CF921F930F9375
:102F10000E946D2160E070E0C80161DDB8DD2DB771
:102F20003EB7265F3F4F0FB6F8943EBF0FBE2DBF92
:102F3000811144C0DF93CF937F926F921F930F93C1
:102F40000E946D2160E070E0C80149DDA0DD0F90B6
:102F50000F900F900F900F900F9081112FC0DF9363
:102F6000CF935F924F921F930F930E946D2160E069
:102F700070E0C80134DD8BDD0F900F900F900F9043
:102F80000F900F9081111AC030E4830E3DE0931E24
:102F900033E0A31EB11C2196C830D10509F096CFAD
:102FA00060E070E08BE895E01ADD71DD811106C00C
:102FB00060E070E08CE995E012DD69DDDF91CF9192
:102FC0001F910F91FF90EF90DF90CF90BF90AF9047
:102FD0009F908F907F906F905F904F903F902F9039
:102FE0000895EF92FF920F931F93CF93DF93EC011D
:102FF0008B017A0181E0FBDE811111C0CE0114DE6C
:1030000081110DC0C80121DE811109C0C701FBDD9E
:10301000811105C085E0F6DE811101C027DEDF9158
:10302000CF911F910F91FF90EF90089590E0FC01D8
:10303000EE0FFF1F8E0F9F1FFC01E85AF94F818191
:1030400092810895DC01009729F1FB012081FC01A8
:1030500001900020E9F73197E81BF90B822F90E0EF
:10306000E817F907C8F080E008C0880F382F330F41
:10307000330F830F8053890F2F5FFD01E20FF11D86
:10308000908130ED390F3A3010F49111EECFFB0101
:103090002083089580E0089580E008950F931F93A2
:1030A000CF93DF93DC01EA012097E1F1FA0101906F
:1030B0000020E9F73197E41BF50B329710F532C089
:1030C0008D01040F151F30E0AE01420F531FFA01AE
:1030D0009081913428F09753592F5295507F03C017
:1030E000592F5295507F2C0F3D1FF901918191343A
:1030F00010F0975301C09053950FF80190838F5FA4
:1031000001C080E0282F220F482F50E0FE010190DF
:103110000020E9F73197EC1BFD0B4E175F0710F409
:103120008613CECFDF91CF911F910F91089580919B
:103130005308860F8093530890915608913079F088
:1031400028F09230A9F0933019F108956F3F09F0FB
:1031500048C01092530881E080935608089566385D
:1031600009F03FC01092520882E0809356080895FB
:10317000E091520881E08E0F80935208F0E0E05B0E
:10318000F74F6083823069F583E080935608089595
:103190009091520821E0290F20935208963009F5AA
:1031A00081110EC0E0E5F8E0808190E0982F88273B
:1031B0002181820F911D909358088093570804C075
:1031C000109258081092570810925608E09154082F
:1031D000F0915508309729F0809157089091580840
:1031E000199508958F929F92AF92CF92EF920F937D
:1031F000CF93DF93EB010F2EF7E98F2EF8E19F2E8F
:10320000F02D6894AA24A4F86894CC24C4F8E12C86
:1032100000E023E040E855E260E070E011D09093D8
:103220005A0880935908D0935508C0935408DF91E9
:10323000CF910F91EF90CF90AF909F908F90089586
:103240002F923F924F925F926F927F928F929F92B6
:10325000AF92CF92EF92FF920F931F93CF93DF9392
:10326000CDB7DEB7F82E2A013B0188E090E093D677
:103270008C018F2D90E0880F991FFC01E55AF74FC4
:1032800011830083FC01EA5FFD4F80819181D801A9
:103290008D939C936C2D70E084E090E062D61C01CD
:1032A00061E070E086E090E05CD67C014C2DB101DD
:1032B0004AD4F801F582E4826A2D70E084E090E05F
:1032C00050D61C0161E070E086E090E04AD67C01B7
:1032D0004A2DB10138D4D8011396FC92EE92129780
:1032E00017969C928E921697FFB6F894ED91FC91EA
:1032F000119736978081826080838D909C90C30166
:10330000B20136D520E030E040E051E4BFD59B016A
:10331000AC0160E074E284E79BE496D420E030E006
:1033200040E85FE32CD4F8D4F40132976083D801ED
:10333000ED91FC911197359788E98083ED91FC918F
:10334000349786E08083FFBEC801DF91CF911F9143
:103350000F91FF90EF90CF90AF909F908F907F90C4
:103360006F905F904F903F902F900895CF93DF9391
:10337000EC01EA81FB81938182812581981B922354
:1033800084819817A1F0938126952923A081B1818A
:10339000A20FB11D6C939F5F258192239383E881D7
:1033A000F981359780818062808380E001C082E06E
:1033B000DF91CF910895EF92FF920F931F93CF93D8
:1033C000DF937C01DC011296ED91FC9113979381C0
:1033D0008281981B858198238481891B861798F1A7
:1033E000662341F1842F952FDC016150462F50E078
:1033F0004F5F5F4F480F591FE701EA81FB819381BF
:1034000082812581981B92238481981779F08C9171
:10341000938126952923608171818B01020F111DF3
:10342000E80188839F5F8581982393831196A41771
:10343000B50711F7D701ED91FC9135978081806236
:10344000808380E001C082E0DF91CF911F910F91D6
:10345000FF90EF900895DC011496ED91FC91159783
:1034600093818281981789F092818581869589233D
:10347000A081B181A80FB11D8C91DB018C939F5F5E
:1034800085819823928380E0089583E008951F92B8
:103490000F920FB60F9211240BB60F922F933F93FA
:1034A0004F935F936F937F938F939F93AF93BF934C
:1034B000CF93DF93EF93FF93A0915B08B0915C08EB
:1034C000109711F16091C6001496ED91FC9115973B
:1034D000938182812581981B92238481981761F0C2
:1034E000838126952823C081D181C20FD11D688395
:1034F0008F5F9581892383831696ED91FC911797B1
:10350000309711F0CD011995FF91EF91DF91CF9197
:10351000BF91AF919F918F917F916F915F914F91EB
:103520003F912F910F900BBE0F900FBE0F901F90E9
:1035300018951F920F920FB60F9211240BB60F928F
:103540002F938F939F93AF93BF93EF93FF93E0914C
:103550005B08F0915C083097B9F00280F381E02DB0
:10356000938182819817B1F092818581282F2695C9
:103570002923A081B181A20FB11D2C919F5F8923C6
:1035800082832093C6000BC0E1ECF0E080818F7D48
:10359000808305C0E1ECF0E080818F7D8083FF9126
:1035A000EF91BF91AF919F918F912F910F900BBE93
:1035B0000F900FBE0F901F9018951F920F920FB68D
:1035C0000F9211240BB60F922F933F934F935F935B
:1035D0006F937F938F939F93AF93BF93CF93DF931B
:1035E000EF93FF93A0915D08B0915E08109711F1E1
:1035F0006091CE001496ED91FC9115979381828194
:103600002581981B92238481981761F083812695E8
:103610002823C081D181C20FD11D68838F5F95811E
:10362000892383831696ED91FC911797309711F0BB
:10363000CD011995FF91EF91DF91CF91BF91AF919E
:103640009F918F917F916F915F914F913F912F91BA
:103650000F900BBE0F900FBE0F901F9018951F92EA
:103660000F920FB60F9211240BB60F922F938F93D8
:103670009F93AF93BF93EF93FF93E0915D08F09119
:103680005E083097B9F00280F381E02D938182814A
:103690009817B1F092818581282F26952923A08142
:1036A000B181A20FB11D2C919F5F8923828320934A
:1036B000CE000BC0E9ECF0E080818F7D808305C0F7
:1036C000E9ECF0E080818F7D8083FF91EF91BF91E5
:1036D000AF919F918F912F910F900BBE0F900FBEC6
:1036E0000F901F9018951F920F920FB60F921124F2
:1036F0000BB60F922F933F934F935F936F937F93EC
:103700008F939F93AF93BF93CF93DF93EF93FF93E9
:10371000A0915F08B0916008109711F16091D600F8
:103720001496ED91FC911597938182812581981BC8
:1037300092238481981761F0838126952823C08184
:10374000D181C20FD11D68838F5F958189238383C7
:103750001696ED91FC911797309711F0CD011995C0
:10376000FF91EF91DF91CF91BF91AF919F918F9199
:103770007F916F915F914F913F912F910F900BBE71
:103780000F900FBE0F901F9018951F920F920FB6BB
:103790000F9211240BB60F922F938F939F93AF9399
:1037A000BF93EF93FF93E0915F08F091600830972B
:1037B000B9F00280F381E02D938182819817B1F0F6
:1037C00092818581282F26952923A081B181A20F7E
:1037D000B11D2C919F5F892382832093D6000BC05B
:1037E000E1EDF0E080818F7D808305C0E1EDF0E0C8
:1037F00080818F7D8083FF91EF91BF91AF919F91E9
:103800008F912F910F900BBE0F900FBE0F901F90B6
:1038100018951F920F920FB60F9211240BB60F92AC
:103820002F933F934F935F936F937F938F939F93C8
:10383000AF93BF93CF93DF93EF93FF93A091610872
:10384000B0916208109711F1609136011496ED91D4
:10385000FC911597938182812581981B9223848105
:10386000981761F0838126952823C081D181C20FEA
:10387000D11D68838F5F9581892383831696ED918F
:10388000FC911797309711F0CD011995FF91EF91A9
:10389000DF91CF91BF91AF919F918F917F916F9168
:1038A0005F914F913F912F910F900BBE0F900FBEE4
:1038B0000F901F9018951F920F920FB60F92112420
:1038C0000BB60F922F938F939F93AF93BF93EF936A
:1038D000FF93E0916108F09162083097B9F002809F
:1038E000F381E02D938182819817B1F092818581D7
:1038F000282F26952923A081B181A20FB11D2C91DB
:103900009F5F89238283209336010BC0E1E3F1E0BE
:1039100080818F7D808305C0E1E3F1E080818F7D30
:103920008083FF91EF91BF91AF919F918F912F91E4
:103930000F900BBE0F900FBE0F901F901895CF9356
:10394000DF931F92CDB7DEB7BE016F5F7F4F8091CF
:103950006308909164087FDD8111F6CF898190E042
:103960000F90DF91CF910895682F80916308909117
:103970006408FCDC80E090E008958F929F92AF9203
:10398000CF92EF920F93812C912C6894AA24A7F8E0
:103990006894CC24C7F8E12C00E023E040E051EE2D
:1039A00060E070E04DDC9093640880936308E1EA86
:1039B000F8E08EE092E091838083938382830F917D
:1039C000EF90CF90AF909F908F9008951F920F929D
:1039D0000FB60F9211240BB60F922F933F934F9374
:1039E0005F936F937F938F939F93AF93BF93EF9367
:1039F000FF93E091B9008E2F90E0FC013897E135FC
:103A0000F10508F075C08827E458FF4F8F4FA1C219
:103A100010926508E091650880916808E81770F4D5
:103A200081E08E0F80936508F0E0E759F74F8081C1
:103A30008093BB0085E88093BC0072C084E98093CA
:103A4000BC008091660890916708DC011296ED91A8
:103A5000FC911397309709F463C020E040E050E0F8
:103A600064E019955DC0E091650881E08E0F809358
:103A700065088091BB00F0E0E759F74F80838091A3
:103A8000B900803411F4109265082091650830E087
:103A90008091680890E001972817390724F485EC95
:103AA0008093BC003DC085E88093BC0039C0809104
:103AB000BB00E0916508F0E0E759F74F808384E9A7
:103AC0008093BC008091660890916708DC01129693
:103AD000ED91FC911397309719F12091680849E610
:103AE00058E065E019951CC085EA8093BC0018C0B9
:103AF0008091B90080931C0284E08093BC00809187
:103B0000660890916708DC011296ED91FC9113977D
:103B1000309731F020E040E050E060911C021995B0
:103B2000FF91EF91BF91AF919F918F917F916F9195
:103B30005F914F913F912F910F900BBE0F900FBE51
:103B40000F901F901895FC01411101C045D3842F9F
:103B500090E09C012150310982239323892B09F0A5
:103B60003BD3413808F038D3128213824483440F88
:103B7000415045837183608380E090E00895505800
:103B8000BB27AA270ED048C139D130F03ED120F052
:103B900031F49F3F11F41EF42EC10EF4E095E7FBC3
:103BA00024C1E92F4AD180F3BA176207730784074B
:103BB000950718F071F49EF562C10EF4E0950B2E96
:103BC000BA2FA02D0B01B90190010C01CA01A0016F
:103BD0001124FF27591B99F0593F50F4503E68F1CA
:103BE0001A16F040A22F232F342F4427585FF3CF0B
:103BF000469537952795A795F0405395C9F77EF4DC
:103C00001F16BA0B620B730B840BBAF09150A1F024
:103C1000FF0FBB1F661F771F881FC2F70EC0BA0FAA
:103C2000621F731F841F48F4879577956795B79532
:103C3000F7959E3F08F0B3CF9395880F08F099272A
:103C4000EE0F9795879508950CD0E6C0DED040F032
:103C5000D5D030F021F45F3F19F0C7C0511110C129
:103C6000CAC0EBD098F39923C9F35523B1F3951B40
:103C7000550BBB27AA2762177307840738F09F5F8D
:103C80005F4F220F331F441FAA1FA9F333D00E2EFC
:103C90003AF0E0E830D091505040E695001CCAF769
:103CA00029D0FE2F27D0660F771F881FBB1F26172E
:103CB00037074807AB07B0E809F0BB0B802DBF0101
:103CC000FF2793585F4F2AF09E3F510568F08DC043
:103CD000D7C05F3FECF3983EDCF386957795679508
:103CE000B795F7959F5FC9F7880F911D96958795B2
:103CF00097F90895E1E0660F771F881FBB1F6217D1
:103D000073078407BA0720F0621B730B840BBA0B8E
:103D1000EE1F88F7E095089598D088F09F5790F0AF
:103D2000B92F9927B751A0F0D1F0660F771F881FE0
:103D3000991F1AF0BA95C9F712C0B13081F09FD01F
:103D4000B1E008959CC0672F782F8827B85F39F0BD
:103D5000B93FCCF3869577956795B395D9F73EF43F
:103D600090958095709561957F4F8F4F9F4F0895E7
:103D7000E89409C097FB3EF4909580957095619505
:103D80007F4F8F4F9F4F9923A9F0F92F96E9BB27BB
:103D90009395F695879577956795B795F111F8CF37
:103DA000FAF4BB0F11F460FF1BC06F5F7F4F8F4FA2
:103DB0009F4F16C0882311F096E911C0772321F098
:103DC0009EE8872F762F05C0662371F096E8862F30
:103DD00070E060E02AF09A95660F771F881FDAF787
:103DE000880F9695879597F9089597F99F6780E8CA
:103DF00070E060E008959FEF80EC089500240A943D
:103E00001616170618060906089500240A941216B5
:103E10001306140605060895092E0394000C11F4E8
:103E2000882352F0BB0F40F4BF2B11F460FF04C095
:103E30006F5F7F4F8F4F9F4F089557FD9058440FEE
:103E4000551F59F05F3F71F04795880F97FB991FF9
:103E500061F09F3F79F087950895121613061406B6
:103E6000551FF2CF4695F1DF08C016161706180643
:103E7000991FF1CF86957105610508940895E8941E
:103E8000BB2766277727CB0197F908950BD0C4CFBE
:103E9000B5DF28F0BADF18F0952309F0A6CFABCF35
:103EA0001124EECFCADFA0F3959FD1F3950F50E018
:103EB000551F629FF001729FBB27F00DB11D639FDC
:103EC000AA27F00DB11DAA1F649F6627B00DA11D82
:103ED000661F829F2227B00DA11D621F739FB00D28
:103EE000A11D621F839FA00D611D221F749F332798
:103EF000A00D611D231F849F600D211D822F762F31
:103F00006A2F11249F5750408AF0E1F088234AF02D
:103F1000EE0FFF1FBB1F661F771F881F9150504079
:103F2000A9F79E3F510570F060CFAACF5F3FECF339
:103F3000983EDCF3869577956795B795F795E79565
:103F40009F5FC1F7FE2B880F911D9695879597F976
:103F50000895EE0FFF1F881F8BBF0790F691E02D8D
:103F600019940F931F93CF93DF93869F8001879FB0
:103F7000100D969F100D1124C8010DD0EC01009773
:103F800021F0A80160E070E034D1CE01DF91CF9143
:103F90001F910F9108950F931F93CF93DF9382305A
:103FA000910510F482E090E0E0919F08F091A00864
:103FB00020E030E0A0E0B0E0309719F1408151817D
:103FC0000281138148175907C8F08417950769F4CF
:103FD000109731F012960C93129713961C9327C0EA
:103FE00000939F081093A00822C02115310519F0F5
:103FF0004217530718F49A01BD01EF01DF01F801E0
:10400000DBCF21153105F9F0281B390B24303105A0
:1040100080F48A819B816115710521F0FB019383F6
:10402000828304C09093A00880939F08FE0132967B
:1040300044C0FE01E20FF31F819391932250310996
:10404000398328833AC020919D0830919E08232B04
:1040500041F4209102023091030230939E08209394
:104060009D0820910002309101022115310541F493
:104070002DB73EB74091040250910502241B350B29
:10408000E0919D08F0919E08E217F307A0F42E1B23
:104090003F0B2817390778F0AC014E5F5F4F2417AC
:1040A000350748F04E0F5F1F50939E0840939D08C0
:1040B0008193919302C0E0E0F0E0CF01DF91CF91D6
:1040C0001F910F910895CF93DF93009709F481C05A
:1040D000FC01329713821282A0919F08B091A00830
:1040E000109781F420813181820F931F20919D08C8
:1040F00030919E082817390751F5F0939E08E093F8
:104100009D0867C0ED0120E030E0CE17DF0740F4E6
:104110004A815B819E0141155105F1F0EA01F5CF1D
:10412000D383C28340815181840F951FC817D9075B
:1041300059F488819981840F951F02969183808319
:104140008A819B81938382832115310529F4F09321
:10415000A008E0939F083DC0E901FB83EA834991F1
:104160005991C40FD51FEC17FD0761F4808191812F
:10417000840F951F0296E901998388838281938138
:104180009B838A83E0E0F0E012968D919C911397D7
:10419000009719F0FD01DC01F7CF8D919C911197EB
:1041A0009D012E5F3F4F820F931F20919D083091FC
:1041B0009E082817390769F4309729F41092A0084F
:1041C00010929F0802C013821282B0939E08A0939F
:1041D0009D08DF91CF91089581E090E0F89458C355
:1041E000FB01DC0102C001900D9241505040D8F714
:1041F0000895DC0101C06D9341505040E0F70895EF
:10420000FB01DC010D900020E9F7119701900D9260
:104210000020E1F70895FB01DC0101900D920020E0
:10422000E1F70895FB01DC014150504088F08D9189
:1042300081341CF08B350CF4805E619161341CF08C
:104240006B350CF4605E861B611171F3990B089558
:10425000881BFCCFCF93DF93CDB7DEB7AE014A5FAB
:104260005F4FFA0161917191AF018091A308909124
:10427000A40861D0DF91CF9108950F931F93CF933E
:10428000DF93E091A308F091A408238121FF1BC0D4
:104290008C01D0E0C0E0F80181918F016091A3080A
:1042A0007091A408DB011896ED91FC911997882371
:1042B00031F01995892B79F3DFEFCFEFECCF8AE05E
:1042C0001995892B19F08FEF9FEF02C08D2F9C2F2E
:1042D000DF91CF911F910F9108950F931F93CF936B
:1042E000DF93CDB7DEB72E970FB6F894DEBF0FBEC3
:1042F000CDBF0E891F8986E08C831A8309838FEFD7
:104300009FE79E838D83AE01465E5F4F688D798DFA
:10431000CE01019610D0EF81F885E00FF11F1082D9
:104320002E960FB6F894DEBF0FBECDBFDF91CF91B2
:104330001F910F9108952F923F924F925F926F922B
:104340007F928F929F92AF92BF92CF92DF92EF9225
:10435000FF920F931F93CF93DF93CDB7DEB72B97C9
:104360000FB6F894DEBF0FBECDBF6C017B018A0192
:10437000FC0117821682838181FFBFC1CE010196A5
:104380003C01F6019381F70193FD859193FF8191A3
:104390007F01882309F4ADC1853239F493FD8591FD
:1043A00093FF81917F01853221F4B60190E0D6D14F
:1043B000E8CF912C212C312CFFE1F315D8F08B3272
:1043C00079F038F4803279F08332A1F4232D206122
:1043D0001DC08D3261F0803369F4232D216016C039
:1043E000832D8260382EE32DE4603E2E2AC0F32D0B
:1043F000F8601DC037FC2DC020ED280F2A3040F09A
:104400008E32B9F436FC75C1232D2064322E19C0CA
:1044100036FE06C08AE0989E200D1124922E11C00F
:10442000EAE02E9E200D1124222EF32DF0623F2E65
:1044300008C08C3621F4832D8068382E02C088365F
:1044400041F4F70193FD859193FF81917F018111E3
:10445000B3CF982F9F7D9554933028F40C5F1F4F56
:104460009FE399830DC0833631F0833771F0833534
:1044700009F055C020C0F801808189830E5F1F4F6D
:1044800088248394912C530112C02801F2E04F0E2E
:10449000511CF801A080B18036FE03C0692D70E088
:1044A00002C06FEF7FEFC5014ED14C018201F32DA9
:1044B000FF773F2E15C0280122E0420E511CF80163
:1044C000A080B18036FE03C0692D70E002C06FEF9E
:1044D0007FEFC5012DD14C01F32DF0683F2E8201F5
:1044E00033FC19C0822D90E088169906A0F4B6011D
:1044F00080E290E033D12A94F5CFF50137FC859125
:1045000037FE81915F01B60190E028D121102A94F5
:1045100021E0821A91088114910479F7E1C0843670
:1045200011F0893639F5F80137FE07C060817181D5
:10453000828193810C5F1F4F08C060817181072EBB
:10454000000C880B990B0E5F1F4FF32DFF763F2E4B
:1045500097FF09C090958095709561957F4F8F4F1B
:104560009F4FF0683F2E2AE030E0A30133D1882E20
:10457000861844C0853731F4232D2F7EB22E2AE0D1
:1045800030E025C0932D997FB92E8F36C1F018F4F5
:10459000883579F0AEC0803719F0883721F0A9C08E
:1045A000E92FE061BE2EB4FE0DC0FB2DF460BF2EDE
:1045B00009C034FE0AC0292F2660B22E06C028E0AA
:1045C00030E005C020E130E002C020E132E0F80137
:1045D000B7FE07C060817181828193810C5F1F4F9C
:1045E00006C06081718180E090E00E5F1F4FA301E3
:1045F000F1D0882E8618FB2DFF773F2E36FE0DC09A
:10460000232D2E7FA22E891458F434FE0BC032FCC9
:1046100009C0832D8E7EA82E05C0B82CA32C03C004
:10462000B82C01C0B92CA4FE0FC0FE01E80DF11D8D
:104630008081803321F49A2D997EA92E09C0A2FE93
:1046400006C0B394B39404C08A2D867809F0B3945D
:10465000A3FC10C0A0FE06C0B21480F4280C922C5B
:104660009B180DC0B21458F4B60180E290E076D0E9
:10467000B394F8CFB21418F42B1802C0982C212C44
:10468000A4FE0FC0B60180E390E068D0A2FE16C081
:10469000A1FC03C088E790E002C088E590E0B60185
:1046A0000CC08A2D867851F0A1FE02C08BE201C0B9
:1046B00080E2A7FC8DE2B60190E050D0891430F47E
:1046C000B60180E390E04AD09A94F8CF8A94F3013F
:1046D000E80DF11D8081B60190E040D08110F6CF49
:1046E000222009F44ECEB60180E290E037D02A9421
:1046F000F7CFF6018681978102C08FEF9FEF2B964F
:104700000FB6F894DEBF0FBECDBFDF91CF911F91E2
:104710000F91FF90EF90DF90CF90BF90AF909F9060
:104720008F907F906F905F904F903F902F90089563
:10473000FC010590615070400110D8F7809590956C
:104740008E0F9F1F0895FC01615070400190011071
:10475000D8F7809590958E0F9F1F08950F931F9304
:10476000CF93DF93FB01238121FD03C08FEF9FEFE8
:104770002CC022FF16C04681578124813581421703
:10478000530744F4A081B1819D012F5F3F4F3183D6
:1047900020838C93268137812F5F3F4F3783268379
:1047A00014C08B01EC01FB010084F185E02D19950B
:1047B000892BE1F6D80116968D919C911797019659
:1047C00017969C938E931697CE01DF91CF911F91F0
:1047D0000F910895FA01AA27283051F1203181F173
:1047E000E8946F936E7F6E5F7F4F8F4F9F4FAF4FF9
:1047F000B1E03ED0B4E03CD0670F781F891F9A1F0C
:10480000A11D680F791F8A1F911DA11D6A0F711DBF
:10481000811D911DA11D20D009F468943F912AE0CB
:10482000269F11243019305D3193DEF6CF010895B3
:10483000462F4770405D4193B3E00FD0C9F7F6CFE4
:10484000462F4F70405D4A3318F0495D31FD4052AC
:10485000419302D0A9F7EACFB4E0A6959795879542
:1048600077956795BA95C9F7009761057105089521
:104870009B01AC010A2E06945795479537952795CD
:10488000BA95C9F7620F731F841F951FA01D089565
:04489000F894FFCFCA
:104894000000A7082000C600CE00D60036010000A4
:1048A400000300000000B41C9F1C0000F849444CA5
:1048B4004500546D7220537663004A6F696E204E32
:1048C4006574776F726B2054726965734C65667496
:1048D4003A2564203E25733C0A0077616974696E49
:1048E400672035207365630077746600464143543E
:1048F4004F52595F52455345545F4641494C5552B6
:10490400452000434F4E4649475552455F42524564
:10491400414B2000485755495F4552524F522000A1
:1049240025732C204445565F455549200A006439B7
:104934003464333939663437663565333535616205
:10494400626332663633616439313831653100650A
:104954003534353963326166326439303631660054
:104964004944454E544954595F425245414B2000F5
:104974004C4F52415F414343455054454420004C01
:104984004F52415F44454E494544004C4F52415FAC
:104994004143434550544544006C6F726120736534
:1049A4006E640055706C6F6164204D65737361674C
:1049B40065203E25733C0A007461736B206C6F7232
:1049C40061004C6F52612073656E64206461746190
:1049D40000434F322076616C7565203D20256420AC
:1049E4000A00756E626C6F636B20636F32207365AF
:1049F4006D6170686F726500776520646F6E7420F6
:104A0400686176652000756E626C6F636B207465F7
:104A14006D7068756D2073656D6170686F72650087
:104A2400756E626C6F636B206C6F72612073656D61
:104A34006170686F72652000434F322054696D6560
:104A4400720054656D702048756D2054696D6572EF
:104A5400004C6F52612054696D6572007379732044
:104A64007265736574006D616320706175736500B0
:104A74006D616320726573756D650073797320666B
:104A84006163746F7279524553455400737973208E
:104A9400676574206877657569006D616320676573
:104AA400742067776E62006D616320736574206C97
:104AB400696E6B63686B202564006D6163207365A8
:104AC4007420646576657569006D6163207365742F
:104AD40020617070657569006D6163207365742071
:104AE4006170706B6579006D616320736574206E0D
:104AF400776B736B6579006D6163207365742061F6
:104B04007070736B6579006D6163207365742064E4
:104B1400657661646472006D61632073617665001B
:104B24006D6163206A6F696E00756E636E66006DF9
:104B34006163207478202573202564202573006F19
:104B44006666006D61632073657420616472006D34
:104B540061632067657420616472006D6163207312
:104B64006574206472202564006D61632067657438
:104B7400206472006D6163207365742072786465CB
:104B84006C6179312025640033203836393532356B
:104B9400303030006D6163207365742072783200A8
:104BA4003120302036006D616320736574206368A2
:104BB40020647272616E6765006D61632073657451
:104BC40020636820646379636C6520256420373929
:104BD40039006D61632073657420636820667265B3
:104BE4007120256420256C75006D616320736574E4
:104BF40020636820647272616E67652025642030CA
:104C04002035006D616320736574206368207374BC
:104C140061747573202564206F6E006D6163207369
:104C24006574207077726964782031006D61632047
:104C340073657420726574782037006F7461610045
:104C4400616270004B4559535F4E4F545F494E4962
:104C540054004E4F5F465245455F43480053494C0C
:104C6400454E540042555359004D41435F50415500
:104C740053454400494E56414C49445F50415241CA
:104C84004D004E4F545F4A4F494E454400494E56DD
:104C9400414C49445F444154415F4C454E004652A7
:104CA400414D455F434F554E5445525F4552525F07
:104CB40052454A4F494E5F4E4545444544004D4197
:104CC400435F54585F4F4B004D41435F52585F4F11
:104CD4004B004D41435F4552524F5200554E4B4E8F
:104CE4004F574E00AB05B005003F0601460602B41F
:104CF4000503C20504CD0505D40506D90507F4024C
:104D040008000309E4050AF2050BFD050C0E060D67
:0C4D14002E060E38060F4206104C06005A
:00000001FF
