:10000000B2C10000D1C10000CFC10000CDC10000CD
:10001000CBC10000C9C10000C7C10000C5C10000BC
:10002000C3C10000C1C10000BFC10000BDC10000CC
:1000300011C40000B9C10000B7C10000B5C1000083
:10004000B3C10000B1C10000AFC10000ADC10000EC
:10005000ABC10000A9C10000A7C10000A5C10000FC
:10006000A3C100000C94C10E0C94130F9DC100009D
:100070009BC1000099C1000097C1000095C100001C
:1000800093C1000091C100008FC100008DC100002C
:100090000C94570F0C94A90F87C1000085C1000074
:1000A00083C1000081C100007FC100007DC100004C
:1000B0007BC1000079C1000077C1000075C100005C
:1000C00073C1000071C100006FC100000C94ED0FFE
:1000D0000C943F1069C100000C9483100C94D5104F
:1000E00063C1000043014301430172017A018901A8
:1000F0004301430172017A010AE912E00F2EF2EC8A
:10010000EF2EF2E0FF2EF02D80919902882311F15D
:100110000FB6F8940F92D8011596ED91FC911697B1
:10012000C681D781CE010296FDD180918F02815088
:1001300080938F02809199028150809399020F9051
:100140000FBE8F89988D7DD1CE017BD18091990290
:100150008111DECFF7018081823008F0B8D20E9491
:10016000910CD2CFCF93DF9300D000D0CDB7DEB7C4
:10017000CE0101964C0144244394E12CF12C512CE6
:10018000C82ED92CE091F002F091F10280818823F1
:1001900009F4D6C00580F681E02DA080B180B8D7E3
:1001A000C4010E94230C8C018981811148C00A1569
:1001B0001B05B0F10E944F09E091F002F091F102AD
:1001C0000580F681E02D66807780C3010296AAD172
:1001D000D30153968C91539782FF17C01C966D9153
:1001E0007C911D976A0D7B1D9501A801C3010E949A
:1001F000680B882369F00E2D1F2D2E2D3F2DA50194
:10020000652DC3010E94DF0B03C08E7FF301838B3A
:10021000D3015096ED91FC915197C301199584C07B
:10022000452DB501601B710B8091EC029091ED02A0
:10023000A2D50E944F09811177C049D275C00E9492
:100240004F0972C0898188230CF46EC0AC80BD80D8
:10025000F50182859385892B19F0C501029662D13B
:10026000CE0106960E94230CAC01E9810E2E000CF3
:10027000FF0BEA30F10508F057C08827EE58FF4F12
:100280008F4F0C946613D50153968C9153978160D0
:1002900053968C9353972A813B811C966D917C9148
:1002A0001D97620F731FC5010E94680B8823E1F13F
:1002B000D5015096ED91FC915197C5011995F50125
:1002C000838982FF31C04A815B8184859585480F8F
:1002D000591F0E2D1F2D2E2D3F2D652DC5010E945E
:1002E000DF0B22C0D50153968C9153978E7F539686
:1002F0008C931AC0F50183898160838B6A817B812D
:1003000075876487640F751F9A01C5010E94680B89
:100310000BC0D50153968C9181FD03C0C50191D0CE
:1003200003C08E7FF501838B4E2D5F2D6C2D7D2DAF
:100330008091EC029091ED0295D4811183CF22CF70
:10034000E7D6C4010E94230C8C018981811177CFEB
:10035000E091EE02F091EF028081442D8111452D54
:10036000AE2CBF2C5ECF11241FBECFEFD1E2DEBF7B
:10037000CDBF00E00CBF12E0A0E0B2E0EEE5FFE28E
:1003800000E00BBF02C007900D92A238B107D9F769
:1003900023E0A2E8B2E001C01D92A732B207E1F764
:1003A0000E94AC0C0C94AD172BCECF93DF931F9211
:1003B0001F92CDB7DEB7CE01019690931A038093BA
:1003C00019030F900F90DF91CF91089565ED71E0C3
:1003D00083E00C943D0D08950E946B0D882321F05D
:1003E00089E492E00C94D0140895809119039091BF
:1003F0001A030895E7E0F1E080818F60808308951B
:10040000E8E0F1E09081907F908390818F70982B4D
:1004100090830895E8E0F1E08081807F80830895F3
:10042000CF93DF93EC0174D6CE010E948813EC01C8
:1004300036D7209711F40E94920CCE01DF91CF9114
:100440000895CF93DF93009731F0EC0161D6CE0190
:100450000E94201424D7DF91CF910895FC010396C8
:10046000928381832FEF3FEF3483238396838583A9
:100470009087878310820895FC0111861086089565
:10048000CF93DF939C01FB01DC011196CD91DC91B0
:100490001297D383C2838C819D81958384838C81C1
:1004A0009D81DC0113967C936E9312977D836C8300
:1004B00031872087F90180818F5F8083DF91CF9121
:1004C0000895CF93DF93EB01488159814F3F2FEF80
:1004D000520721F4FC01A781B0850DC0DC01139601
:1004E00001C0DF011296ED91FC91139720813181BB
:1004F00042175307B0F71296ED91FC911397FB83C7
:10050000EA83D583C483BD83AC831396DC93CE93F7
:10051000129799878887FC0120812F5F2083DF91C4
:10052000CF910895CF93DF93FC01A085B185C2815F
:10053000D381848195819D838C83C481D58182817F
:1005400093819B838A8311968D919C911297E817D2
:10055000F90731F48481958112969C938E931197BB
:10056000118610868C9181508C938C91DF91CF9164
:10057000089531E1FC013083319722E220833197E5
:10058000A3E3A08331976083319770833197108202
:1005900031971082319760E86083319710823197EC
:1005A000108231971082319762E06083319763E067
:1005B0006083319764E06083319765E060833197B1
:1005C00066E06083319767E06083319768E060831D
:1005D000319769E06083319760E1608331973083C0
:1005E000319732E13083319733E13083319734E111
:1005F0003083319735E13083319736E1308331975D
:1006000037E13083319738E13083319739E13083F6
:10061000319730E23083319731E230833197208354
:10062000319723E22083319740833197508331976C
:1006300026E22083319727E22083319728E2208326
:10064000319729E22083319720E32083319721E3FA
:10065000208389970895A89590EC88E10FB6F894C7
:10066000A895809360000FBE90936000A091E60271
:10067000B091E702CD91CDBFDD91DEBFFF91EF914B
:10068000DF91CF91BF91AF919F918F917F916F91AA
:100690005F914F913F912F911F910F91FF90EF909C
:1006A000DF90CF90BF90AF909F908F907F906F9092
:1006B0005F904F903F902F901F900F900CBE0F9027
:1006C0000BBE0F900FBE0F90089581E008950F921A
:1006D0000FB6F8940F920BB60F920CB60F921F92B2
:1006E00011242F923F924F925F926F927F928F923E
:1006F0009F92AF92BF92CF92DF92EF92FF920F93B1
:100700001F932F933F934F935F936F937F938F9399
:100710009F93AF93BF93CF93DF93EF93FF93A091FA
:10072000E602B091E7020DB60D920EB60D9240D6DC
:10073000A091E602B091E702CD91CDBFDD91DEBF81
:10074000FF91EF91DF91CF91BF91AF919F918F91E9
:100750007F916F915F914F913F912F911F910F91D9
:10076000FF90EF90DF90CF90BF90AF909F908F90D1
:100770007F906F905F904F903F902F901F900F90C1
:100780000CBE0F900BBE0F900FBE0F9008950F92EE
:100790000FB6F8940F920BB60F920CB60F921F92F1
:1007A00011242F923F924F925F926F927F928F927D
:1007B0009F92AF92BF92CF92DF92EF92FF920F93F0
:1007C0001F932F933F934F935F936F937F938F93D9
:1007D0009F93AF93BF93CF93DF93EF93FF93A0913A
:1007E000E602B091E7020DB60D920EB60D9213BE61
:1007F0009FD48111DDD5A091E602B091E702CD91A1
:10080000CDBFDD91DEBFFF91EF91DF91CF91BF9121
:10081000AF919F918F917F916F915F914F913F9198
:100820002F911F910F91FF90EF90DF90CF90BF908D
:10083000AF909F908F907F906F905F904F903F9080
:100840002F901F900F900CBE0F900BBE0F900FBEFD
:100850000F9008959CDF18950FB6F8940F92FC0145
:10086000928D0F900FBE81E0911180E008950F935B
:100870001F93CF93DF93EC01042F1A8D4C8D411100
:100880000BC088819981892B09F041C08C819D81A1
:10089000DFD61D821C8242C0011117C050E08A8140
:1008A0009B810E94AD142C8D8A819B81820F911DAA
:1008B0009B838A832C813D818217930750F1888125
:1008C00099819B838A8380E029C050E08E819F813B
:1008D0000E94AD148C8D90E09195819591092E81A7
:1008E0003F81280F391F3F832E8348815981241768
:1008F000350730F42C813D81820F931F9F838E83B7
:10090000023049F4112349F0115080E007C080E023
:1009100005C080E003C080E001C080E01F5F1A8F47
:10092000DF91CF911F910F910895FC01448D4423D5
:10093000A9F050E026813781240F351F37832683A5
:10094000848195812817390720F0808191819783D0
:100950008683CB01668177810C94AD140895EF9264
:10096000FF920F931F93CF938C010FB6F8940F92C1
:10097000FC01C68D1C169CF48189811106C00FC034
:10098000F8018189811105C00AC07801F1E1EF0EFB
:10099000F11CC701C3D5811149D6C15089F78FEF2A
:1009A000F801868F0F900FBE0FB6F8940F92C58D89
:1009B0001C169CF48085811106C00FC0F80180854B
:1009C000811105C00AC07801F8E0EF0EF11CC701E3
:1009D000A5D581112BD6C15089F78FEFF801858FEE
:1009E0000F900FBECF911F910F91FF90EF90089540
:1009F000CF93DF93EC010FB6F8940F92E881F98161
:100A00008B8D2C8D90E030E0829FA001839F500D54
:100A1000929F500D11244E0F5F1F5D834C831A8EE1
:100A2000FB83EA830197829FA001839F500D929FD1
:100A3000500D1124CF01840F951F9F838E838FEF5C
:100A40008D8F8E8F61110AC08885882369F0CE0151
:100A5000089664D5882341F03ADE06C0CE01089698
:100A6000FDDCCE014196FADC0F900FBE81E0DF91F4
:100A7000CF910895FF920F931F93CF93DF93082F89
:100A8000162FF42E6623B9F0869FC001112481969B
:100A9000C7DCEC01009741F414C00B8F1C8F61E0A0
:100AA000CE01A6DFF8A20DC0819699838883F5CF89
:100AB000D983C883F2CF81E290E0B2DCEC01892BCC
:100AC000B9F7CE01DF91CF911F910F91FF9008955B
:100AD0009F92AF92BF92CF92DF92EF92FF920F93CD
:100AE0001F93CF93DF9300D01F921F92CDB7DEB735
:100AF0008C016B015D834C83A22EB12C99249394BD
:100B00007C0188E0E80EF11C0FB6F8940F92F80112
:100B1000928D838D981718F0F2E0AF1215C04A2D10
:100B2000B601C801A4DEF8019189992339F0C80102
:100B30004196F4D4882321F0CADD02C08111C7DDBB
:100B40000F900FBE81E045C08C819D81892B21F4DF
:100B50000F900FBE80E03DC0B11004C0CE010196E1
:100B600025D5B92C0F900FBED3D20FB6F8940F92A3
:100B7000F801858D8F3F09F4158EF801868D8F3F22
:100B800009F4168E0F900FBEBE016C5F7F4FCE0131
:100B9000019617D5811119C00FB6F8940F92F8017C
:100BA000928D838D0F900FBE98130BC06C817D8149
:100BB000C7018BD4C801D3DE72D38111A5CF87DDE5
:100BC000A3CFC801CCDE6BD39FCFC801C8DE67D3EB
:100BD00080E00F900F900F900F900F90DF91CF91CA
:100BE0001F910F91FF90EF90DF90CF90BF90AF904B
:100BF0009F900895EF92FF920F931F93CF93DF93EF
:100C00008A01FC01528D338D531710F02230E1F42C
:100C1000422F7801EC011E8D2ADE1F3F79F489896D
:100C20008823A1F0CE01419679D4882389F0E1147C
:100C3000F10481F081E0F70180830DC0FF24F3947B
:100C4000F10EFE8E81E007C080E005C081E003C0A8
:100C500081E001C081E0DF91CF911F910F91FF9062
:100C6000EF9008959F92AF92BF92CF92DF92EF9252
:100C7000FF920F931F93CF93DF9300D01F921F9289
:100C8000CDB7DEB78C015B015D834C83E12C9924E9
:100C900093946C0181E1C80ED11C0FB6F8940F92A9
:100CA000F801F28CFF2091F0B501C8013EDEFA9404
:100CB000F801F28E8085882329F0C80108962ED489
:100CC000811105DD0F900FBE81E044C08C819D81B4
:100CD000892B21F40F900FBE80E03CC0E11004C0CE
:100CE000CE01019663D4E92C0F900FBE11D20FB63E
:100CF000F8940F92F801858D8F3F09F4158EF80155
:100D0000868D8F3F09F4168E0F900FBEBE016C5F6B
:100D10007F4FCE01019655D4811113C0C8019CDDCF
:100D2000882359F06C817D81C601CFD3C80117DEBD
:100D3000B6D28111B2CFCBDCB0CFC80110DEAFD2BA
:100D4000ACCFC8010CDEABD2C80186DD882309F424
:100D5000A4CF80E00F900F900F900F900F90DF9135
:100D6000CF911F910F91FF90EF90DF90CF90BF90A8
:100D7000AF909F900895CF93DF93EC010FB6F89456
:100D80000F928D8D8F3F09F41D8E8E8D8F3F09F44C
:100D90001E8E0F900FBE8A8D811103C0CE01419629
:100DA000A5D3CE01DCDDDF91CF910895E091AE02B5
:100DB000F091AF028081811107C08FEF9FEF909378
:100DC0008602809385020895E091AE02F091AF0211
:100DD0000580F681E02D0680F781E02D82819381E8
:100DE00090938602809385020895FF920F931F933C
:100DF000CF93DF93EC01F62E00918D0210918E02BD
:100E00008091E6029091E70202968CDBCF3F8FEF54
:100E1000D80761F4FF2051F06091E6027091E7027B
:100E20006E5F7F4F80E992E02BDB2DC0C00FD11F9A
:100E3000E091E602F091E702D383C283C017D107A5
:100E400060F46091E6027091E7028091AC029091AB
:100E5000AD026E5F7F4F35DB16C06091E602709188
:100E6000E7028091AE029091AF026E5F7F4F29DB67
:100E70008091850290918602C817D90720F4D093FB
:100E80008602C0938502DF91CF911F910F91FF9051
:100E900008954F925F926F927F928F929F92AF923E
:100EA000BF92CF92DF92EF92FF920F93CF93DF9397
:100EB0004C016B015A012901CA01B2DA3C01892BAC
:100EC00009F4E4C08CE290E0ABDAEC01892B99F0F4
:100ED000788E6F8AA50165EA70E0C3010E94B6149E
:100EE00081E0A81AB1088F89988DA80EB91EC11487
:100EF000D10421F41FC0C301A4DAC8C0D6018C916B
:100F0000898F8C918823A1F0AE01465E5F4FF60178
:100F10003196B8E0CB0ED11CCF012191DA012D938F
:100F2000AD01DC018C91882319F0EC15FD05A1F7CA
:100F300018A201C0198E043008F003E00E8B0BA339
:100F40001CA26E01B2E0CB0ED11CC60195DACE0117
:100F50000C9692DAD987C88784E090E0801B9109CB
:100F60009D878C87DB8BCA8B1EA21DA21FA218A691
:100F700019A61AA61BA6A201B401C501FADA998323
:100F80008883E114F10419F0F701D183C0830FB60F
:100F9000F8940F9280918F028F5F80938F028091DF
:100FA000E6029091E702892B89F5D093E702C0937E
:100FB000E60280918F02813009F038C082EC92E025
:100FC0004DDA8BEC92E04ADA84ED92E047DA8DED6F
:100FD00092E044DA89EB92E041DA80EB92E03EDA8B
:100FE00083EA92E03BDA8AE992E038DA80E992E03B
:100FF00035DA89EB92E09093AF028093AE0280EBFA
:1010000092E09093AD028093AC0210C080918B026D
:1010100081110CC0E091E602F091E70296898E8979
:10102000891720F0D093E702C093E60280918702EF
:101030008F5F8093870289A38E8990918C02981785
:1010400010F480938C0290E09C01220F331F220F3A
:10105000331F220F331F820F931FB6018E539D4FF4
:101060000FDA0F900FBE80918B02882359F0E09128
:10107000E602F091E70296898E89981728F427DB1B
:1010800081E005C081E003C081E001C08FEFDF9106
:10109000CF910F91FF90EF90DF90CF90BF90AF90E6
:1010A0009F908F907F906F905F904F900895EF92F8
:1010B000FF920F930F2EF3E8EF2EF2E0FF2EF02DAC
:1010C00000E020E030E040EC50E06AE572E08CE7C0
:1010D00090E0DFDE8130C1F452D38130A9F4F8947E
:1010E0008FEF9FEF909386028093850281E080933B
:1010F0008B0210928E0210928D02E091E602F09126
:10110000E70285A17DD9A7DA0F91FF90EF900895AE
:10111000809182028F5F8093820208950FB6F894C7
:101120000F9280918D0290918E020F900FBE0895C4
:10113000CF92DF92EF92FF920F931F93CF93DF93A3
:1011400080918202811195C0E0908D02F0908E0214
:101150008FEFE81AF80AF0928E02E0928D02E11405
:10116000F104B1F48091AE029091AF022091AC02F3
:101170003091AD023093AF022093AE029093AD0256
:101180008093AC02809188028F5F809388020EDE8C
:101190008091850290918602E816F90610F4D12C10
:1011A00050C0D12CCC24C394E091AE02F091AF0298
:1011B0008081811107C08FEF9FEF9093860280930B
:1011C00085023FC0E091AE02F091AF020580F6814A
:1011D000E02DC681D7818A819B81E816F90628F423
:1011E00090938602809385022CC08E010E5F1F4F64
:1011F000C80198D98C899D89892B19F0CE010C964C
:1012000091D98E8990918C02981710F480938C025A
:1012100090E09C01220F331F220F331F220F331F38
:10122000820F931FB8018E539D4F2AD9E091E60299
:10123000F091E7029E898689981708F4B5CFDC2CD7
:10124000B3CFE091E602F091E702868990E0FC01DD
:10125000EE0FFF1FEE0FFF1FEE0FFF1F8E0F9F1FE2
:10126000FC01EE53FD4F8081823048F0DD24D394A1
:1012700006C080918A028F5F80938A02D12C809170
:101280008902882311F0DD24D3948D2DDF91CF9135
:101290001F910F91FF90EF90DF90CF900895DF9214
:1012A000EF92FF920F931F93CF93DF930FB6F894B3
:1012B0000F928091820281508093820280918202FB
:1012C000811159C080918F02811130C057C0D70160
:1012D0001596ED91FC911697C681D781CE010C969B
:1012E00021D98E010E5F1F4FC8011CD98E899091A4
:1012F0008C02981710F480938C0290E09C01220FCE
:10130000331F220F331F220F331F820F931FB80189
:101310008E539D4FB5D8E091E602F091E7029E8989
:101320008689981768F0D09289020AC0C0E0D0E0A0
:101330000F2EF3EAEF2EF2E0FF2EF02DDD24D394F2
:10134000F70180818111C3CFCD2B09F02FDDC09132
:101350008A02CC2349F0D1E0EBDE8111D0938902DF
:10136000C150D1F710928A0280918902882329F016
:10137000AED981E003C080E001C080E00F900FBED5
:10138000DF91CF911F910F91FF90EF90DF90089523
:10139000CF93DF93EC01892B39F0BADE60E0CE0108
:1013A00024DD7DDF811101C092D9DF91CF910895B5
:1013B00080918202882321F081E080938902089540
:1013C00010928902E091E602F091E70285A122D80D
:1013D000A091E602B091E702E091E602F091E70207
:1013E0002D913C918789908D8217930758F06091D9
:1013F000E6027091E7028091E6029091E702675E53
:101400007F4F9DD220918C02822F90E0FC01EE0F45
:10141000FF1FEE0FFF1FEE0FFF1FE80FF91FEE5328
:10142000FD4F3081311111C02150822F90E0FC011D
:10143000EE0FFF1FEE0FFF1FEE0FFF1FE80FF91F4C
:10144000EE53FD4F3081332379F3AC01440F551F28
:10145000440F551F440F551F480F591FDA01AE5353
:10146000BD4F1196ED91FC9112970280F381E02D12
:101470001296FC93EE9311974B535D4FE417F507CB
:1014800029F442815381FD0152834183FC01EE0F17
:10149000FF1FEE0FFF1FEE0FFF1F8E0F9F1FFC01A0
:1014A000EE53FD4F0180F281E02D8681978190936C
:1014B000E7028093E60220938C02E091E602F0912D
:1014C000E70285A10C9400020895CF93DF93EB010E
:1014D0006091E6027091E702645F7F4F0E946102B3
:1014E00061E0CE0182DCDF91CF9108950F931F93CD
:1014F000CF938B01C42F6091E6027091E702645F85
:101500007F4F0E944002CC2311F00FEF1FEF6C2F92
:10151000C8016BDCCF911F910F9108950F931F931A
:10152000CF93DF93DC011596ED91FC911697C68160
:10153000D7818E01045F1F4FC8010E9492028091E3
:10154000820281111CC00A501109C8010E94920236
:101550008E8990918C02981710F480938C0290E001
:101560009C01220F331F220F331F220F331F820FC4
:10157000931FB8018E539D4F0E94400205C0B801D1
:1015800083EA92E00E944002E091E602F091E702D5
:101590009E898689891720F481E08093890201C0A1
:1015A00080E0DF91CF911F910F91089520918802E3
:1015B000FC01208320918D0230918E0232832183A1
:1015C0000895CF93DF930FB6F8940F9220918D0278
:1015D00030918E02DB014D915C914F3FBFEF5B0775
:1015E000E9F0EC01E981FA81A0918802B881BA178B
:1015F00019F02E173F07A0F42E1B3F0B24173507B9
:1016000040F4FB01421B530B51834083CFDF80E04A
:1016100008C0FB011182108281E003C080E001C09C
:1016200081E00F900FBEDF91CF91089581E080930C
:101630008902089580918B02882331F08091820283
:10164000882321F080E0089581E0089582E00895E4
:101650000F931F93CF93DF93FC01892B79F184A122
:10166000815084A3268993A1291751F181112AC0A1
:10167000EF018F010E5F1F4FC8010E9492028BA1E4
:101680008E8B24E030E0281B31093D872C87909118
:101690008C02981710F480938C0290E09C01220F2A
:1016A000331F220F331F220F331F820F931FB801E6
:1016B0008E539D4F0E94400281E005C080E003C030
:1016C00080E001C080E0DF91CF911F910F910895DC
:1016D000FC0173836283918780874617570790F0D8
:1016E000421B530B8485958548175907E0F4BF01C9
:1016F0006E5F7F4F8091EE029091EF020E94610237
:1017000080E008954217530718F46217730768F4CE
:10171000BF016E5F7F4F8091F0029091F1020E94B5
:10172000610280E0089581E0089581E008950FB698
:10173000F8940F928091EC029091ED02892BE1F4E4
:101740008BEF92E00E942E0282EF92E00E942E0226
:101750008BEF92E09093F1028093F00282EF92E09F
:101760009093EF028093EE0240E065E08AE082D938
:101770009093ED028093EC020F900FBE0895EF92CC
:10178000FF920F93D4DF8091EC029091ED02892BB0
:1017900089F00F2EFAEEEF2EF2E0FF2EF02D03E08F
:1017A00020E030E045E550E06FE572E082EB90E04C
:1017B00070DB01C080E00F91FF90EF9008950F93D0
:1017C0001F93CF93DF9300D01F921F92CDB7DEB748
:1017D000E091EC02F091ED02309751F1D90169836B
:1017E0005B834A839D838C836630D4F423DF82300D
:1017F00059F420E0A801BE016F5F7F4F8091EC0299
:101800009091ED0265D915C020E040E050E0BE01A6
:101810006F5F7F4F8091EC029091ED0259D909C022
:1018200020E0AD01BE016F5F7F4FCF01E3D901C062
:1018300080E00F900F900F900F900F90DF91CF915D
:101840001F910F910895AF92BF92CF92DF92EF92C6
:10185000FF920F931F93CF93DF936C015FDC7C01AA
:101860008091E8029091E902E816F90608F047C075
:101870002FC00580F681E02DA080B180C681D78180
:101880008E010E5F1F4FC8010E949202E889F989FC
:10189000CE0119958B8982FF1BC08C859D858A0D91
:1018A0009B1DA816B90660F49B838A83D987C887D5
:1018B000B8018091F0029091F1020E94610208C08B
:1018C00000E010E020E030E0A50160E0CE0177DF2D
:1018D000E091F002F091F10280818111CACF8091F4
:1018E000EE029091EF029093F1028093F002F09358
:1018F000EF02E093EE0281E0F601808302C0F60180
:101900001082F092E902E092E802C701DF91CF91E4
:101910001F910F91FF90EF90DF90CF90BF90AF900D
:1019200008950895279A2F9A2FEF80E792E021508B
:1019300080409040E1F700C000001F9AF5CF279A41
:101940002F9A2FEF87EA91E6215080409040E1F7EF
:1019500000C000001F9AF5CF81B1816881B90E9453
:10196000FA0180E084D40E94E60115D0A0DBFFCF0D
:10197000C7E6D2E00E94EC010E94F5019F938F938D
:10198000DF93CF93FAD78FE290E002DD0F900F90B4
:101990000F900F90EFCFEF92FF920F930F2EFBE17E
:1019A000EF2EF3E0FF2EF02D02E021E030E040ECDE
:1019B00050E068E772E088EB9CE06BDA0F91FF90F3
:1019C000EF90089580910703860F8093070390910D
:1019D0000A03913079F028F09230A9F0933019F190
:1019E00008956F3F09F048C01092070381E080938B
:1019F0000A030895663809F03FC01092060382E09A
:101A000080930A030895E091060381E08E0F80938E
:101A10000603F0E0EC5FFC4F6083823069F583E001
:101A200080930A0308959091060321E0290F2093E3
:101A30000603963009F581110EC0E4E0F3E08081E1
:101A400090E0982F88272181820F911D90930C039D
:101A500080930B0304C010920C0310920B0310929E
:101A60000A03E0910803F0910903309729F080916F
:101A70000B0390910C03199508958F929F92AF924A
:101A8000CF92EF920F93CF93DF93EB010F2EF2EEF5
:101A90008F2EFCE09F2EF02D6894AA24A4F8689461
:101AA000CC24C4F8E12C00E023E040E855E260E0FB
:101AB00070E040D090930E0380930D03D093090300
:101AC000C0930803DF91CF910F91EF90CF90AF902B
:101AD0009F908F900895CF93DF93CDB7DEB729976E
:101AE0000FB6F894DEBF0FBECDBF89E0ECE1F2E0A7
:101AF0009E012F5F3F4FD90101900D928A95E1F72A
:101B000010920C0310920B0380910D0390910E0321
:101B1000009731F0422F532F69E0C7D080E001C019
:101B200082E029960FB6F894DEBF0FBECDBFDF91DD
:101B3000CF9108952F923F924F925F926F927F9232
:101B40008F929F92AF92CF92EF92FF920F931F933B
:101B5000CF93DF93CDB7DEB7F82E2A013B0188E0A3
:101B600090E0D6D58C018F2D90E0880F991FFC0155
:101B7000E15FFC4F11830083FC01EA5FFD4F808130
:101B80009181D8018D939C936C2D70E084E090E05E
:101B9000A5D51C0161E070E086E090E09FD57C0156
:101BA0004C2DB1018DD3F801F582E4826A2D70E0ED
:101BB00084E090E093D51C0161E070E086E090E065
:101BC0008DD57C014A2DB1017BD3D8011396FC92AF
:101BD000EE92129717969C928E921697FFB6F894F3
:101BE000ED91FC91119736978081826080838D9072
:101BF0009C90C301B20179D420E030E040E051E490
:101C000002D59B01AC0160E074E284E79BE4D9D388
:101C100020E030E040E85FE36FD33BD4F40132973B
:101C20006083D801ED91FC911197359788E9808305
:101C3000ED91FC91349786E08083FFBEC801DF916F
:101C4000CF911F910F91FF90EF90CF90AF909F9009
:101C50008F907F906F905F904F903F902F9008955E
:101C6000CF93DF93EC01EA81FB819381828125810F
:101C7000981B922384819817A1F09381269529239C
:101C8000A081B181A20FB11D6C939F5F258192232A
:101C90009383E881F981359780818062808380E039
:101CA00001C082E0DF91CF910895EF92FF920F93F0
:101CB0001F93CF93DF937C01DC011296ED91FC9191
:101CC000139793818281981B858198238481891B36
:101CD000861798F1662341F1842F952FDC0161501E
:101CE000462F50E04F5F5F4F480F591FE701EA81D1
:101CF000FB81938182812581981B9223848198178F
:101D000079F08C91938126952923608171818B01D3
:101D1000020F111DE80188839F5F858198239383BB
:101D20001196A417B50711F7D701ED91FC913597DE
:101D300080818062808380E001C082E0DF91CF916A
:101D40001F910F91FF90EF900895DC011496ED9193
:101D5000FC91159793818281981789F092818581F2
:101D600086958923A081B181A80FB11D8C91DB01DB
:101D70008C939F5F85819823928380E0089583E010
:101D800008951F920F920FB60F9211240BB60F9267
:101D90002F933F934F935F936F937F938F939F9373
:101DA000AF93BF93CF93DF93EF93FF93A0910F0374
:101DB000B0911003109711F16091C6001496ED9147
:101DC000FC911597938182812581981B92238481B0
:101DD000981761F0838126952823C081D181C20F95
:101DE000D11D68838F5F9581892383831696ED913A
:101DF000FC911797309711F0CD011995FF91EF9154
:101E0000DF91CF91BF91AF919F918F917F916F9112
:101E10005F914F913F912F910F900BBE0F900FBE8E
:101E20000F901F9018951F920F920FB60F921124CA
:101E30000BB60F922F938F939F93AF93BF93EF9314
:101E4000FF93E0910F03F09110033097B9F00280F7
:101E5000F381E02D938182819817B1F09281858181
:101E6000282F26952923A081B181A20FB11D2C9185
:101E70009F5F892382832093C6000BC0E1ECF0E0D2
:101E800080818F7D808305C0E1ECF0E080818F7DD3
:101E90008083FF91EF91BF91AF919F918F912F918F
:101EA0000F900BBE0F900FBE0F901F9018951F92B2
:101EB0000F920FB60F9211240BB60F922F933F93F0
:101EC0004F935F936F937F938F939F93AF93BF9342
:101ED000CF93DF93EF93FF93A0911103B09112037F
:101EE000109711F16091CE001496ED91FC91159729
:101EF000938182812581981B92238481981761F0B8
:101F0000838126952823C081D181C20FD11D68838A
:101F10008F5F9581892383831696ED91FC911797A6
:101F2000309711F0CD011995FF91EF91DF91CF918D
:101F3000BF91AF919F918F917F916F915F914F91E1
:101F40003F912F910F900BBE0F900FBE0F901F90DF
:101F500018951F920F920FB60F9211240BB60F9285
:101F60002F938F939F93AF93BF93EF93FF93E09142
:101F70001103F09112033097B9F00280F381E02D44
:101F8000938182819817B1F092818581282F2695BF
:101F90002923A081B181A20FB11D2C919F5F8923BC
:101FA00082832093CE000BC0E9ECF0E080818F7D2E
:101FB000808305C0E9ECF0E080818F7D8083FF9114
:101FC000EF91BF91AF919F918F912F910F900BBE89
:101FD0000F900FBE0F901F9018951F920F920FB683
:101FE0000F9211240BB60F922F933F934F935F9351
:101FF0006F937F938F939F93AF93BF93CF93DF9311
:10200000EF93FF93A0911303B0911403109711F174
:102010006091D6001496ED91FC9115979381828181
:102020002581981B92238481981761F083812695DE
:102030002823C081D181C20FD11D68838F5F958114
:10204000892383831696ED91FC911797309711F0B1
:10205000CD011995FF91EF91DF91CF91BF91AF9194
:102060009F918F917F916F915F914F913F912F91B0
:102070000F900BBE0F900FBE0F901F9018951F92E0
:102080000F920FB60F9211240BB60F922F938F93CE
:102090009F93AF93BF93EF93FF93E0911303F0915E
:1020A00014033097B9F00280F381E02D938182818F
:1020B0009817B1F092818581282F26952923A08138
:1020C000B181A20FB11D2C919F5F89238283209340
:1020D000D6000BC0E1EDF0E080818F7D808305C0EC
:1020E000E1EDF0E080818F7D8083FF91EF91BF91E2
:1020F000AF919F918F912F910F900BBE0F900FBEBC
:102100000F901F9018951F920F920FB60F921124E7
:102110000BB60F922F933F934F935F936F937F93E1
:102120008F939F93AF93BF93CF93DF93EF93FF93DF
:10213000A0911503B0911603109711F1609136012B
:102140001496ED91FC911597938182812581981BBE
:1021500092238481981761F0838126952823C0817A
:10216000D181C20FD11D68838F5F958189238383BD
:102170001696ED91FC911797309711F0CD011995B6
:10218000FF91EF91DF91CF91BF91AF919F918F918F
:102190007F916F915F914F913F912F910F900BBE67
:1021A0000F900FBE0F901F9018951F920F920FB6B1
:1021B0000F9211240BB60F922F938F939F93AF938F
:1021C000BF93EF93FF93E0911503F09116033097BF
:1021D000B9F00280F381E02D938182819817B1F0EC
:1021E00092818581282F26952923A081B181A20F74
:1021F000B11D2C919F5F89238283209336010BC0F0
:10220000E1E3F1E080818F7D808305C0E1E3F1E0CF
:1022100080818F7D8083FF91EF91BF91AF919F91DE
:102220008F912F910F900BBE0F900FBE0F901F90AC
:102230001895CF93DF931F92CDB7DEB7BE016F5FC6
:102240007F4F80911703909118037FDD8111F6CFA6
:10225000898190E00F90DF91CF910895682F809150
:10226000170390911803FCDC80E090E008958F92B2
:102270009F92AF92CF92EF920F93812C912C689402
:10228000AA24A7F86894CC24C7F8E12C00E023E046
:1022900040E051EE60E070E04DDC909318038093D5
:1022A0001703E1E2F3E08EE092E091838083938371
:1022B00082830F91EF90CF90AF909F908F90089571
:1022C000FC01411101C045D3842F90E09C012150B5
:1022D000310982239323892B09F03BD3413808F03D
:1022E00038D3128213824483440F41504583718353
:1022F000608380E090E008955058BB27AA270ED055
:1023000048C139D130F03ED120F031F49F3F11F473
:102310001EF42EC10EF4E095E7FB24C1E92F4AD14B
:1023200080F3BA17620773078407950718F071F4F2
:102330009EF562C10EF4E0950B2EBA2FA02D0B0175
:10234000B90190010C01CA01A0011124FF27591BFA
:1023500099F0593F50F4503E68F11A16F040A22F00
:10236000232F342F4427585FF3CF46953795279571
:10237000A795F0405395C9F77EF41F16BA0B620B70
:10238000730B840BBAF09150A1F0FF0FBB1F661FB7
:10239000771F881FC2F70EC0BA0F621F731F841FFA
:1023A00048F4879577956795B795F7959E3F08F020
:1023B000B3CF9395880F08F09927EE0F97958795DF
:1023C00008950CD0E6C0DED040F0D5D030F021F436
:1023D0005F3F19F0C7C0511110C1CAC0EBD098F3CC
:1023E0009923C9F35523B1F3951B550BBB27AA2796
:1023F00062177307840738F09F5F5F4F220F331F08
:10240000441FAA1FA9F333D00E2E3AF0E0E830D0D3
:1024100091505040E695001CCAF729D0FE2F27D0D6
:10242000660F771F881FBB1F261737074807AB07A4
:10243000B0E809F0BB0B802DBF01FF2793585F4F19
:102440002AF09E3F510568F08DC0D7C05F3FECF386
:10245000983EDCF3869577956795B795F7959F5FDE
:10246000C9F7880F911D9695879597F90895E1E032
:10247000660F771F881FBB1F621773078407BA0791
:1024800020F0621B730B840BBA0BEE1F88F7E095EC
:10249000089598D088F09F5790F0B92F9927B75199
:1024A000A0F0D1F0660F771F881F991F1AF0BA9518
:1024B000C9F712C0B13081F09FD0B1E008959CC03F
:1024C000672F782F8827B85F39F0B93FCCF386950E
:1024D00077956795B395D9F73EF49095809570956B
:1024E00061957F4F8F4F9F4F0895E89409C097FBE8
:1024F0003EF490958095709561957F4F8F4F9F4FDB
:102500009923A9F0F92F96E9BB279395F69587951E
:1025100077956795B795F111F8CFFAF4BB0F11F4E1
:1025200060FF1BC06F5F7F4F8F4F9F4F16C0882388
:1025300011F096E911C0772321F09EE8872F762FBE
:1025400005C0662371F096E8862F70E060E02AF0FF
:102550009A95660F771F881FDAF7880F96958795EB
:1025600097F9089597F99F6780E870E060E0089513
:102570009FEF80EC089500240A941616170618069B
:102580000906089500240A94121613061406050677
:102590000895092E0394000C11F4882352F0BB0F08
:1025A00040F4BF2B11F460FF04C06F5F7F4F8F4F6B
:1025B0009F4F089557FD9058440F551F59F05F3FA6
:1025C00071F04795880F97FB991F61F09F3F79F055
:1025D00087950895121613061406551FF2CF4695D7
:1025E000F1DF08C0161617061806991FF1CF869559
:1025F0007105610508940895E894BB27662777273D
:10260000CB0197F908950BD0C4CFB5DF28F0BADF1E
:1026100018F0952309F0A6CFABCF1124EECFCADF77
:10262000A0F3959FD1F3950F50E0551F629FF001E5
:10263000729FBB27F00DB11D639FAA27F00DB11D3E
:10264000AA1F649F6627B00DA11D661F829F2227C7
:10265000B00DA11D621F739FB00DA11D621F839F4E
:10266000A00D611D221F749F3327A00D611D231F24
:10267000849F600D211D822F762F6A2F11249F5772
:1026800050408AF0E1F088234AF0EE0FFF1FBB1F95
:10269000661F771F881F91505040A9F79E3F510534
:1026A00070F060CFAACF5F3FECF3983EDCF38695E5
:1026B00077956795B795F795E7959F5FC1F7FE2BDF
:1026C000880F911D9695879597F90895EE0FFF1F36
:1026D000881F8BBF0790F691E02D19940F931F93DD
:1026E000CF93DF93869F8001879F100D969F100DDB
:1026F0001124C8010DD0EC01009721F0A80160E081
:1027000070E034D1CE01DF91CF911F910F910895E8
:102710000F931F93CF93DF938230910510F482E0E3
:1027200090E0E0911F03F091200320E030E0A0E072
:10273000B0E0309719F1408151810281138148172F
:102740005907C8F08417950769F4109731F012966D
:102750000C93129713961C9327C000931F0310939A
:10276000200322C02115310519F04217530718F430
:102770009A01BD01EF01DF01F801DBCF2115310521
:10278000F9F0281B390B2430310580F48A819B81B4
:102790006115710521F0FB019383828304C090933E
:1027A000200380931F03FE01329644C0FE01E20F16
:1027B000F31F8193919322503109398328833AC0C2
:1027C00020911D0330911E03232B41F4209102021E
:1027D0003091030230931E0320931D0320910002C9
:1027E000309101022115310541F42DB73EB74091DA
:1027F000040250910502241B350BE0911D03F0915A
:102800001E03E217F307A0F42E1B3F0B281739070E
:1028100078F0AC014E5F5F4F2417350748F04E0F3C
:102820005F1F50931E0340931D038193919302C039
:10283000E0E0F0E0CF01DF91CF911F910F9108957B
:10284000CF93DF93009709F481C0FC013297138284
:102850001282A0911F03B0912003109781F4208170
:102860003181820F931F20911D0330911E03281781
:10287000390751F5F0931E03E0931D0367C0ED0186
:1028800020E030E0CE17DF0740F44A815B819E01F3
:1028900041155105F1F0EA01F5CFD383C2834081A0
:1028A0005181840F951FC817D90759F488819981E0
:1028B000840F951F0296918380838A819B819383E5
:1028C00082832115310529F4F0932003E0931F033F
:1028D0003DC0E901FB83EA8349915991C40FD51F9B
:1028E000EC17FD0761F480819181840F951F02969A
:1028F000E90199838883828193819B838A83E0E0C5
:10290000F0E012968D919C911397009719F0FD01BC
:10291000DC01F7CF8D919C9111979D012E5F3F4F68
:10292000820F931F20911D0330911E032817390732
:1029300069F4309729F41092200310921F0302C00B
:1029400013821282B0931E03A0931D03DF91CF91D7
:10295000089581E090E0F89400C3FB01DC0102C01F
:1029600001900D9241505040D8F70895DC0101C00C
:102970006D9341505040E0F70895CF93DF93CDB76A
:10298000DEB7AE014A5F5F4FFA0161917191AF010D
:10299000809123039091240333D0DF91CF91089548
:1029A0000F931F93CF93DF93E0912303F0912403C0
:1029B000238121FF1BC08C01D0E0C0E0F801819190
:1029C0008F016091230370912403DB011896ED9130
:1029D000FC911997882331F01995892B79F3DFEF52
:1029E000CFEFECCF8AE01995892B19F08FEF9FEF8D
:1029F00002C08D2F9C2FDF91CF911F910F910895D1
:102A00002F923F924F925F926F927F928F929F92FE
:102A1000AF92BF92CF92DF92EF92FF920F931F93EC
:102A2000CF93DF93CDB7DEB72B970FB6F894DEBF09
:102A30000FBECDBF6C017B018A01FC01178216829B
:102A4000838181FFBFC1CE0101963C01F6019381D4
:102A5000F70193FD859193FF81917F01882309F40C
:102A6000ADC1853239F493FD859193FF81917F014A
:102A7000853221F4B60190E0D6D1E8CF912C212CFB
:102A8000312CFFE1F315D8F08B3279F038F4803235
:102A900079F08332A1F4232D20611DC08D3261F0C5
:102AA000803369F4232D216016C0832D8260382E77
:102AB000E32DE4603E2E2AC0F32DF8601DC037FCE4
:102AC0002DC020ED280F2A3040F08E32B9F436FCAC
:102AD00075C1232D2064322E19C036FE06C08AE04F
:102AE000989E200D1124922E11C0EAE02E9E200DFA
:102AF0001124222EF32DF0623F2E08C08C3621F4D3
:102B0000832D8068382E02C0883641F4F70193FD8A
:102B1000859193FF81917F018111B3CF982F9F7D84
:102B20009554933028F40C5F1F4F9FE399830DC099
:102B3000833631F0833771F0833509F055C020C0FA
:102B4000F801808189830E5F1F4F88248394912C24
:102B5000530112C02801F2E04F0E511CF801A08071
:102B6000B18036FE03C0692D70E002C06FEF7FEFC9
:102B7000C5014ED14C018201F32DFF773F2E15C0C8
:102B8000280122E0420E511CF801A080B18036FEDF
:102B900003C0692D70E002C06FEF7FEFC5012DD13A
:102BA0004C01F32DF0683F2E820133FC19C0822DB9
:102BB00090E088169906A0F4B60180E290E033D147
:102BC0002A94F5CFF50137FC859137FE81915F019D
:102BD000B60190E028D121102A9421E0821A9108B0
:102BE0008114910479F7E1C0843611F0893639F502
:102BF000F80137FE07C060817181828193810C5F8B
:102C00001F4F08C060817181072E000C880B990B43
:102C10000E5F1F4FF32DFF763F2E97FF09C0909553
:102C20008095709561957F4F8F4F9F4FF0683F2E35
:102C30002AE030E0A30133D1882E861844C08537BE
:102C400031F4232D2F7EB22E2AE030E025C0932DC3
:102C5000997FB92E8F36C1F018F4883579F0AEC05F
:102C6000803719F0883721F0A9C0E92FE061BE2E26
:102C7000B4FE0DC0FB2DF460BF2E09C034FE0AC0A7
:102C8000292F2660B22E06C028E030E005C020E1E2
:102C900030E002C020E132E0F801B7FE07C06081F9
:102CA0007181828193810C5F1F4F06C060817181A9
:102CB00080E090E00E5F1F4FA301F1D0882E8618B0
:102CC000FB2DFF773F2E36FE0DC0232D2E7FA22E2B
:102CD000891458F434FE0BC032FC09C0832D8E7E5B
:102CE000A82E05C0B82CA32C03C0B82C01C0B92C49
:102CF000A4FE0FC0FE01E80DF11D8081803321F498
:102D00009A2D997EA92E09C0A2FE06C0B394B39451
:102D100004C08A2D867809F0B394A3FC10C0A0FEED
:102D200006C0B21480F4280C922C9B180DC0B2146B
:102D300058F4B60180E290E076D0B394F8CFB214A4
:102D400018F42B1802C0982C212CA4FE0FC0B60139
:102D500080E390E068D0A2FE16C0A1FC03C088E723
:102D600090E002C088E590E0B6010CC08A2D86781C
:102D700051F0A1FE02C08BE201C080E2A7FC8DE20F
:102D8000B60190E050D0891430F4B60180E390E0B1
:102D90004AD09A94F8CF8A94F301E80DF11D80810E
:102DA000B60190E040D08110F6CF222009F44ECE3B
:102DB000B60180E290E037D02A94F7CFF601868101
:102DC000978102C08FEF9FEF2B960FB6F894DEBF6E
:102DD0000FBECDBFDF91CF911F910F91FF90EF906C
:102DE000DF90CF90BF90AF909F908F907F906F902B
:102DF0005F904F903F902F900895FC010590615097
:102E000070400110D8F7809590958E0F9F1F089500
:102E1000FC016150704001900110D8F780959095A9
:102E20008E0F9F1F08950F931F93CF93DF93FB0186
:102E3000238121FD03C08FEF9FEF2CC022FF16C01E
:102E400046815781248135814217530744F4A0817C
:102E5000B1819D012F5F3F4F318320838C93268169
:102E600037812F5F3F4F3783268314C08B01EC01DE
:102E7000FB010084F185E02D1995892BE1F6D8013D
:102E800016968D919C911797019617969C938E9309
:102E90001697CE01DF91CF911F910F910895FA01FE
:102EA000AA27283051F1203181F1E8946F936E7F89
:102EB0006E5F7F4F8F4F9F4FAF4FB1E03ED0B4E07A
:102EC0003CD0670F781F891F9A1FA11D680F791FBB
:102ED0008A1F911DA11D6A0F711D811D911DA11DCC
:102EE00020D009F468943F912AE0269F11243019DC
:102EF000305D3193DEF6CF010895462F4770405D77
:102F00004193B3E00FD0C9F7F6CF462F4F70405D25
:102F10004A3318F0495D31FD4052419302D0A9F780
:102F2000EACFB4E0A6959795879577956795BA957A
:102F3000C9F700976105710508959B01AC010A2E40
:102F400006945795479537952795BA95C9F7620F17
:0E2F5000731F841F951FA01D0895F894FFCFD6
:102F5E00000027032000C600CE00D6003601000078
:102F6E000003000000002E1119110000FF01860061
:102F7E000000000079FF0179A000000000E6FF01CB
:102F8E0079000000000086FF018700000000007835
:102F9E00FF0188000000000000434F325F53454E92
:102FAE00534F525F4552524F520049444C450054C4
:102FBE006D722053766300434F322076616C7565D7
:102FCE00203D202569200A00434F32205461736B47
:022FDE000000F1
:00000001FF
