S01600004D79466972737450726F6A6563742E7372656369
S1130000B2C10000D1C10000CFC10000CDC10000C9
S1130010CBC10000C9C10000C7C10000C5C10000B8
S1130020C3C10000C1C10000BFC10000BDC10000C8
S1130030ECC30000B9C10000B7C10000B5C10000A5
S1130040B3C10000B1C10000AFC10000ADC10000E8
S1130050ABC10000A9C10000A7C10000A5C10000F8
S1130060A3C10000A1C100009FC100009DC1000008
S11300709BC1000099C1000097C1000095C1000018
S113008093C1000091C100008FC100008DC1000028
S11300908BC1000089C1000087C1000085C1000038
S11300A083C1000081C100007FC100007DC1000048
S11300B07BC1000079C1000077C1000075C1000058
S11300C073C1000071C100006FC100006DC1000068
S11300D06BC1000069C1000067C1000065C1000078
S11300E063C1000043014301430172017A018901A4
S11300F04301430172017A0104E512E00F2EFCE78B
S1130100EF2EF2E0FF2EF02D80915302882311F19F
S11301100FB6F8940F92D8011596ED91FC911697AD
S1130120C681D781CE010296D8D1809149028150EF
S113013080934902809153028150809353020F901F
S11301400FBE8F89988D58D1CE0156D1809153021C
S11301508111DECFF7018081823008F093D20E94B2
S1130160930CD2CFCF93DF9300D000D0CDB7DEB7BE
S1130170CE0101964C0144244394E12CF12C512CE2
S1130180C82ED92CE091AA02F091AB028081882379
S113019009F4D6C00580F681E02DA080B180AAD7ED
S11301A0C4010E94250C8C018981811148C00A1563
S11301B01B05B0F10E944109E091AA02F091AB0243
S11301C00580F681E02D66807780C301029685D193
S11301D0D30153968C91539782FF17C01C966D914F
S11301E07C911D976A0D7B1D9501A801C3010E9496
S11301F06A0B882369F00E2D1F2D2E2D3F2DA5018E
S1130200652DC3010E94E10B03C08E7FF301838B34
S1130210D3015096ED91FC915197C301199584C077
S1130220452DB501601B710B8091A6029091A70228
S113023095D50E944109811177C024D275C00E94CE
S1130240410972C0898188230CF46EC0AC80BD80E2
S1130250F50182859385892B19F0C50102963DD15C
S1130260CE0106960E94250CAC01E9810E2E000CED
S1130270FF0BEA30F10508F057C08827EE58FF4F0E
S11302808F4F0C94100DD50153968C915397816028
S113029053968C9353972A813B811C966D917C9144
S11302A01D97620F731FC5010E946A0B8823E1F139
S11302B0D5015096ED91FC915197C5011995F50121
S11302C0838982FF31C04A815B8184859585480F8B
S11302D0591F0E2D1F2D2E2D3F2D652DC5010E945A
S11302E0E10B22C0D50153968C9153978E7F539680
S11302F08C931AC0F50183898160838B6A817B8129
S113030075876487640F751F9A01C5010E946A0B83
S11303100BC0D50153968C9181FD03C0C5016CD0EF
S113032003C08E7FF501838B4E2D5F2D6C2D7D2DAB
S11303308091A6029091A70288D4811183CF22CF05
S1130340D9D6C4010E94250C8C018981811177CFF3
S1130350E091A802F091A9028081442D8111452DDC
S1130360AE2CBF2C5ECF11241FBECFEFD1E2DEBF77
S1130370CDBF00E00CBF12E0A0E0B2E0E6EFFCE18C
S113038000E00BBF02C007900D92AC33B107D9F760
S113039022E0ACE3B2E001C01D92AC3CB207E1F74D
S11303A00E94AE0C0C94790E2BCEE7E0F1E0808134
S11303B08F6080830895E8E0F1E09081907F9083DE
S11303C090818F70982B90830895E8E0F1E080810C
S11303D0807F80830895CF93DF93EC018BD6CE0189
S11303E00E94180DEC014DD7209711F40E94940C33
S11303F0CE01DF91CF910895CF93DF93009731F031
S1130400EC0178D6CE010E94B00D3BD7DF91CF919D
S11304100895FC010396928381832FEF3FEF348389
S11304202383968385839087878310820895FC01B4
S1130430118610860895CF93DF939C01FB01DC01A4
S11304401196CD91DC911297D383C2838C819D81C7
S1130450958384838C819D81DC0113967C936E93B8
S113046012977D836C8331872087F90180818F5FA8
S11304708083DF91CF910895CF93DF93EB0148817F
S113048059814F3F2FEF520721F4FC01A781B0851A
S11304900DC0DC01139601C0DF011296ED91FC91B1
S11304A013972081318142175307B0F71296ED91CB
S11304B0FC911397FB83EA83D583C483BD83AC8308
S11304C01396DC93CE93129799878887FC01208139
S11304D02F5F2083DF91CF910895CF93DF93FC01A9
S11304E0A085B185C281D381848195819D838C83CC
S11304F0C481D581828193819B838A8311968D9156
S11305009C911297E817F90731F48481958112962A
S11305109C938E931197118610868C9181508C93A5
S11305208C91DF91CF91089531E1FC0130833197B3
S113053022E220833197A3E3A0833197608331972C
S113054070833197108231971082319760E860830D
S1130550319710823197108231971082319762E07F
S11305606083319763E06083319764E060833197FF
S113057065E06083319766E06083319767E060836C
S1130580319768E06083319769E06083319760E177
S1130590608331973083319732E13083319733E18F
S11305A03083319734E13083319735E130833197AB
S11305B036E13083319737E13083319738E1308346
S11305C0319739E13083319730E23083319731E22A
S11305D0308331972083319723E2208331974083FE
S11305E031975083319726E22083319727E2208385
S11305F0319728E22083319729E22083319720E341
S11306002083319721E3208389970895A89590EC5E
S113061088E10FB6F894A895809360000FBE90937C
S11306206000A091A002B091A102CD91CDBFDD9157
S1130630DEBFFF91EF91DF91CF91BF91AF919F9179
S11306408F917F916F915F914F913F912F911F9166
S11306500F91FF90EF90DF90CF90BF90AF909F905D
S11306608F907F906F905F904F903F902F901F904E
S11306700F900CBE0F900BBE0F900FBE0F900895FD
S113068081E008950F920FB6F8940F920BB60F9273
S11306900CB60F921F9211242F923F924F925F92A9
S11306A06F927F928F929F92AF92BF92CF92DF927E
S11306B0EF92FF920F931F932F933F934F935F9368
S11306C06F937F938F939F93AF93BF93CF93DF9356
S11306D0EF93FF93A091A002B091A1020DB60D92E9
S11306E00EB60D9266D6A091A002B091A102CD9152
S11306F0CDBFDD91DEBFFF91EF91DF91CF91BF912F
S1130700AF919F918F917F916F915F914F913F91A5
S11307102F911F910F91FF90EF90DF90CF90BF909A
S1130720AF909F908F907F906F905F904F903F908D
S11307302F901F900F900CBE0F900BBE0F900FBE0A
S11307400F9008950F920FB6F8940F920BB60F9274
S11307500CB60F921F9211242F923F924F925F92E8
S11307606F927F928F929F92AF92BF92CF92DF92BD
S1130770EF92FF920F931F932F933F934F935F93A7
S11307806F937F938F939F93AF93BF93CF93DF9395
S1130790EF93FF93A091A002B091A1020DB60D9228
S11307A00EB60D9213BEB6D4811103D6A091A00249
S11307B0B091A102CD91CDBFDD91DEBFFF91EF914C
S11307C0DF91CF91BF91AF919F918F917F916F9165
S11307D05F914F913F912F911F910F91FF90EF9057
S11307E0DF90CF90BF90AF909F908F907F906F904D
S11307F05F904F903F902F901F900F900CBE0F90E2
S11308000BBE0F900FBE0F9008959CDF18950FB686
S1130810F8940F92FC01928D0F900FBE81E091111C
S113082080E008950F931F93CF93DF93EC01042F7F
S11308301A8D4C8D41110BC088819981892B09F047
S113084041C08C819D8106D71D821C8242C001114A
S113085017C050E08A819B810E94390E2C8D8A81B9
S11308609B81820F911D9B838A832C813D818217FA
S1130870930750F1888199819B838A8380E029C002
S113088050E08E819F810E94390E8C8D90E091956D
S1130890819591092E813F81280F391F3F832E8333
S11308A0488159812417350730F42C813D81820F0A
S11308B0931F9F838E83023049F4112349F0115012
S11308C080E007C080E005C080E003C080E001C094
S11308D080E01F5F1A8FDF91CF911F910F910895D0
S11308E0FC01448D4423A9F050E026813781240F74
S11308F0351F37832683848195812817390720F093
S11309008081918197838683CB01668177810C9462
S1130910390E0895EF92FF920F931F93CF938C019A
S11309200FB6F8940F92FC01C68D1C169CF48189B5
S1130930811106C00FC0F8018189811105C00AC068
S11309407801F1E1EF0EF11CC701EAD5811170D6EF
S1130950C15089F78FEFF801868F0F900FBE0FB645
S1130960F8940F92C58D1C169CF48085811106C0E5
S11309700FC0F8018085811105C00AC07801F8E034
S1130980EF0EF11CC701CCD5811152D6C15089F7A5
S11309908FEFF801858F0F900FBECF911F910F91AC
S11309A0FF90EF900895CF93DF93EC010FB6F89486
S11309B00F92E881F9818B8D2C8D90E030E0829F3D
S11309C0A001839F500D929F500D11244E0F5F1F65
S11309D05D834C831A8EFB83EA830197829FA00177
S11309E0839F500D929F500D1124CF01840F951FAA
S11309F09F838E838FEF8D8F8E8F61110AC08885C0
S1130A00882369F0CE0108968BD5882341F03ADE1D
S1130A1006C0CE010896FDDCCE014196FADC0F90AB
S1130A200FBE81E0DF91CF910895FF920F931F9342
S1130A30CF93DF93082F162FF42E6623B9F0869FE9
S1130A40C00111248196C7DCEC01009741F414C065
S1130A500B8F1C8F61E0CE01A6DFF8A20DC081963A
S1130A6099838883F5CFD983C883F2CF81E290E05C
S1130A70B2DCEC01892BB9F7CE01DF91CF911F9144
S1130A800F91FF9008959F92AF92BF92CF92DF9201
S1130A90EF92FF920F931F93CF93DF9300D01F9297
S1130AA01F92CDB7DEB78C016B015D834C83A22E00
S1130AB0B12C992493947C0188E0E80EF11C0FB6C4
S1130AC0F8940F92F801928D838D981718F0F2E044
S1130AD0AF1215C04A2DB601C801A4DEF8019189F0
S1130AE0992339F0C80141961BD5882321F0CADD2A
S1130AF002C08111C7DD0F900FBE81E045C08C811B
S1130B009D81892B21F40F900FBE80E03DC0B11070
S1130B1004C0CE0101964CD5B92C0F900FBEEAD279
S1130B200FB6F8940F92F801858D8F3F09F4158E56
S1130B30F801868D8F3F09F4168E0F900FBEBE010B
S1130B406C5F7F4FCE0101963ED5811119C00FB65F
S1130B50F8940F92F801928D838D0F900FBE981325
S1130B600BC06C817D81C701B2D4C801D3DE89D3A7
S1130B708111A5CF87DDA3CFC801CCDE82D39FCF5F
S1130B80C801C8DE7ED380E00F900F900F900F90C5
S1130B900F90DF91CF911F910F91FF90EF90DF9015
S1130BA0CF90BF90AF909F900895CF93DF93482F3D
S1130BB060E081E03ADFEC01009759F01D821C826D
S1130BC0198218821E8220E040E050E060E070E06C
S1130BD05ADFCE01DF91CF910895EF92FF920F93E8
S1130BE01F93CF93DF938A01FC01528D338D5317EA
S1130BF010F02230E1F4422F7801EC011E8D12DE58
S1130C001F3F79F489898823A1F0CE01419688D4C5
S1130C10882389F0E114F10481F081E0F7018083F5
S1130C200DC0FF24F394F10EFE8E81E007C080E036
S1130C3005C081E003C081E001C081E0DF91CF9174
S1130C401F910F91FF90EF9008959F92AF92BF92E2
S1130C50CF92DF92EF92FF920F931F93CF93DF9384
S1130C6000D01F921F92CDB7DEB78C015B015D836C
S1130C704C83E12C992493946C0181E1C80ED11C1E
S1130C800FB6F8940F92F801F28CFF2091F0B501A1
S1130C90C80126DEFA94F801F28E8085882329F0B3
S1130CA0C80108963DD48111EDDC0F900FBE81E0A0
S1130CB044C08C819D81892B21F40F900FBE80E06C
S1130CC03CC0E11004C0CE01019672D4E92C0F900F
S1130CD00FBE10D20FB6F8940F92F801858D8F3F96
S1130CE009F4158EF801868D8F3F09F4168E0F9046
S1130CF00FBEBE016C5F7F4FCE01019664D481119B
S1130D0013C0C80184DD882359F06C817D81C6013C
S1130D10DED3C801FFDDB5D28111B2CFB3DCB0CFD1
S1130D20C801F8DDAED2ACCFC801F4DDAAD2C80147
S1130D306EDD882309F4A4CF80E00F900F900F900C
S1130D400F900F90DF91CF911F910F91FF90EF9033
S1130D50DF90CF90BF90AF909F900895CF93DF9393
S1130D60EC010FB6F8940F928D8D8F3F09F41D8E10
S1130D708E8D8F3F09F41E8E0F900FBE8A8D8111C8
S1130D8003C0CE014196B4D3CE01C4DDDF91CF912F
S1130D900895E0916802F09169028081811107C091
S1130DA08FEF9FEF9093400280933F020895E0916C
S1130DB06802F09169020580F681E02D0680F781D2
S1130DC0E02D828193819093400280933F020895A5
S1130DD0FF920F931F93CF93DF93EC01F62E0091B4
S1130DE04702109148028091A0029091A1020296BC
S1130DF074DBCF3F8FEFD80761F4FF2051F060918F
S1130E00A0027091A1026E5F7F4F8AE492E013DB2F
S1130E102DC0C00FD11FE091A002F091A102D38395
S1130E20C283C017D10760F46091A0027091A1023F
S1130E3080916602909167026E5F7F4F1DDB16C042
S1130E406091A0027091A102809168029091690260
S1130E506E5F7F4F11DB80913F0290914002C81773
S1130E60D90720F4D0934002C0933F02DF91CF9181
S1130E701F910F91FF9008954F925F926F927F920E
S1130E808F929F92AF92BF92CF92DF92EF92FF9296
S1130E900F93CF93DF934C016B015A012901CA01CF
S1130EA09ADA3C01892B09F4E3C08CE290E093DAEE
S1130EB0EC01892B91F0788E6F8AA50165EA70E0C8
S1130EC0C301E0D681E0A81AB1088F89988DA80ED5
S1130ED0B91EC114D10421F41FC0C3018DDAC8C0E6
S1130EE0D6018C91898F8C918823A1F0AE01465E46
S1130EF05F4FF6013196B8E0CB0ED11CCF012191A2
S1130F00DA012D93AD01DC018C91882319F0EC15E5
S1130F10FD05A1F718A201C0198E043008F003E002
S1130F200E8B0BA31CA26E01B2E0CB0ED11CC6012A
S1130F307EDACE010C967BDAD987C88784E090E00C
S1130F40801B91099D878C87DB8BCA8B1EA21DA2F7
S1130F501FA218A619A61AA61BA6A201B401C501B0
S1130F60E3DA99838883E114F10419F0F701D1835A
S1130F70C0830FB6F8940F92809149028F5F8093DB
S1130F8049028091A0029091A102892B89F5D09306
S1130F90A102C093A00280914902813009F038C0B7
S1130FA08CE792E036DA85E892E033DA8EE892E074
S1130FB030DA87E992E02DDA83E792E02ADA8AE6EA
S1130FC092E027DA8DE592E024DA84E592E021DAF2
S1130FD08AE492E01EDA83E792E0909369028093B8
S1130FE068028AE692E0909367028093660210C0DA
S1130FF08091450281110CC0E091A002F091A10200
S113100096898E89891720F0D093A102C093A002FB
S1131010809141028F5F8093410289A38E899091D0
S11310204602981710F48093460290E09C01220F28
S1131030331F220F331F220F331F820F931FB6015A
S113104084589D4FF8D90F900FBE80914502882394
S113105059F0E091A002F091A10296898E89981727
S113106028F410DB81E005C081E003C081E001C009
S11310708FEFDF91CF910F91FF90EF90DF90CF90A2
S1131080BF90AF909F908F907F906F905F904F90A4
S11310900895EF92FF920F930F2EFDE3EF2EF2E0EF
S11310A0FF2EF02D00E020E030E040EC50E066E060
S11310B072E08CE790E0E0DE8130C1F462D38130ED
S11310C0A9F4F8948FEF9FEF9093400280933F022E
S11310D081E0809345021092480210924702E09109
S11310E0A002F091A10285A166D990DA0F91FF9038
S11310F0EF90089580913C028F5F80933C020895A5
S11311000FB6F8940F9280914702909148020F9085
S11311100FBE0895CF92DF92EF92FF920F931F9329
S1131120CF93DF9380913C02811195C0E0904702F8
S1131130F09048028FEFE81AF80AF0924802E09221
S11311404702E114F104B1F48091680290916902BC
S113115020916602309167023093690220936802FD
S11311609093670280936602809142028F5F80931E
S113117042020FDE80913F0290914002E816F90688
S113118010F4D12C50C0D12CCC24C394E09168022B
S1131190F09169028081811107C08FEF9FEF9093D6
S11311A0400280933F023FC0E0916802F0916902DF
S11311B00580F681E02DC681D7818A819B81E8165E
S11311C0F90628F49093400280933F022CC08E01CC
S11311D00E5F1F4FC80181D98C899D89892B19F015
S11311E0CE010C967AD98E8990914602981710F404
S11311F08093460290E09C01220F331F220F331F7D
S1131200220F331F820F931FB80184589D4F13D9A7
S1131210E091A002F091A1029E898689981708F4B2
S1131220B5CFDC2CB3CFE091A002F091A102868966
S113123090E0FC01EE0FFF1FEE0FFF1FEE0FFF1FEC
S11312408E0F9F1FFC01E458FD4F8081823048F0CF
S1131250DD24D39406C0809144028F5F80934402BE
S1131260D12C80914302882311F0DD24D3948D2D59
S1131270DF91CF911F910F91FF90EF90DF90CF906E
S11312800895DF92EF92FF920F931F93CF93DF9312
S11312900FB6F8940F9280913C02815080933C02E7
S11312A080913C02811159C080914902811130C062
S11312B057C0D7011596ED91FC911697C681D78139
S11312C0CE010C960AD98E010E5F1F4FC80105D9B5
S11312D08E8990914602981710F48093460290E00C
S11312E09C01220F331F220F331F220F331F820F43
S11312F0931FB80184589D4F9ED8E091A002F091AD
S1131300A1029E898689981768F0D09243020AC088
S1131310C0E0D0E00F2EFDE5EF2EF2E0FF2EF02D21
S1131320DD24D394F70180818111C3CFCD2B09F043
S113133030DDC0914402CC2349F0D1E0EBDE8111D1
S1131340D0934302C150D1F71092440280914302DA
S1131350882329F097D981E003C080E001C080E0B0
S11313600F900FBEDF91CF911F910F91FF90EF90DF
S1131370DF900895CF93DF93EC01892B39F0BADE27
S113138060E0CE0125DD7DDF811101C07BD9DF91D5
S1131390CF910895009721F48091A0029091A10229
S11313A00FB6F8940F92FC0176A365A30F900FBEBD
S11313B0089580913C02882321F081E080934302C8
S11313C0089510924302E091A002F091A10285A138
S11313D00E94E501A091A002B091A102E091A002B7
S11313E0F091A1022D913C918789908D82179307EA
S11313F058F06091A0027091A1028091A002909196
S1131400A102675E7F4F9DD220914602822F90E019
S1131410FC01EE0FFF1FEE0FFF1FEE0FFF1FE80F83
S1131420F91FE458FD4F3081311111C02150822F32
S113143090E0FC01EE0FFF1FEE0FFF1FEE0FFF1FEA
S1131440E80FF91FE458FD4F3081332379F3AC01E1
S1131450440F551F440F551F440F551F480F591F64
S1131460DA01A458BD4F1196ED91FC9112970280B8
S1131470F381E02D1296FC93EE93119741585D4F42
S1131480E417F50729F442815381FD015283418316
S1131490FC01EE0FFF1FEE0FFF1FEE0FFF1F8E0F5D
S11314A09F1FFC01E458FD4F0180F281E02D8681ED
S11314B097819093A1028093A00220934602E09129
S11314C0A002F091A10285A10C94DB010895CF93B1
S11314D0DF93EB016091A0027091A102645F7F4FE2
S11314E00E943C0261E0CE0173DCDF91CF9108954C
S11314F00F931F93CF938B01C42F6091A00270911F
S1131500A102645F7F4F0E941B02CC2311F00FEFF6
S11315101FEF6C2FC8015CDCCF911F910F910895D0
S11315200F931F93CF93DF93DC011596ED91FC91FC
S11315301697C681D7818E01045F1F4FC8010E9490
S11315406D0280913C0281111CC00A501109C8012E
S11315500E946D028E8990914602981710F4809330
S1131560460290E09C01220F331F220F331F220FEB
S1131570331F820F931FB80184589D4F0E941B0292
S113158005C0B8018DE592E00E941B02E091A00223
S1131590F091A1029E898689891720F481E08093C5
S11315A0430201C080E0DF91CF911F910F91089514
S11315B020914202FC01208320914702309148028D
S11315C0328321830895CF93DF930FB6F8940F925B
S11315D02091470230914802DB014D915C914F3FCD
S11315E0BFEF5B07E9F0EC01E981FA81A0914202C7
S11315F0B881BA1719F02E173F07A0F42E1B3F0B22
S11316002417350740F4FB01421B530B51834083DD
S1131610CFDF80E008C0FB011182108281E003C0AB
S113162080E001C081E00F900FBEDF91CF9108955B
S113163081E080934302089580914502882331F02C
S113164080913C02882321F080E0089581E0089590
S113165082E008950F931F93CF93DF93FC01892BAE
S113166079F184A1815084A3268993A1291751F18A
S113167081112AC0EF018F010E5F1F4FC8010E9424
S11316806D028BA18E8B24E030E0281B31093D874D
S11316902C8790914602981710F48093460290E0AC
S11316A09C01220F331F220F331F220F331F820F7F
S11316B0931FB80184589D4F0E941B0281E005C00E
S11316C080E003C080E001C080E0DF91CF911F91F2
S11316D00F910895FC017383628391878087461775
S11316E0570790F0421B530B84859585481759077B
S11316F0E0F4BF016E5F7F4F8091A8029091A90230
S11317000E943C0280E008954217530718F46217C0
S1131710730768F4BF016E5F7F4F8091AA029091B6
S1131720AB020E943C0280E0089581E0089581E0CC
S113173008950FB6F8940F928091A6029091A70293
S1131740892BE1F485EB92E00E9409028CEA92E095
S11317500E94090285EB92E09093AB028093AA0267
S11317608CEA92E09093A9028093A80240E065E09D
S11317708AE05BD99093A7028093A6020F900FBED4
S11317800895EF92FF920F93D4DF8091A602909177
S1131790A702892B89F00F2EF4EAEF2EF2E0FF2E38
S11317A0F02D03E020E030E045E550E06BE072E02E
S11317B082EB90E061DB01C080E00F91FF90EF903D
S11317C008950F931F93CF93DF9300D01F921F921E
S11317D0CDB7DEB7E091A602F091A702309751F1A0
S11317E0D90169835B834A839D838C836630D4F4F7
S11317F023DF823059F420E0A801BE016F5F7F4FE0
S11318008091A6029091A7023ED915C020E040E045
S113181050E0BE016F5F7F4F8091A6029091A702B6
S113182032D909C020E0AD01BE016F5F7F4FCF0107
S1131830D4D901C080E00F900F900F900F900F90BB
S1131840DF91CF911F910F910895AF92BF92CF92E4
S1131850DF92EF92FF920F931F93CF93DF936C016C
S11318604FDC7C018091A2029091A302E816F90654
S113187008F047C02FC00580F681E02DA080B1801C
S1131880C681D7818E010E5F1F4FC8010E946D0271
S1131890E889F989CE0119958B8982FF1BC08C8553
S11318A09D858A0D9B1DA816B90660F49B838A83C7
S11318B0D987C887B8018091AA029091AB020E948F
S11318C03C0208C000E010E020E030E0A50160E048
S11318D0CE0177DFE091AA02F091AB028081811101
S11318E0CACF8091A8029091A9029093AB028093F1
S11318F0AA02F093A902E093A80281E0F601808392
S113190002C0F6011082F092A302E092A202C70183
S1131910DF91CF911F910F91FF90EF90DF90CF90C7
S1131920BF90AF9008950895279A2F9A2FEF80E7DC
S113193092E0215080409040E1F700C000001F9ADF
S1131940F5CF279A2F9A2FEF87EA91E6215080400E
S11319509040E1F700C000001F9AF5CF81B1816883
S113196081B90E94D50111D03FD006D002D091DBBD
S1131970FFCF08950895089540E066E083E055D8C8
S11319809093BF028093BE0208958091C00290910B
S1131990C102892B71F481E008D99093C10280932C
S11319A0C002009731F020E040E050E060E070E0D9
S11319B06AC8089561E070E080E090E0EBDC83E1C8
S11319C092E067D1D7DF82E390E0D4DCF8CF62E025
S11319D070E080E090E0DEDC89E192E05AD1CBDF78
S11319E082E390E0C7DCF8CFEF92FF920F93E12CF3
S11319F0F12C02E020E030E040EC50E06FE172E0D6
S1131A008AED9CE039DA20E030E040EC50E06FE20F
S1131A1072E087EE9CE030DA0F91FF90EF9008952A
S1131A20EE0FFF1F881F8BBF0790F691E02D1994CE
S1131A300F931F93CF93DF938230910510F482E0CC
S1131A4090E0E091C402F091C50220E030E0A0E013
S1131A50B0E0309719F14081518102811381481718
S1131A605907C8F08417950769F4109731F0129656
S1131A700C93129713961C9327C00093C4021093DF
S1131A80C50222C02115310519F04217530718F475
S1131A909A01BD01EF01DF01F801DBCF211531050A
S1131AA0F9F0281B390B2430310580F48A819B819D
S1131AB06115710521F0FB019383828304C0909327
S1131AC0C5028093C402FE01329644C0FE01E20FB7
S1131AD0F31F8193919322503109398328833AC0AB
S1131AE02091C2023091C302232B41F420910202BF
S1131AF0309103023093C3022093C202209100026A
S1131B00309101022115310541F42DB73EB74091C2
S1131B10040250910502241B350BE091C202F0919E
S1131B20C302E217F307A0F42E1B3F0B2817390753
S1131B3078F0AC014E5F5F4F2417350748F04E0F25
S1131B405F1F5093C3024093C2028193919302C0DA
S1131B50E0E0F0E0CF01DF91CF911F910F91089564
S1131B60CF93DF93009709F481C0FC01329713826D
S1131B701282A091C402B091C502109781F4208111
S1131B803181820F931F2091C2023091C302281722
S1131B90390751F5F093C302E093C20267C0ED0127
S1131BA020E030E0CE17DF0740F44A815B819E01DC
S1131BB041155105F1F0EA01F5CFD383C283408189
S1131BC05181840F951FC817D90759F488819981C9
S1131BD0840F951F0296918380838A819B819383CE
S1131BE082832115310529F4F093C502E093C402E0
S1131BF03DC0E901FB83EA8349915991C40FD51F84
S1131C00EC17FD0761F480819181840F951F029682
S1131C10E90199838883828193819B838A83E0E0AD
S1131C20F0E012968D919C911397009719F0FD01A5
S1131C30DC01F7CF8D919C9111979D012E5F3F4F51
S1131C40820F931F2091C2023091C30228173907D3
S1131C5069F4309729F41092C5021092C40202C0AC
S1131C6013821282B093C302A093C202DF91CF9178
S1131C700895FB01DC0102C001900D9241505040D7
S1131C80D8F70895DC0101C06D9341505040E0F74E
S1131C9008950F931F93CF93DF93E091C802F091BF
S1131CA0C902238121FF1BC08C01D0E0C0E0F801F0
S1131CB081918F016091C8027091C902DB0118966D
S1131CC0ED91FC911997882331F01995892B79F3BB
S1131CD0DFEFCFEFECCF8AE01995892B19F08FEF66
S1131CE09FEF02C08D2F9C2FDF91CF911F910F91F9
S1091CF00895F894FFCFF3
S1131CF60000CC02200049444C4500546D72205328
S1131D067663007461736B31007461736B320054D3
S1131D1661736B4D65617373757265434F3200541D
S10F1D2661736B53656E6444617461006A
S9030000FC
