S01600004D79466972737450726F6A6563742E7372656369
S113000004C2000023C2000021C200001FC200007D
S11300101DC200001BC2000019C2000017C200006C
S113002015C2000013C2000011C200000FC200007C
S113003056C400000BC2000009C2000007C2000041
S113004005C2000003C2000001C20000FFC100009D
S1130050FDC10000FBC10000F9C10000F7C10000B0
S1130060F5C100000C9459120C94AB12EFC10000BE
S1130070EDC10000EBC10000E9C10000E7C10000D0
S1130080E5C10000E3C10000E1C10000DFC10000E0
S11300900C94EF120C944113D9C100000C94D9159F
S11300A0D5C10000D3C10000D1C10000CFC1000000
S11300B0CDC10000CBC10000C9C10000C7C1000010
S11300C0C5C10000C3C10000C1C100000C94851368
S11300D00C94D713BBC100000C941B140C946D1426
S11300E0B5C10000950195019501C401CC01DB0166
S11300F095019501C401CC01FB156B166B166B16AB
S11301006B166B166B166B16FB156B166B166B1654
S11301106B166B166B166B16FD156B166B166B1642
S11301206B166B166B166B166B166B166B166B16C3
S11301306B166B166B166B16FD156B166B166B1622
S11301406B166B166B166B166B166B166B166B16A3
S11301506B166B166B166B1667166B166B166B1697
S11301606B166B166B166B1632166B166B166B16BC
S11301706B166B166B166B166B166B166B166B1673
S11301806B166B166B166B1626166B166B166B16A8
S11301906B166B166B166B164A1606E813E00F2ED9
S11301A0FEEAEF2EF3E0FF2EF02D809185038823E5
S11301B011F10FB6F8940F92D8011596ED91FC91B8
S11301C01697C681D781CE010296F1D180917B0327
S11301D0815080937B0380918503815080938503B4
S11301E00F900FBE8F89988D71D1CE016FD1809100
S11301F085038111DECFF7018081823008F0ACD213
S11302000E94B90ED2CFCF93DF9300D000D0CDB7E8
S1130210DEB7CE0101964C0144244394E12CF12C29
S1130220512CC82ED92CE091DC03F091DD038081A0
S1130230882309F4D7C00580F681E02DA080B18021
S11302400E94A109C4010E944B0E8C018981811175
S113025048C00A151B05B0F10E94680AE091DC034E
S1130260F091DD030580F681E02D66807780C3017F
S113027002969DD1D30153968C91539782FF17C058
S11302801C966D917C911D976A0D7B1D9501A801AB
S1130290C3010E94570D882369F00E2D1F2D2E2DAA
S11302A03F2DA501652DC3010E94050E03C08E7F5D
S11302B0F301838BD3015096ED91FC915197C301C7
S11302C0199584C0452DB501601B710B8091D8032D
S11302D09091D90369D60E94680A811177C03CD2F3
S11302E075C00E94680A72C0898188230CF46EC0AC
S11302F0AC80BD80F50182859385892B19F0C501F9
S1130300029655D1CE0106960E944B0EAC01E981AE
S11303100E2E000CFF0BEA30F10508F057C08827B9
S1130320EE58FF4F8F4F0C94C318D50153968C9100
S11303305397816053968C9353972A813B811C96E3
S11303406D917C911D97620F731FC5010E94570D1B
S11303508823E1F1D5015096ED91FC915197C501A7
S11303601995F501838982FF31C04A815B818485B7
S11303709585480F591F0E2D1F2D2E2D3F2D652DB0
S1130380C5010E94050E22C0D50153968C91539746
S11303908E7F53968C931AC0F50183898160838B79
S11303A06A817B8175876487640F751F9A01C50113
S11303B00E94570D0BC0D50153968C9181FD03C04B
S11303C0C50184D003C08E7FF501838B4E2D5F2D34
S11303D06C2D7D2D8091D8039091D903A1D48111E6
S11303E083CF21CFAED7C4010E944B0E8C018981EB
S11303F0811177CFE091DA03F091DB038081442D02
S11304008111452DAE2CBF2C5ECF11241FBECFEF22
S1130410D1E2DEBFCDBF00E00CBF13E0A0E0B2E04C
S1130420E8E1FAE300E00BBF02C007900D92AE369C
S1130430B107D9F724E0AEE6B3E001C01D92A733BB
S1130440B207E1F70E94D40E0C940A1DD9CDCF93C4
S1130450DF931F921F92CDB7DEB7CE010196909322
S11304601A04809319040F900F90DF91CF9108958F
S113047067E272E083E00C9454110895E7E0F1E040
S113048080818F6080830895E8E0F1E09081907F1F
S1130490908390818F70982B90830895E8E0F1E029
S11304A08081807F80830895CF93DF93EC0149D7C7
S11304B0CE010E94E518EC010E94680A209711F40D
S11304C00E94BA0ECE01DF91CF910895CF93DF93AE
S11304D0009731F0EC0135D7CE010E947D19F8D791
S11304E0DF91CF910895FC010396928381832FEFCE
S11304F03FEF348323839683858390878783108299
S11305000895FC01118610860895CF93DF939C0112
S1130510FB01DC011196CD91DC911297D383C28348
S11305208C819D81958384838C819D81DC011396CC
S11305307C936E9312977D836C8331872087F901B6
S113054080818F5F8083DF91CF910895CF93DF9374
S1130550EB01488159814F3F2FEF520721F4FC01F1
S1130560A781B0850DC0DC01139601C0DF0112968E
S1130570ED91FC9113972081318142175307B0F715
S11305801296ED91FC911397FB83EA83D583C48380
S1130590BD83AC831396DC93CE9312979987888797
S11305A0FC0120812F5F2083DF91CF910895CF93A9
S11305B0DF93FC01A085B185C281D38184819581BB
S11305C09D838C83C481D581828193819B838A831B
S11305D011968D919C911297E817F90731F4848153
S11305E0958112969C938E931197118610868C9107
S11305F081508C938C91DF91CF91089531E1FC016E
S11306003083319722E220833197A3E3A08331978B
S113061060833197708331971082319710823197BC
S113062060E860833197108231971082319710828D
S1130630319762E06083319763E06083319764E0CF
S11306406083319765E06083319766E0608331971A
S113065067E06083319768E06083319769E0608385
S1130660319760E1608331973083319732E1308391
S1130670319733E13083319734E13083319735E179
S11306803083319736E13083319737E130833197C6
S113069038E13083319739E13083319730E2308368
S11306A0319731E2308331972083319723E22083DD
S11306B03197408331975083319726E220833197D5
S11306C027E22083319728E22083319729E220838F
S11306D0319720E32083319721E32083899708957C
S11306E0A89590EC88E10FB6F894A89580936000E3
S11306F00FBE90936000A091D203B091D303CD912B
S1130700CDBFDD91DEBFFF91EF91DF91CF91BF911E
S1130710AF919F918F917F916F915F914F913F9195
S11307202F911F910F91FF90EF90DF90CF90BF908A
S1130730AF909F908F907F906F905F904F903F907D
S11307402F901F900F900CBE0F900BBE0F900FBEFA
S11307500F90089581E008950F920FB6F8940F92C8
S11307600BB60F920CB60F921F9211242F923F9248
S11307704F925F926F927F928F929F92AF92BF92AD
S1130780CF92DF92EF92FF920F931F932F933F9399
S11307904F935F936F937F938F939F93AF93BF9385
S11307A0CF93DF93EF93FF93A091D203B091D30340
S11307B00DB60D920EB60D9215D7A091D203B0913D
S11307C0D303CD91CDBFDD91DEBFFF91EF91DF91DA
S11307D0CF91BF91AF919F918F917F916F915F91D5
S11307E04F913F912F911F910F91FF90EF90DF90C8
S11307F0CF90BF90AF909F908F907F906F905F90BD
S11308004F903F902F901F900F900CBE0F900BBEF7
S11308100F900FBE0F9008950F920FB6F8940F9299
S11308200BB60F920CB60F921F9211242F923F9287
S11308304F925F926F927F928F929F92AF92BF92EC
S1130840CF92DF92EF92FF920F931F932F933F93D8
S11308504F935F936F937F938F939F93AF93BF93C4
S1130860CF93DF93EF93FF93A091D203B091D3037F
S11308700DB60D920EB60D9213BE73D58111B2D67C
S1130880A091D203B091D303CD91CDBFDD91DEBF52
S1130890FF91EF91DF91CF91BF91AF919F918F9194
S11308A07F916F915F914F913F912F911F910F9184
S11308B0FF90EF90DF90CF90BF90AF909F908F907C
S11308C07F906F905F904F903F902F901F900F906C
S11308D00CBE0F900BBE0F900FBE0F9008959CDFBF
S11308E018950FB6F8940F92FC01928D0F900FBEDD
S11308F081E0911180E008950F931F93CF93DF93CC
S1130900EC01042F1A8D4C8D41110CC08881998102
S1130910892B09F042C08C819D810E94B50C1D82F7
S11309201C8242C0011117C050E08A819B810E9441
S11309300A1A2C8D8A819B81820F911D9B838A8345
S11309402C813D818217930750F1888199819B8383
S11309508A8380E029C050E08E819F810E940A1A18
S11309608C8D90E09195819591092E813F81280F7E
S1130970391F3F832E83488159812417350730F46A
S11309802C813D81820F931F9F838E83023049F413
S1130990112349F0115080E007C080E005C080E0D9
S11309A003C080E001C080E01F5F1A8FDF91CF9108
S11309B01F910F910895FC01448D4423A9F050E048
S11309C026813781240F351F3783268384819581BF
S11309D02817390720F08081918197838683CB0182
S11309E0668177810C940A1A0895EF92FF920F930F
S11309F01F93CF938C010FB6F8940F92FC01C68D10
S1130A001C169CF48189811106C00FC0F8018189EC
S1130A10811105C00AC07801F1E1EF0EF11CC70194
S1130A2098D681111ED7C15089F78FEFF801868FB0
S1130A300F900FBE0FB6F8940F92C58D1C169CF440
S1130A408085811106C00FC0F8018085811105C021
S1130A500AC07801F8E0EF0EF11CC7017AD68111C3
S1130A6000D7C15089F78FEFF801858F0F900FBE23
S1130A70CF911F910F91FF90EF900895CF93DF9343
S1130A80EC010FB6F8940F92E881F9818B8D2C8DCF
S1130A9090E030E0829FA001839F500D929F500D03
S1130AA011244E0F5F1F5D834C831A8EFB83EA83F0
S1130AB00197829FA001839F500D929F500D112496
S1130AC0CF01840F951F9F838E838FEF8D8F8E8F21
S1130AD061110AC08885882369F0CE01089639D649
S1130AE0882341F039DE06C0CE010896FCDCCE0135
S1130AF04196F9DC0F900FBE81E0DF91CF9108950C
S1130B00FF920F931F93CF93DF93082F162FF42E8A
S1130B106623B9F0869FC00111248196C5DCEC01DF
S1130B20009741F414C00B8F1C8F61E0CE01A6DF47
S1130B30F8A20DC0819699838883F5CFD983C883A1
S1130B40F2CF81E290E0B0DCEC01892BB9F7CE0161
S1130B50DF91CF911F910F91FF9008959F92AF92D3
S1130B60BF92CF92DF92EF92FF920F931F93CF9396
S1130B70DF9300D01F921F92CDB7DEB78C016B01BB
S1130B805D834C83A22EB12C992493947C0188E03C
S1130B90E80EF11C0FB6F8940F92F801928D838D34
S1130BA0981718F0F2E0AF1215C04A2DB601C8012B
S1130BB0A3DEF8019189992339F0C8014196C9D57A
S1130BC0882321F0C9DD02C08111C6DD0F900FBE5C
S1130BD081E045C08C819D81892B21F40F900FBE4B
S1130BE080E03DC0B11004C0CE010196FAD5B92C05
S1130BF00F900FBEA6D30FB6F8940F92F801858D0F
S1130C008F3F09F4158EF801868D8F3F09F4168EF7
S1130C100F900FBEBE016C5F7F4FCE010196ECD5E5
S1130C20811119C00FB6F8940F92F801928D838D3B
S1130C300F900FBE98130BC06C817D81C70160D5E6
S1130C40C801D3DE45D48111A5CF86DDA3CFC80169
S1130C50CCDE3ED49FCFC801C8DE3AD480E00F90EA
S1130C600F900F900F900F90DF91CF911F910F91E4
S1130C70FF90EF90DF90CF90BF90AF909F9008953A
S1130C80CF93DF93482F60E081E03ADFEC010097D7
S1130C9059F01D821C82198218821E8220E040E0D5
S1130CA050E060E070E05ADFCE01DF91CF9108950B
S1130CB0EF92FF920F931F93CF93DF938A01FC016E
S1130CC0528D338D531710F02230E1F4422F780106
S1130CD0EC011E8D11DE1F3F79F489898823A1F070
S1130CE0CE01419636D5882389F0E114F10481F0D0
S1130CF081E0F70180830DC0FF24F394F10EFE8E92
S1130D0081E007C080E005C081E003C081E001C04C
S1130D1081E0DF91CF911F910F91FF90EF900895A3
S1130D209F92AF92BF92CF92DF92EF92FF920F9376
S1130D301F93CF93DF9300D01F921F92CDB7DEB7DE
S1130D408C015B015D834C83E12C992493946C01A9
S1130D5081E1C80ED11C0FB6F8940F92F801F28C01
S1130D60FF2091F0B501C80126DEFA94F801F28E55
S1130D708085882329F0C8010896EBD48111ECDC26
S1130D800F900FBE81E044C08C819D81892B21F49A
S1130D900F900FBE80E03CC0E11004C0CE0101966C
S1130DA020D5E92C0F900FBECCD20FB6F8940F9239
S1130DB0F801858D8F3F09F4158EF801868D8F3FDC
S1130DC009F4168E0F900FBEBE016C5F7F4FCE01EB
S1130DD0019612D5811113C0C80183DD882359F00F
S1130DE06C817D81C6018CD4C801FFDD71D3811172
S1130DF0B2CFB2DCB0CFC801F8DD6AD3ACCFC80142
S1130E00F4DD66D3C8016DDD882309F4A4CF80E046
S1130E100F900F900F900F900F90DF91CF911F9133
S1130E200F91FF90EF90DF90CF90BF90AF909F9085
S1130E300895BF92CF92DF92EF92FF920F931F9388
S1130E40CF93DF9300D01F921F92CDB7DEB78C01F2
S1130E507D836C83B12CD12CCC24C3947C0181E19F
S1130E60E80EF11C0FB6F8940F92D8015A968C91A3
S1130E705A978823D1F081505A968C935A978D9122
S1130E809C91892B21F401D6F80195838483D801A0
S1130E9018968C91882329F0C80108965AD4811198
S1130EA05BDC0F900FBE81E070C08C819D81892B2B
S1130EB021F40F900FBE80E068C0D11004C0CE01B1
S1130EC001968FD4DC2C0F900FBE3BD20FB6F89452
S1130ED00F92F801858D8F3F09F4158ED8015E9627
S1130EE08C915E978F3F11F45E961C920F900FBE0B
S1130EF0BE016C5F7F4FCE0101967ED4811121C06B
S1130F00C801EFDC8823C9F0F80180819181892B25
S1130F1049F40FB6F8940F9284819581B4D4B82E15
S1130F200F900FBE6C817D81C701EAD3C8015DDDDE
S1130F30CFD2811197CF10DC95CFC80156DDC8D22E
S1130F4091CFC80152DDC4D2C801CBDC882309F497
S1130F5089CFBB20C9F00FB6F8940F92F8018189AC
S1130F60882339F00688F789E02D808164E0681BC6
S1130F7001C060E0D80114968D919C91159735D5E8
S1130F800F900FBE80E001C080E00F900F900F9093
S1130F900F900F90DF91CF911F910F91FF90EF90E1
S1130FA0DF90CF90BF900895CF93DF93EC010FB6FD
S1130FB0F8940F928D8D8F3F09F41D8E8E8D8F3F87
S1130FC009F41E8E0F900FBE8A8D811103C0CE01CD
S1130FD04196A7D3CE0109DDDF91CF910895E09129
S1130FE09A03F0919B038081811107C08FEF9FEFDB
S1130FF090937203809371030895E0919A03F091A2
S11310009B030580F681E02D0680F781E02D828127
S1131010938190937203809371030895FF920F93C9
S11310201F93CF93DF93EC01F62E00917903109177
S11310307A038091D2039091D3030296B8DACF3F1A
S11310408FEFD80761F4FF2051F06091D2037091C3
S1131050D3036E5F7F4F8CE793E057DA2DC0C00F48
S1131060D11FE091D203F091D303D383C283C0177D
S1131070D10760F46091D2037091D30380919803F7
S1131080909199036E5F7F4F61DA16C06091D2032D
S11310907091D30380919A0390919B036E5F7F4F6D
S11310A055DA8091710390917203C817D90720F41F
S11310B0D0937203C0937103DF91CF911F910F916D
S11310C0FF9008954F925F926F927F928F929F92BA
S11310D0AF92BF92CF92DF92EF92FF920F93CF9392
S11310E0DF934C016B015A012901CA01DDD93C018E
S11310F0892B09F4E4C08CE290E0D6D9EC01892B69
S113110099F0788E6F8AA50165EA70E0C3010E94A8
S1131110131A81E0A81AB1088F89988DA80EB91EF8
S1131120C114D10421F41FC0C301D0D9C8C0D60151
S11311308C91898F8C918823A1F0AE01465E5F4F1C
S1131140F6013196B8E0CB0ED11CCF012191DA0122
S11311502D93AD01DC018C91882319F0EC15FD056C
S1131160A1F718A201C0198E043008F003E00E8B19
S11311700BA31CA26E01B2E0CB0ED11CC601C1D9D7
S1131180CE010C96BED9D987C88784E090E0801B35
S113119091099D878C87DB8BCA8B1EA21DA21FA27F
S11311A018A619A61AA61BA6A201B401C50126DA1F
S11311B099838883E114F10419F0F701D183C08382
S11311C00FB6F8940F9280917B038F5F80937B031B
S11311D08091D2039091D303892B89F5D093D303C3
S11311E0C093D20380917B03813009F038C08EEA2A
S11311F093E079D987EB93E076D980EC93E073D9C7
S113120089EC93E070D985EA93E06DD98CE993E099
S11312106AD98FE893E067D986E893E064D98CE7CC
S113122093E061D985EA93E090939B0380939A03BA
S11312308CE993E0909399038093980310C0809174
S1131240770381110CC0E091D203F091D303968906
S11312508E89891720F0D093D303C093D203809151
S113126073038F5F8093730389A38E8990917803AE
S1131270981710F48093780390E09C01220F331F99
S1131280220F331F220F331F820F931FB601825583
S11312909C4F3BD90F900FBE80917703882359F060
S11312A0E091D203F091D30396898E89981728F49C
S11312B053DA81E005C081E003C081E001C08FEF13
S11312C0DF91CF910F91FF90EF90DF90CF90BF907F
S11312D0AF909F908F907F906F905F904F90089504
S11312E0EF92FF920F930F2EFFE6EF2EF3E0FF2E07
S11312F0F02D00E020E030E040EC50E061E272E0EC
S11313008DEC90E0DFDE8130C1F429D48130A9F482
S1131310F8948FEF9FEF909372038093710381E0B1
S11313208093770310927A0310927903E091D203A9
S1131330F091D30385A1A8D8D3D90F91FF90EF9052
S1131340089580916E038F5F80936E0308950FB6A6
S1131350F8940F928091790390917A030F900FBEC5
S11313600895CF92DF92EF92FF920F931F93CF9342
S1131370DF9380916E03811195C0E0907903F09022
S11313807A038FEFE81AF80AF0927A03E09279036D
S1131390E114F104B1F480919A0390919B0320919C
S11313A098033091990330939B0320939A0390936D
S11313B0990380939803809174038F5F80937403DF
S11313C00EDE8091710390917203E816F90610F411
S11313D0D12C50C0D12CCC24C394E0919A03F09129
S11313E09B038081811107C08FEF9FEF909372035D
S11313F0809371033FC0E0919A03F0919B030580B1
S1131400F681E02DC681D7818A819B81E816F90691
S113141028F490937203809371032CC08E010E5FA5
S11314201F4FC801C4D88C899D89892B19F0CE011E
S11314300C96BDD88E8990917803981710F48093F8
S1131440780390E09C01220F331F220F331F220FD9
S1131450331F820F931FB80182559C4F56D8E091D9
S1131460D203F091D3039E898689981708F4B5CFE7
S1131470DC2CB3CFE091D203F091D303868990E0C2
S1131480FC01EE0FFF1FEE0FFF1FEE0FFF1F8E0F6D
S11314909F1FFC01E255FC4F8081823048F0DD241F
S11314A0D39406C0809176038F5F80937603D12C0A
S11314B080917503882311F0DD24D3948D2DDF9161
S11314C0CF911F910F91FF90EF90DF90CF900895EF
S11314D0DF92EF92FF920F931F93CF93DF930FB698
S11314E0F8940F9280916E03815080936E038091E3
S11314F06E0381115AC080917B03811131C058C0A1
S1131500D7011596ED91FC911697C681D781CE012E
S11315100C964DD88E010E5F1F4FC80148D88E8996
S113152090917803981710F48093780390E09C01CD
S1131530220F331F220F331F220F331F820F931FDB
S1131540B80182559C4F0E948502E091D203F0912C
S1131550D3039E898689981768F0D09275030AC0D0
S1131560C0E0D0E00F2EFFE8EF2EF3E0FF2EF02DC9
S1131570DD24D394F70180818111C2CFCD2B09F0F2
S11315802EDDC0917603CC2349F0D1E0EADE81114F
S1131590D0937503C150D1F71092760380917503EF
S11315A0882329F0D9D881E003C080E001C080E01D
S11315B00F900FBEDF91CF911F910F91FF90EF908D
S11315C0DF900895CF93DF93EC01892B39F0B9DED6
S11315D060E0CE0123DD7CDF811101C0BDD8DF9145
S11315E0CF91089580916E03882321F081E0809348
S11315F07503089510927503E091D203F091D3031B
S113160085A10E944E02A091D203B091D303E09130
S1131610D203F091D3032D913C918789908D821749
S1131620930758F06091D2037091D3038091D20351
S11316309091D303675E7F4FAAD320917803822FC2
S113164090E0FC01EE0FFF1FEE0FFF1FEE0FFF1FD8
S1131650E80FF91FE255FC4F3081311111C02150C0
S1131660822F90E0FC01EE0FFF1FEE0FFF1FEE0F25
S1131670FF1FE80FF91FE255FC4F3081332379F344
S1131680AC01440F551F440F551F440F551F480FFD
S1131690591FDA01A255BC4F1196ED91FC91129796
S11316A00280F381E02D1296FC93EE9311974F5430
S11316B05C4FE417F50729F442815381FD015283FD
S11316C04183FC01EE0FFF1FEE0FFF1FEE0FFF1F04
S11316D08E0F9F1FFC01E255FC4F0180F281E02D2B
S11316E0868197819093D3038093D20320937803C8
S11316F0E091D203F091D30385A10C9444020895A0
S1131700CF93DF93EB016091D2037091D303645FB5
S11317107F4F0E94A60261E0CE0180DCDF91CF9171
S113172008950F931F93CF938B01C42F6091D2031D
S11317307091D303645F7F4F0E948502CC2311F024
S11317400FEF1FEF6C2FC80169DCCF911F910F9130
S113175008950F931F93CF93DF93DC011596ED91BA
S1131760FC911697C681D7818E01045F1F4FC80173
S11317700E94D70280916E0381111CC00A50110986
S1131780C8010E94D7028E8990917803981710F4AB
S11317908093780390E09C01220F331F220F331FA4
S11317A0220F331F820F931FB80182559C4F0E9452
S11317B0850205C0B8018FE893E00E948502E0919C
S11317C0D203F091D3039E898689891720F481E09E
S11317D08093750301C080E0DF91CF911F910F9139
S11317E0089520917403FC012083209179033091A2
S11317F07A03328321830895CF93DF930FB6F8944D
S11318000F922091790330917A03DB014D915C9121
S11318104F3FBFEF5B07E9F0EC01E981FA81A0914A
S11318207403B881BA1719F02E173F07A0F42E1BC2
S11318303F0B2417350740F4FB01421B530B518324
S11318404083CFDF80E008C0FB011182108281E079
S113185003C080E001C081E00F900FBEDF91CF9103
S1131860089581E080937503089580917703882318
S113187031F080916E03882321F080E0089581E0A7
S1131880089582E008950F931F93CF93DF93FC0193
S1131890892B09F464C02689A091D203B091D303A3
S11318A056968C91281708F04EC084859585992307
S11318B064F0A091D203B091D30356963C9184E096
S11318C090E0831B91099587848730E0C901880FD4
S11318D0991F880F991F880F991F280F391F2255A8
S11318E03C4F828593858217930721F58F01EF0181
S11318F02296CE010E94D702E091D203F091D30345
S11319008689F801868B90917803981710F4809358
S1131910780390E09C01220F331F220F331F220F04
S1131920331F820F931FBE0182559C4F0E94850274
S113193081E016C0A091D203B091D30356968C9146
S1131940868B81E00DC0A091D203B091D30381E0D6
S113195023A156969C91291718F080E001C080E0DD
S1131960DF91CF911F910F9108950F931F93CF9300
S1131970DF93FC01892B79F184A1815084A326890A
S113198093A1291751F181112AC0EF018F010E5F34
S11319901F4FC8010E94D7028BA18E8B24E030E038
S11319A0281B31093D872C8790917803981710F4F0
S11319B08093780390E09C01220F331F220F331F82
S11319C0220F331F820F931FB80182559C4F0E9430
S11319D0850281E005C080E003C080E001C080E0B2
S11319E0DF91CF911F910F9108950F931F93CF9380
S11319F0DF93FC01892B09F443C093A1961708F4E3
S1131A00962F86898917E1F124A12130C9F5968B97
S1131A1024853585332334F024E030E0291B310953
S1131A203587248790E09C01220F331F220F331F38
S1131A30220F331F820F931F82559C4F22853385BB
S1131A4028173907E9F4EF018F010E5F1F4FC80112
S1131A500E94D7028E8990917803981710F480938E
S1131A60780390E09C01220F331F220F331F220FB3
S1131A70331F820F931FB80182559C4F0E94850229
S1131A80DF91CF911F910F9108958091D20390918E
S1131A90D303892B39F0E091D203F091D30384A1CD
S1131AA08F5F84A38091D2039091D3030895FC01A6
S1131AB073836283918780874617570790F0421B90
S1131AC0530B8485958548175907E0F4BF016E5F71
S1131AD07F4F8091DA039091DB030E94A60280E09D
S1131AE008954217530718F46217730768F4BF0187
S1131AF06E5F7F4F8091DC039091DD030E94A6020C
S1131B0080E0089581E0089581E008950FB6F89487
S1131B100F928091D8039091D903892BE9F487EE31
S1131B2093E00E9473028EED93E00E94730287EEAD
S1131B3093E09093DD038093DC038EED93E0909328
S1131B40DB038093DA0340E065E08AE00E948005CD
S1131B509093D9038093D8030F900FBE0895EF920A
S1131B60FF920F93D3DF8091D8039091D903892BEF
S1131B7089F00F2EF6EDEF2EF3E0FF2EF02D03E0AB
S1131B8020E030E045E550E066E272E083E091E079
S1131B9099DA01C080E00F91FF90EF9008958F9241
S1131BA09F92AF92BF92CF92DF92FF920F931F93B7
S1131BB0CF93DF934C015B01F42E690184E190E043
S1131BC00E945402EC01892B99F01B8A9FDF9982B1
S1131BD08882BD86AC86DF86CE86198B088BCE01C3
S1131BE002960E948102FF2019F08B8984608B8BFE
S1131BF0CE01DF91CF911F910F91FF90DF90CF9095
S1131C00BF90AF909F908F9008950F931F93CF93A1
S1131C10DF9300D01F921F92CDB7DEB7E091D803B7
S1131C20F091D903309761F1D90169835B834A83C9
S1131C309D838C836630E4F418DE823061F420E006
S1131C40A801BE016F5F7F4F8091D8039091D903A3
S1131C500E94AE0516C020E040E050E0BE016F5F78
S1131C607F4F8091D8039091D9030E94AE0509C09B
S1131C7020E0AD01BE016F5F7F4FCF0119D801C0D5
S1131C8080E00F900F900F900F900F90DF91CF9105
S1131C901F910F910895AF92BF92CF92DF92EF926E
S1131CA0FF920F931F93CF93DF936C0150DB7C0162
S1131CB08091D4039091D503E816F90608F047C043
S1131CC02FC00580F681E02DA080B180C681D78128
S1131CD08E010E5F1F4FC8010E94D702E889F9895F
S1131CE0CE0119958B8982FF1BC08C859D858A0D39
S1131CF09B1DA816B90660F49B838A83D987C8877D
S1131D00B8018091DC039091DD030E94A60208C013
S1131D1000E010E020E030E0A50160E0CE0175DFD6
S1131D20E091DC03F091DD0380818111CACF8091C1
S1131D30DA039091DB039093DD038093DC03F0934B
S1131D40DB03E093DA0381E0F601808302C0F6014D
S1131D501082F092D503E092D403C701DF91CF91B2
S1131D601F910F91FF90EF90DF90CF90BF90AF90B5
S1131D7008950895279A2F9A2FEF80E792E0215033
S1131D8080409040E1F700C000001F9AF5CF279AE9
S1131D902F9A2FEF87EA91E6215080409040E1F797
S1131DA000C000001F9AF5CF81B1816881B90E94FB
S1131DB03E0280E0F4D513D0E5D00E94380211D160
S1131DC070D0C5DA00E010E020E030E0AC0161E062
S1131DD080912B0490912C0418DF82DAFFCF80913C
S1131DE01B0490911C04892B39F481E00E94400665
S1131DF090931C0480931B048091270490912804E1
S1131E00892B39F481E00E94400690932804809342
S1131E1027048091290490912A04892B39F481E0C4
S1131E200E94400690932A048093290408950EE2A8
S1131E3012E0C0E4D2E06FEF7FEF8091270490912D
S1131E4028040E9419078130B1F78AEF90E0BADBC9
S1131E50D5D028D19F938F931F930F930E941A1A62
S1131E6086E090E0AFDB20D19F938F93DF93CF93F5
S1131E700E941A1A86E090E0A5DB20E040E050E0E2
S1131E8060E070E080912704909128040E94AE05E0
S1131E908DB79EB708960FB6F8949EBF0FBE8DBF40
S1131EA0CACFEF92FF920F930F2EF1E2EF2EF4E0E0
S1131EB0FF2EF02D02E021E030E040EC50E061E53F
S1131EC072E087E19FE0FED80F91FF90EF900895B4
S1131ED08AE792E09F938F930E941A1A20E040E0D1
S1131EE050E060E070E080911B0490911C040E941B
S1131EF0AE050F900F90813041F080E992E09F93FE
S1131F008F930E941A1A0F900F9008958EE992E011
S1131F109F938F930E941A1A20E040E050E060E003
S1131F2070E080912704909128040E94AE050F90E0
S1131F300F90813041F080E992E09F938F930E944B
S1131F401A1A0F900F90089588EB92E09F938F9345
S1131F500E941A1A20E040E050E060E070E08091B6
S1131F60290490912A040E94AE050F900F908130AD
S1131F7041F080E992E09F938F930E941A1A0F9088
S1131F800F9008950F931F9308E61FE020E030E0C0
S1131F9041E06DE770E080ED92E001DE909326046D
S1131FA08093250406E81FE021E030E041E06BEB7C
S1131FB070E08AED92E0F3DD90932C0480932B047F
S1131FC004EA1FE022E030E041E06BEB70E089EED0
S1131FD092E0E5DD9093200480931F041F910F91FC
S1131FE0089591D090E09093F1038093F003892BAE
S1131FF021F484EF92E00C942D1A0895CF938091EC
S1132000F1038F938091F0038F938DE093E09F937E
S11320108F930E941A1A8EE390E0D4DA8BD0C82FE3
S11320200F900F900F900F90882361F01F928F9361
S11320308FE193E09F938F930E941A1A0F900F9051
S11320400F900F901F92CF938CE393E09F938F9305
S11320500E941A1A83E090E0B5DA80D0C82F0F905E
S11320600F900F900F90882361F01F928F938FE44D
S113207093E09F938F930E941A1A0F900F900F90E2
S11320800F901F92CF938CE393E09F938F930E94C2
S11320901A1A8EE390E096DA0F900F900F900F903B
S11320A0CF9108959DC008957BC008956530F1F4E3
S11320B0FA0180818F7390E0982F88272181822BE9
S11320C090930902809308028281F0E48F9FC001FB
S11320D01124FA01238126952695822B90930702D9
S11320E08093060281E08093F2030895643051F0F6
S11320F080E090E490930702809306029093090293
S11321008093080208950F931F9306E510E120E0E1
S113211034E244EF50E060E087E27BD49093F40330
S11321208093F30321E0892B09F020E0822F1F9193
S11321300F9108958091F3039091F403009751F067
S113214040E060E070E0B6D4843031F41092F203E1
S113215080E0089582E0089583E008958091F30378
S11321609091F403009731F064E0F0D4853021F0CD
S113217083E0089582E0089580E008956091080264
S11321807091090280E090E0EBD620E030E048EC6A
S113219052E474D720E038EF4FE756E448C6089578
S11321A0EDDF20E030E040E251E468D7ADD6CB016A
S11321B00895609106027091070280E090E0D0D605
S11321C020E030E045E253E459D720E038EF4FE710
S11321D056E42DD620E030E040E252E4C3C5089531
S11321E0E8DF20E030E040E251E448D788D6CB0174
S11321F008958091F803860F8093F8039091FB0370
S1132200913079F028F09230A9F0933019F10895C3
S11322106F3F09F048C01092F80381E08093FB03FC
S11322200895663809F03FC01092F70382E0809366
S1132230FB030895E091F70381E08E0F8093F70389
S1132240F0E0EB50FC4F6083823069F583E08093CB
S1132250FB0308959091F70321E0290F2093F703DE
S1132260963009F581110EC0E5EFF3E0808190E02E
S1132270982F88272181820F911D9093FD038093CD
S1132280FC0304C01092FD031092FC031092FB03A4
S1132290E091F903F091FA03309729F08091FC035F
S11322A09091FD03199508958F929F92AF92CF92CA
S11322B0EF920F93CF93DF93EB010F2EF9EF8F2E55
S11322C0F0E19F2EF02D6894AA24A4F86894CC24FD
S11322D0C4F8E12C00E023E040E855E260E070E05F
S11322E011D09093FF038093FE03D093FA03C0931D
S11322F0F903DF91CF910F91EF90CF90AF909F9022
S11323008F9008952F923F924F925F926F927F9297
S11323108F929F92AF92CF92EF92FF920F931F935F
S1132320CF93DF93CDB7DEB7F82E2A013B0188E0C7
S113233090E04BD78C018F2D90E0880F991FFC0102
S1132340E050FC4F11830083FC01E65FFD4F808168
S11323509181D8018D939C936C2D70E084E090E082
S11323601AD71C0161E070E086E090E014D77C018C
S11323704C2DB101DBD4F801F582E4826A2D70E0C2
S113238084E090E008D71C0161E070E086E090E012
S113239002D77C014A2DB101C9D4D8011396FC920D
S11323A0EE92129717969C928E921697FFB6F89417
S11323B0ED91FC91119736978081826080838D9096
S11323C09C90C301B201CCD520E030E040E051E460
S11323D055D69B01AC0160E074E284E79BE427D509
S11323E020E030E040E85FE3BDD48ED5F4013297BD
S11323F06083D801ED91FC911197359788E980832A
S1132400ED91FC91349786E08083FFBEC801DF9193
S1132410CF911F910F91FF90EF90CF90AF909F902D
S11324208F907F906F905F904F903F902F90089582
S1132430CF93DF93EC01EA81FB8193818281258133
S1132440981B922384819817A1F0938126952923C0
S1132450A081B181A20FB11D6C939F5F258192234E
S11324609383E881F981359780818062808380E05D
S113247001C082E0DF91CF910895DC011496ED91C3
S1132480FC91159793818281981789F092818581B7
S113249086958923A081B181A80FB11D8C91DB01A0
S11324A08C939F5F85819823928380E0089583E0D5
S11324B008951F920F920FB60F9211240BB60F922C
S11324C02F933F934F935F936F937F938F939F9338
S11324D0AF93BF93CF93DF93EF93FF93A091000447
S11324E0B0910104109711F16091C6001496ED911A
S11324F0FC911597938182812581981B9223848175
S1132500981761F0838126952823C081D181C20F59
S1132510D11D68838F5F9581892383831696ED91FE
S1132520FC911797309711F0CD011995FF91EF9118
S1132530DF91CF91BF91AF919F918F917F916F91D7
S11325405F914F913F912F910F900BBE0F900FBE53
S11325500F901F9018951F920F920FB60F9211248F
S11325600BB60F922F938F939F93AF93BF93EF93D9
S1132570FF93E0910004F09101043097B9F00280D8
S1132580F381E02D938182819817B1F09281858146
S1132590282F26952923A081B181A20FB11D2C914A
S11325A09F5F892382832093C6000BC0E1ECF0E097
S11325B080818F7D808305C0E1ECF0E080818F7D98
S11325C08083FF91EF91BF91AF919F918F912F9154
S11325D00F900BBE0F900FBE0F901F9018951F9277
S11325E00F920FB60F9211240BB60F922F933F93B5
S11325F04F935F936F937F938F939F93AF93BF9307
S1132600CF93DF93EF93FF93A0910204B09103045F
S1132610109711F16091CE001496ED91FC911597ED
S1132620938182812581981B92238481981761F07C
S1132630838126952823C081D181C20FD11D68834F
S11326408F5F9581892383831696ED91FC9117976B
S1132650309711F0CD011995FF91EF91DF91CF9152
S1132660BF91AF919F918F917F916F915F914F91A6
S11326703F912F910F900BBE0F900FBE0F901F90A4
S113268018951F920F920FB60F9211240BB60F924A
S11326902F938F939F93AF93BF93EF93FF93E09107
S11326A00204F09103043097B9F00280F381E02D25
S11326B0938182819817B1F092818581282F269584
S11326C02923A081B181A20FB11D2C919F5F892381
S11326D082832093CE000BC0E9ECF0E080818F7DF3
S11326E0808305C0E9ECF0E080818F7D8083FF91D9
S11326F0EF91BF91AF919F918F912F910F900BBE4E
S11327000F900FBE0F901F9018951F920F920FB647
S11327100F9211240BB60F922F933F934F935F9315
S11327206F937F938F939F93AF93BF93CF93DF93D5
S1132730EF93FF93A0910404B0910504109711F155
S11327406091D6001496ED91FC9115979381828146
S11327502581981B92238481981761F083812695A3
S11327602823C081D181C20FD11D68838F5F9581D9
S1132770892383831696ED91FC911797309711F076
S1132780CD011995FF91EF91DF91CF91BF91AF9159
S11327909F918F917F916F915F914F913F912F9175
S11327A00F900BBE0F900FBE0F901F9018951F92A5
S11327B00F920FB60F9211240BB60F922F938F9393
S11327C09F93AF93BF93EF93FF93E0910404F09131
S11327D005043097B9F00280F381E02D9381828162
S11327E09817B1F092818581282F26952923A081FD
S11327F0B181A20FB11D2C919F5F89238283209305
S1132800D6000BC0E1EDF0E080818F7D808305C0B0
S1132810E1EDF0E080818F7D8083FF91EF91BF91A6
S1132820AF919F918F912F910F900BBE0F900FBE80
S11328300F901F9018951F920F920FB60F921124AC
S11328400BB60F922F933F934F935F936F937F93A6
S11328508F939F93AF93BF93CF93DF93EF93FF93A4
S1132860A0910604B0910704109711F1609136010C
S11328701496ED91FC911597938182812581981B83
S113288092238481981761F0838126952823C0813F
S1132890D181C20FD11D68838F5F95818923838382
S11328A01696ED91FC911797309711F0CD0119957B
S11328B0FF91EF91DF91CF91BF91AF919F918F9154
S11328C07F916F915F914F913F912F910F900BBE2C
S11328D00F900FBE0F901F9018951F920F920FB676
S11328E00F9211240BB60F922F938F939F93AF9354
S11328F0BF93EF93FF93E0910604F09107043097A0
S1132900B9F00280F381E02D938182819817B1F0B0
S113291092818581282F26952923A081B181A20F38
S1132920B11D2C919F5F89238283209336010BC0B4
S1132930E1E3F1E080818F7D808305C0E1E3F1E094
S113294080818F7D8083FF91EF91BF91AF919F91A3
S11329508F912F910F900BBE0F900FBE0F901F9071
S11329601895CF93DF931F92CDB7DEB7BE016F5F8B
S11329707F4F80910804909109047FDD8111F6CF87
S1132980898190E00F90DF91CF910895682F809115
S11329900804909109044CDD80E090E008958F9242
S11329A09F92AF92CF92EF920F93812C912C6894C7
S11329B0AA24A7F86894CC24C7F8E12C00E023E00B
S11329C040E051EE60E070E09DDC90930904809358
S11329D00804E1E3F4E082E192E09183808393834D
S11329E082830F91EF90CF90AF909F908F90089536
S11329F08091180481110CC08CE08093B8008FEF93
S1132A008093BB0084E08093BC0081E08093180431
S1132A100895AF92BF92CF92DF92EF92FF920F93FD
S1132A201F93CF93DF93A82EB62E69017A0184E019
S1132A3090E0CBD3EC01892B61F1A88281E0B8123C
S1132A4012C0C701B60120EA36E841E050E079D36C
S1132A50DA01C9014097A109B109B695A7959795DF
S1132A608795898311C0C701B60120E83AE146E0A1
S1132A7050E067D3DA01C9014097A109B109B695BD
S1132A80A7959795879589831B830A838C2F9D2F00
S1132A9002C080E090E0DF91CF911F910F91FF90F1
S1132AA0EF90DF90CF90BF90AF9008958091BC00DD
S1132AB081700895FF920F931F93CF93DF93009734
S1132AC0D1F14A30D0F5F42E8B01EC01EFDF811106
S1132AD036C080910B0490910C04C817D90741F0BB
S1132AE087DF89818093B800D0930C04C0930B04D2
S1132AF081E08F0D80930D048881880F80930E04EC
S1132B00FF2089F0F801AFE0B4E04FEF4F0D642FE0
S1132B1070E0CB010196B801680F791F81918D9304
S1132B20E617F707D9F788EF8093200285EA8093A8
S1132B30BC0084E005C086E003C087E001C082E0F9
S1132B40DF91CF911F910F91FF9008951F93CF9321
S1132B50DF93009729F16B3028F5162FEC01A6DFDF
S1132B60811122C080910B0490910C04C817D907DD
S1132B7041F03EDF89818093B800D0930C04C09368
S1132B800B0410930D048881880F816080930E04D8
S1132B9088EF8093200285EA8093BC0085E005C01D
S1132BA086E003C087E001C082E0DF91CF911F91EE
S1132BB008951F920F920FB60F9211240BB60F9225
S1132BC02F933F934F935F936F937F938F939F9331
S1132BD0AF93BF93EF93FF93E091B9008E2F90E0F2
S1132BE0FC013897E135F10508F075C08827E458F1
S1132BF0FF4F8F4FC8C210920A04E0910A048091DB
S1132C000D04E81770F481E08E0F80930A04F0E05D
S1132C10E25FFB4F80818093BB0085E88093BC001A
S1132C2072C084E98093BC0080910B0490910C04E1
S1132C30DC011296ED91FC911397309709F463C06F
S1132C4020E040E050E064E019955DC0E0910A04A2
S1132C5081E08E0F80930A048091BB00F0E0E25F74
S1132C60FB4F80838091B900803411F410920A04E0
S1132C7020910A0430E080910D0490E00197281718
S1132C80390724F485EC8093BC003DC085E880932B
S1132C90BC0039C08091BB00E0910A04F0E0E25F1F
S1132CA0FB4F808384E98093BC0080910B04909156
S1132CB00C04DC011296ED91FC911397309719F1F5
S1132CC020910D044EE054E065E019951CC085EA9E
S1132CD08093BC0018C08091B9008093200284E0E6
S1132CE08093BC0080910B0490910C04DC0112963B
S1132CF0ED91FC911397309731F020E040E050E0E3
S1132D00609120021995FF91EF91BF91AF919F912E
S1132D108F917F916F915F914F913F912F910F9080
S1132D200BBE0F900FBE0F901F901895FC01411120
S1132D3001C06CD3842F90E09C012150310982237F
S1132D409323892B09F062D3413808F05FD31282B0
S1132D5013824483440F415045837183608380E030
S1132D6090E008955058BB27AA270ED04DC13ED1FC
S1132D7030F043D120F031F49F3F11F41EF433C1FD
S1132D800EF4E095E7FB29C1E92F4FD180F3BA1780
S1132D90620773078407950718F071F49EF567C1FD
S1132DA00EF4E0950B2EBA2FA02D0B01B901900162
S1132DB00C01CA01A0011124FF27591B99F0593FA6
S1132DC050F4503E68F11A16F040A22F232F342FEE
S1132DD04427585FF3CF469537952795A795F0403C
S1132DE05395C9F77EF41F16BA0B620B730B840B51
S1132DF0BAF09150A1F0FF0FBB1F661F771F881F09
S1132E00C2F70EC0BA0F621F731F841F48F4879560
S1132E1077956795B795F7959E3F08F0B3CF93954F
S1132E20880F08F09927EE0F9795879508950CD091
S1132E30EBC0E3D040F0DAD030F021F45F3F19F07A
S1132E40CCC0511115C1CFC0F0D098F39923C9F368
S1132E505523B1F3951B550BBB27AA27621773079C
S1132E60840738F09F5F5F4F220F331F441FAA1F50
S1132E70A9F333D00E2E3AF0E0E830D09150504010
S1132E80E695001CCAF729D0FE2F27D0660F771FBE
S1132E90881FBB1F261737074807AB07B0E809F0A0
S1132EA0BB0B802DBF01FF2793585F4F2AF09E3F35
S1132EB0510568F092C0DCC05F3FECF3983EDCF350
S1132EC0869577956795B795F7959F5FC9F7880FAE
S1132ED0911D9695879597F90895E1E0660F771F00
S1132EE0881FBB1F621773078407BA0720F0621B91
S1132EF0730B840BBA0BEE1F88F7E095089504D08A
S1132F006894B111B5C0089598D088F09F5790F097
S1132F10B92F9927B751A0F0D1F0660F771F881FFA
S1132F20991F1AF0BA95C9F712C0B13081F09FD039
S1132F30B1E008959CC0672F782F8827B85F39F0D7
S1132F40B93FCCF3869577956795B395D9F73EF459
S1132F5090958095709561957F4F8F4F9F4F089501
S1132F60E89409C097FB3EF490958095709561951F
S1132F707F4F8F4F9F4F9923A9F0F92F96E9BB27D5
S1132F809395F695879577956795B795F111F8CF51
S1132F90FAF4BB0F11F460FF1BC06F5F7F4F8F4FBC
S1132FA09F4F16C0882311F096E911C0772321F0B2
S1132FB09EE8872F762F05C0662371F096E8862F4A
S1132FC070E060E02AF09A95660F771F881FDAF7A1
S1132FD0880F9695879597F9089597F99F6780E8E4
S1132FE070E060E008959FEF80EC089500240A9457
S1132FF01616170618060906089500240A941216D0
S11330001306140605060895092E0394000C11F402
S1133010882352F0BB0F40F4BF2B11F460FF04C0AF
S11330206F5F7F4F8F4F9F4F089557FD9058440F08
S1133030551F59F05F3F71F04795880F97FB991F13
S113304061F09F3F79F087950895121613061406D0
S1133050551FF2CF4695F1DF08C01616170618065D
S1133060991FF1CF86957105610508940895E89438
S1133070BB2766277727CB0197F908950BD0C4CFD8
S1133080B5DF28F0BADF18F0952309F0A6CFABCF4F
S11330901124EECFCADFA0F3959FD1F3950F50E032
S11330A0551F629FF001729FBB27F00DB11D639FF6
S11330B0AA27F00DB11DAA1F649F6627B00DA11D9C
S11330C0661F829F2227B00DA11D621F739FB00D42
S11330D0A11D621F839FA00D611D221F749F3327B2
S11330E0A00D611D231F849F600D211D822F762F4B
S11330F06A2F11249F5750408AF0E1F088234AF048
S1133100EE0FFF1FBB1F661F771F881F9150504093
S1133110A9F79E3F510570F060CFAACF5F3FECF353
S1133120983EDCF3869577956795B795F795E7957F
S11331309F5FC1F7FE2B880F911D9695879597F990
S11331400895A1E21A2EAA1BBB1BFD010DC0AA1FE4
S1133150BB1FEE1FFF1FA217B307E407F50720F0FC
S1133160A21BB30BE40BF50B661F771F881F991F77
S11331701A9469F760957095809590959B01AC01C0
S1133180BD01CF010895EE0FFF1F881F8BBF07906D
S1133190F691E02D19940F931F93CF93DF93869F9D
S11331A08001879F100D969F100D1124C8010DD02A
S11331B0EC01009721F0A80160E070E034D1CE0169
S11331C0DF91CF911F910F9108950F931F93CF9388
S11331D0DF938230910510F482E090E0E0912F04B7
S11331E0F091300420E030E0A0E0B0E0309719F135
S11331F0408151810281138148175907C8F084170F
S1133200950769F4109731F012960C931297139660
S11332101C9327C000932F041093300422C021155F
S1133220310519F04217530718F49A01BD01EF0153
S1133230DF01F801DBCF21153105F9F0281B390B2B
S11332402430310580F48A819B816115710521F058
S1133250FB019383828304C09093300480932F04F2
S1133260FE01329644C0FE01E20FF31F8193919355
S113327022503109398328833AC020912D0430919A
S11332802E04232B41F42091020230910302309347
S11332902E0420932D042091000230910102211567
S11332A0310541F42DB73EB7409104025091050217
S11332B0241B350BE0912D04F0912E04E217F30743
S11332C0A0F42E1B3F0B2817390778F0AC014E5F92
S11332D05F4F2417350748F04E0F5F1F50932E049D
S11332E040932D048193919302C0E0E0F0E0CF017C
S11332F0DF91CF911F910F910895CF93DF930097A2
S113330009F481C0FC01329713821282A0912F0428
S1133310B0913004109781F420813181820F931F82
S113332020912D0430912E042817390751F5F0937C
S11333302E04E0932D0467C0ED0120E030E0CE17A9
S1133340DF0740F44A815B819E0141155105F1F08C
S1133350EA01F5CFD383C28340815181840F951F45
S1133360C817D90759F488819981840F951F02964B
S1133370918380838A819B81938382832115310584
S113338029F4F0933004E0932F043DC0E901FB835A
S1133390EA8349915991C40FD51FEC17FD0761F4D5
S11333A080819181840F951F0296E9019983888316
S11333B0828193819B838A83E0E0F0E012968D9171
S11333C09C911397009719F0FD01DC01F7CF8D91C3
S11333D09C9111979D012E5F3F4F820F931F209167
S11333E02D0430912E042817390769F4309729F4F5
S11333F01092300410922F0402C013821282B093F0
S11334002E04A0932D04DF91CF91089581E090E0E4
S1133410F89400C3FB01DC0102C001900D924150FD
S11334205040D8F70895DC0101C06D9341505040DD
S1133430E0F70895CF93DF93CDB7DEB7AE014A5FCF
S11334405F4FFA0161917191AF01809133049091C2
S1133450340433D0DF91CF9108950F931F93CF930A
S1133460DF93E0913304F0913404238121FF1BC0E6
S11334708C01D0E0C0E0F80181918F0160913304A8
S113348070913404DB011896ED91FC91199788230F
S113349031F01995892B79F3DFEFCFEFECCF8AE088
S11334A01995892B19F08FEF9FEF02C08D2F9C2F58
S11334B0DF91CF911F910F9108952F923F924F92D8
S11334C05F926F927F928F929F92AF92BF92CF92B0
S11334D0DF92EF92FF920F931F93CF93DF93CDB7B9
S11334E0DEB72B970FB6F894DEBF0FBECDBF6C01CD
S11334F07B018A01FC0117821682838181FFBFC18F
S1133500CE0101963C01F6019381F70193FD85916B
S113351093FF81917F01882309F4ADC1853239F489
S113352093FD859193FF81917F01853221F4B6014A
S113353090E0D6D1E8CF912C212C312CFFE1F3156A
S1133540D8F08B3279F038F4803279F08332A1F4F8
S1133550232D20611DC08D3261F0803369F4232D49
S1133560216016C0832D8260382EE32DE4603E2E48
S11335702AC0F32DF8601DC037FC2DC020ED280FA4
S11335802A3040F08E32B9F436FC75C1232D206404
S1133590322E19C036FE06C08AE0989E200D1124F2
S11335A0922E11C0EAE02E9E200D1124222EF32D1E
S11335B0F0623F2E08C08C3621F4832D8068382EAB
S11335C002C0883641F4F70193FD859193FF819100
S11335D07F018111B3CF982F9F7D9554933028F4A8
S11335E00C5F1F4F9FE399830DC0833631F08337FF
S11335F071F0833509F055C020C0F80180818983BA
S11336000E5F1F4F88248394912C530112C028010C
S1133610F2E04F0E511CF801A080B18036FE03C0C9
S1133620692D70E002C06FEF7FEFC5014ED14C01F0
S11336308201F32DFF773F2E15C0280122E0420EB0
S1133640511CF801A080B18036FE03C0692D70E0E2
S113365002C06FEF7FEFC5012DD14C01F32DF0684F
S11336603F2E820133FC19C0822D90E08816990602
S1133670A0F4B60180E290E033D12A94F5CFF501AD
S113368037FC859137FE81915F01B60190E028D126
S113369021102A9421E0821A91088114910479F767
S11336A0E1C0843611F0893639F5F80137FE07C0D8
S11336B060817181828193810C5F1F4F08C060819A
S11336C07181072E000C880B990B0E5F1F4FF32D91
S11336D0FF763F2E97FF09C0909580957095619570
S11336E07F4F8F4F9F4FF0683F2E2AE030E0A301B9
S11336F033D1882E861844C0853731F4232D2F7E8C
S1133700B22E2AE030E025C0932D997FB92E8F3652
S1133710C1F018F4883579F0AEC0803719F08837D5
S113372021F0A9C0E92FE061BE2EB4FE0DC0FB2D2F
S1133730F460BF2E09C034FE0AC0292F2660B22EC1
S113374006C028E030E005C020E130E002C020E1FE
S113375032E0F801B7FE07C06081718182819381F4
S11337600C5F1F4F06C06081718180E090E00E5FA6
S11337701F4FA301F1D0882E8618FB2DFF773F2E13
S113378036FE0DC0232D2E7FA22E891458F434FE4C
S11337900BC032FC09C0832D8E7EA82E05C0B82C28
S11337A0A32C03C0B82C01C0B92CA4FE0FC0FE0189
S11337B0E80DF11D8081803321F49A2D997EA92E84
S11337C009C0A2FE06C0B394B39404C08A2D8678BF
S11337D009F0B394A3FC10C0A0FE06C0B21480F498
S11337E0280C922C9B180DC0B21458F4B60180E238
S11337F090E076D0B394F8CFB21418F42B1802C02A
S1133800982C212CA4FE0FC0B60180E390E068D070
S1133810A2FE16C0A1FC03C088E790E002C088E5C0
S113382090E0B6010CC08A2D867851F0A1FE02C04A
S11338308BE201C080E2A7FC8DE2B60190E050D09B
S1133840891430F4B60180E390E04AD09A94F8CF1A
S11338508A94F301E80DF11D8081B60190E040D017
S11338608110F6CF222009F44ECEB60180E290E01A
S113387037D02A94F7CFF6018681978102C08FEF63
S11338809FEF2B960FB6F894DEBF0FBECDBFDF912E
S1133890CF911F910F91FF90EF90DF90CF90BF9049
S11338A0AF909F908F907F906F905F904F903F90DC
S11338B02F900895FC010590615070400110D8F7D5
S11338C0809590958E0F9F1F0895FC016150704064
S11338D001900110D8F7809590958E0F9F1F089541
S11338E00F931F93CF93DF93FB01238121FD03C02B
S11338F08FEF9FEF2CC022FF16C046815781248191
S113390035814217530744F4A081B1819D012F5F93
S11339103F4F318320838C93268137812F5F3F4F24
S11339203783268314C08B01EC01FB010084F185ED
S1133930E02D1995892BE1F6D80116968D919C916D
S11339401797019617969C938E931697CE01DF9145
S1133950CF911F910F910895FA01AA27283051F1B0
S1133960203181F1E8946F936E7F6E5F7F4F8F4FAC
S11339709F4FAF4FB1E03ED0B4E03CD0670F781F0B
S1133980891F9A1FA11D680F791F8A1F911DA11DF0
S11339906A0F711D811D911DA11D20D009F4689429
S11339A03F912AE0269F11243019305D3193DEF6D1
S11339B0CF010895462F4770405D4193B3E00FD087
S11339C0C9F7F6CF462F4F70405D4A3318F0495D72
S11339D031FD4052419302D0A9F7EACFB4E0A69555
S11339E09795879577956795BA95C9F70097610577
S11339F0710508959B01AC010A2E069457954795CD
S1133A0037952795BA95C9F7620F731F841F951FC1
S10B3A10A01D0895F894FFCFF6
S1133A1800003704200000400040C600CE00D60055
S1133A2836010000000300000000C614B1140000B1
S1133A38F849444C4500546D72205376630074650C
S1133A486D702076616C7565203D202569200A001B
S1133A5868756D2076616C7565203D202564200AA3
S1133A680074656D702068756D205461736B004334
S1133A784F322076616C7565203D202564200A004C
S1133A887461736B206C6F726100756E626C6F6326
S1133A986B20636F322073656D6170686F726500A7
S1133AA8776520646F6E7420686176652000756E92
S1133AB8626C6F636B2074656D7068756D207365D7
S1133AC86D6170686F726500756E626C6F636B20F0
S1133AD86C6F72612073656D6170686F7265200028
S1133AE8434F322054696D65720054656D702048E7
S1133AF8756D2054696D6572004C6F52612054696C
S1133B086D65720074656D705F68756D5F73656E61
S1133B18736F725F63726561746564200074656DA8
S1133B28702073656E736F72202D3E2025640074B7
S1133B38656D705F68756D5F53454E534F525F45B1
S1133B4852524F52202D2D3E2025640074656D700D
S1133B585F68756D5F7263202D2D3E2025640074A7
S1133B68656D705F68756D5F53454E534F525F4581
S1113B7852524F5231202D2D3E202564000064
S9030000FC
