:1000000005C2000024C2000022C2000020C200007D
:100010001EC200001CC200001AC2000018C200006C
:1000200016C2000014C2000012C2000010C200007C
:100030005CC400000CC200000AC2000008C200003C
:1000400006C2000004C2000002C2000000C200009C
:10005000FEC10000FCC10000FAC10000F8C10000B0
:10006000F6C100000C94A71B0C94F91BF0C1000012
:10007000EEC10000ECC10000EAC10000E8C10000D0
:10008000E6C10000E4C10000E2C10000E0C10000E0
:100090000C943D1C0C948F1CDAC100000C94461E7D
:1000A000D6C10000D4C10000D2C10000D0C1000000
:1000B000CEC10000CCC10000CAC10000C8C1000010
:1000C000C6C10000C4C10000C2C100000C94D31C12
:1000D0000C94251DBCC100000C94691D0C94BB1D23
:1000E000B6C10000950195019501C401CC01DB0169
:1000F00095019501C401CC01681ED81ED81ED81EDA
:10010000D81ED81ED81ED81E681ED81ED81ED81EAF
:10011000D81ED81ED81ED81E6A1ED81ED81ED81E9D
:10012000D81ED81ED81ED81ED81ED81ED81ED81E1F
:10013000D81ED81ED81ED81E6A1ED81ED81ED81E7D
:10014000D81ED81ED81ED81ED81ED81ED81ED81EFF
:10015000D81ED81ED81ED81ED41ED81ED81ED81EF3
:10016000D81ED81ED81ED81E9F1ED81ED81ED81E18
:10017000D81ED81ED81ED81ED81ED81ED81ED81ECF
:10018000D81ED81ED81ED81E931ED81ED81ED81E04
:10019000D81ED81ED81ED81EB71E02E816E00F2E95
:1001A000FAEAEF2EF6E0FF2EF02D809181068823EB
:1001B00011F10FB6F8940F92D8011596ED91FC91BC
:1001C0001697C681D781CE010296F5D18091770628
:1001D00081508093770680918106815080938106BB
:1001E0000F900FBE8F89988D73D1CE0171D1809100
:1001F00081068111DECFF7018081823008F0B0D214
:100200000E94BD12D2CFCF93DF9300D000D0CDB7E4
:10021000DEB7CE0101964C0144244394E12CF12C2D
:10022000512CC82ED92CE091D806F091D9068081A6
:10023000882309F4D7C00580F681E02DA080B18025
:100240000E94F30BC4010E944F128C01898181111D
:1002500048C00A151B05B0F10E94BD0CE091D806FC
:10026000F091D9060580F681E02D66807780C30184
:100270000296A1D1D30153968C91539782FF17C058
:100280001C966D917C911D976A0D7B1D9501A801AF
:10029000C3010E945A11882369F00E2D1F2D2E2DA7
:1002A0003F2DA501652DC3010E94081203C08E7F5A
:1002B000F301838BD3015096ED91FC915197C301CB
:1002C000199584C0452DB501601B710B8091D40632
:1002D0009091D50678D60E94BD0C811177C040D28E
:1002E00075C00E94BD0C72C0898188230CF46EC059
:1002F000AC80BD80F50182859385892B19F0C501FD
:10030000029659D1CE0106960E944F12AC01E981A6
:100310000E2E000CFF0BEA30F10508F057C08827BD
:10032000EE58FF4F8F4F0C940921D50153968C91B5
:100330005397816053968C9353972A813B811C96E7
:100340006D917C911D97620F731FC5010E945A1118
:100350008823E1F1D5015096ED91FC915197C501AB
:100360001995F501838982FF31C04A815B818485BB
:100370009585480F591F0E2D1F2D2E2D3F2D652DB4
:10038000C5010E94081222C0D50153968C91539743
:100390008E7F53968C931AC0F50183898160838B7D
:1003A0006A817B8175876487640F751F9A01C50117
:1003B0000E945A110BC0D50153968C9181FD03C048
:1003C000C50186D003C08E7FF501838B4E2D5F2D36
:1003D0006C2D7D2D8091D4069091D506AFD48111DE
:1003E00083CF21CF0E94F30BC4010E944F128C01D6
:1003F0008981811176CFE091D606F091D706808170
:10040000442D8111452DAE2CBF2C5DCF11241FBE74
:10041000CFEFD1E2DEBFCDBF00E00CBF16E0A0E021
:10042000B2E0E4E5FBE400E00BBF02C007900D92F0
:10043000AA36B107D9F728E0AAE6B6E001C01D92B6
:10044000A738B207E1F70E94D8120C94A825D8CD9E
:10045000CF93DF931F921F92CDB7DEB7CE010196E7
:1004600090935408809353080F900F90DF91CF9191
:10047000089568E272E083E00C94521A0895E7E070
:10048000F1E080818F6080830895E8E0F1E0908161
:10049000907F908390818F70982B90830895E8E0EF
:1004A000F1E08081807F80830895CF93DF93EC011A
:1004B0000E94F30BCE010E942B21EC010E94BD0C87
:1004C000209711F40E94BE12CE01DF91CF910895C2
:1004D000CF93DF93009741F0EC010E94F30BCE0124
:1004E0000E94C3210E94BD0CDF91CF910895FC01B1
:1004F0000396928381832FEF3FEF34832383968388
:1005000085839087878310820895FC011186108669
:100510000895CF93DF939C01FB01DC011196CD91EF
:10052000DC911297D383C2838C819D8195838483D0
:100530008C819D81DC0113967C936E9312977D8351
:100540006C8331872087F90180818F5F8083DF9101
:10055000CF910895CF93DF93EB01488159814F3FAD
:100560002FEF520721F4FC01A781B0850DC0DC01FB
:10057000139601C0DF011296ED91FC911397208133
:10058000318142175307B0F71296ED91FC91139702
:10059000FB83EA83D583C483BD83AC831396DC934A
:1005A000CE93129799878887FC0120812F5F208343
:1005B000DF91CF910895CF93DF93FC01A085B185A2
:1005C000C281D381848195819D838C83C481D581AF
:1005D000828193819B838A8311968D919C9112973E
:1005E000E817F90731F48481958112969C938E93D4
:1005F0001197118610868C9181508C938C91DF918C
:10060000CF91089531E1FC013083319722E22083BC
:100610003197A3E3A083319760833197708331973B
:10062000108231971082319760E860833197108291
:100630003197108231971082319762E06083319751
:1006400063E06083319764E06083319765E06083A5
:10065000319766E06083319767E06083319768E0A7
:100660006083319769E06083319760E160833197FF
:100670003083319732E13083319733E130833197E2
:1006800034E13083319735E13083319736E130837F
:10069000319737E13083319738E13083319739E151
:1006A0003083319730E23083319731E230833197B4
:1006B0002083319723E22083319740833197508301
:1006C000319726E22083319727E22083319728E271
:1006D0002083319729E22083319720E320833197CB
:1006E00021E3208389970895A89590EC88E10FB6BF
:1006F000F894A895809360000FBE90936000A0913D
:10070000CE06B091CF06CD91CDBFDD91DEBFFF917A
:10071000EF91DF91CF91BF91AF919F918F917F9199
:100720006F915F914F913F912F911F910F91FF908A
:10073000EF90DF90CF90BF90AF909F908F907F9081
:100740006F905F904F903F902F901F900F900CBE36
:100750000F900BBE0F900FBE0F90089581E008958B
:100760000F920FB6F8940F920BB60F920CB60F9231
:100770001F9211242F923F924F925F926F927F921D
:100780008F929F92AF92BF92CF92DF92EF92FF92A1
:100790000F931F932F933F934F935F936F937F9389
:1007A0008F939F93AF93BF93CF93DF93EF93FF9379
:1007B000A091CE06B091CF060DB60D920EB60D9259
:1007C0000E944B0DA091CE06B091CF06CD91CDBF2A
:1007D000DD91DEBFFF91EF91DF91CF91BF91AF919E
:1007E0009F918F917F916F915F914F913F912F9149
:1007F0001F910F91FF90EF90DF90CF90BF90AF903F
:100800009F908F907F906F905F904F903F902F9030
:100810001F900F900CBE0F900BBE0F900FBE0F904D
:1008200008950F920FB6F8940F920BB60F920CB674
:100830000F921F9211242F923F924F925F926F92CC
:100840007F928F929F92AF92BF92CF92DF92EF9260
:10085000FF920F931F932F933F934F935F936F9349
:100860007F938F939F93AF93BF93CF93DF93EF9338
:10087000FF93A091CE06B091CF060DB60D920EB6A5
:100880000D9213BEC0D781110E944B0DA091CE06D0
:10089000B091CF06CD91CDBFDD91DEBFFF91EF913D
:1008A000DF91CF91BF91AF919F918F917F916F9188
:1008B0005F914F913F912F911F910F91FF90EF907A
:1008C000DF90CF90BF90AF909F908F907F906F9070
:1008D0005F904F903F902F901F900F900CBE0F9005
:1008E0000BBE0F900FBE0F9008959BDF18950FB6AB
:1008F000F8940F92FC01928D0F900FBE81E0911140
:1009000080E008950F931F93CF93DF93EC01042FA2
:100910001A8D4C8D41110CC088819981892B09F069
:1009200042C08C819D810E94130F1D821C8242C097
:10093000011117C050E08A819B810E9450222C8DAA
:100940008A819B81820F911D9B838A832C813D81AB
:100950008217930750F1888199819B838A8380E075
:1009600029C050E08E819F810E9450228C8D90E0A2
:100970009195819591092E813F81280F391F3F83E1
:100980002E83488159812417350730F42C813D810D
:10099000820F931F9F838E83023049F4112349F005
:1009A000115080E007C080E005C080E003C080E017
:1009B00001C080E01F5F1A8FDF91CF911F910F91CF
:1009C0000895FC01448D4423A9F050E0268137812D
:1009D000240F351F37832683848195812817390793
:1009E00020F08081918197838683CB016681778116
:1009F0000C9450220895EF92FF920F931F93CF9380
:100A00008C010FB6F8940F92FC01C68D1C16ACF445
:100A10008189811106C011C0F8018189811105C049
:100A20000CC07801F1E1EF0EF11CC7010E94020E2B
:100A300081110E948A0EC15079F78FEFF801868FDD
:100A40000F900FBE0FB6F8940F92C58D1C16ACF424
:100A50008085811106C011C0F8018085811105C013
:100A60000CC07801F8E0EF0EF11CC7010E94020EE5
:100A700081110E948A0EC15079F78FEFF801858F9E
:100A80000F900FBECF911F910F91FF90EF9008959F
:100A9000CF93DF93EC010FB6F8940F92E881F981C0
:100AA0008B8D2C8D90E030E0829FA001839F500DB4
:100AB000929F500D11244E0F5F1F5D834C831A8E41
:100AC000FB83EA830197829FA001839F500D929F31
:100AD000500D1124CF01840F951F9F838E838FEFBC
:100AE0008D8F8E8F61110BC08885882371F0CE01A8
:100AF00008960E94020E882341F032DE06C0CE0125
:100B00000896F5DCCE014196F2DC0F900FBE81E035
:100B1000DF91CF910895FF920F931F93CF93DF93AF
:100B2000082F162FF42E6623B9F0869FC0011124DA
:100B30008196BBDCEC01009741F414C00B8F1C8F35
:100B400061E0CE01A5DFF8A20DC08196998388836C
:100B5000F5CFD983C883F2CF81E290E0A6DCEC0127
:100B6000892BB9F7CE01DF91CF911F910F91FF90A3
:100B700008959F92AF92BF92CF92DF92EF92FF9231
:100B80000F931F93CF93DF9300D01F921F92CDB787
:100B9000DEB78C016B015D834C83A22EB12C9924AE
:100BA00093947C0188E0E80EF11C0FB6F8940F9244
:100BB000F801928D838D981718F0F2E0AF1216C0ED
:100BC0004A2DB601C8019EDEF8019189992341F0B2
:100BD000C80141960E94020E882321F0C1DD02C0A7
:100BE0008111BEDD0F900FBE81E047C08C819D81D9
:100BF000892B21F40F900FBE80E03FC0B11005C0DB
:100C0000CE0101960E944A0EB92C0F900FBEEBD573
:100C10000FB6F8940F92F801858D8F3F09F4158E69
:100C2000F801868D8F3F09F4168E0F900FBEBE011E
:100C30006C5F7F4FCE0101960E94550E811119C045
:100C40000FB6F8940F92F801928D838D0F900FBE1E
:100C500098130BC06C817D81C701ABD7C801CBDE77
:100C60008CD68111A2CF7CDDA0CFC801C4DE85D691
:100C70009CCFC801C0DE81D680E00F900F900F900E
:100C80000F900F90DF91CF911F910F91FF90EF90F8
:100C9000DF90CF90BF90AF909F900895CF93DF9358
:100CA000482F60E081E037DFEC01009759F01D82AA
:100CB0001C82198218821E8220E040E050E060E031
:100CC00070E057DFCE01DF91CF910895EF92FF9250
:100CD0000F931F93CF93DF938A01FC01528D338DC5
:100CE000531710F02230E1F4422F7801EC011E8DF1
:100CF00009DE1F3F79F489898823A1F0CE0141964E
:100D000081D7882389F0E114F10481F081E0F701B3
:100D100080830DC0FF24F394F10EFE8E81E007C0A6
:100D200080E005C081E003C081E001C081E0DF9187
:100D3000CF911F910F91FF90EF9008959F92AF92E6
:100D4000BF92CF92DF92EF92FF920F931F93CF93B8
:100D5000DF9300D01F921F92CDB7DEB78C015B01ED
:100D60005D834C83E12C992493946C0181E1C80E3E
:100D7000D11C0FB6F8940F92F801F28CFF2091F07D
:100D8000B501C8011EDEFA94F801F28E8085882331
:100D900029F0C801089636D78111E2DC0F900FBE0A
:100DA00081E044C08C819D81892B21F40F900FBE7E
:100DB00080E03CC0E11004C0CE0101966BD7E92C65
:100DC0000F900FBE10D50FB6F8940F92F801858DD5
:100DD0008F3F09F4158EF801868D8F3F09F4168E2A
:100DE0000F900FBEBE016C5F7F4FCE0101965DD7A5
:100DF000811113C0C8017BDD882359F06C817D818E
:100E0000C601D7D6C801F7DDB8D58111B2CFA8DCAD
:100E1000B0CFC801F0DDB1D5ACCFC801ECDDADD5A8
:100E2000C80165DD882309F4A4CF80E00F900F90FE
:100E30000F900F900F90DF91CF911F910F91FF9026
:100E4000EF90DF90CF90BF90AF909F900895BF92AA
:100E5000CF92DF92EF92FF920F931F93CF93DF9386
:100E600000D01F921F92CDB7DEB78C017D836C83BB
:100E7000B12CD12CCC24C3947C0181E1E80EF11C6F
:100E80000FB6F8940F92D8015A968C915A978823EE
:100E9000D9F081505A968C935A978D919C91892BB9
:100EA00029F40E94A30FF80195838483D801189632
:100EB0008C91882329F0C8010896A4D6811150DCB2
:100EC0000F900FBE81E070C08C819D81892B21F431
:100ED0000F900FBE80E068C0D11004C0CE01019613
:100EE000D9D6DC2C0F900FBE7ED40FB6F8940F929B
:100EF000F801858D8F3F09F4158ED8015E968C918F
:100F00005E978F3F11F45E961C920F900FBEBE014C
:100F10006C5F7F4FCE010196C8D6811121C0C801F8
:100F2000E6DC8823C9F0F80180819181892B49F49E
:100F30000FB6F8940F928481958103D7B82E0F9045
:100F40000FBE6C817D81C70134D6C80154DD15D533
:100F5000811196CF05DC94CFC8014DDD0ED590CF21
:100F6000C80149DD0AD5C801C2DC882309F488CF4D
:100F7000BB20C9F00FB6F8940F92F801818988233D
:100F800039F00688F789E02D808164E0681B01C094
:100F900060E0D80114968D919C91159784D70F909D
:100FA0000FBE80E001C080E00F900F900F900F9077
:100FB0000F90DF91CF911F910F91FF90EF90DF90F5
:100FC000CF90BF900895CF93DF93EC010FB6F894C4
:100FD0000F928D8D8F3F09F41D8E8E8D8F3F09F4FA
:100FE0001E8E0F900FBE8A8D811103C0CE014196D7
:100FF000F1D5CE0100DDDF91CF910895FC01448150
:10100000558122813381240F351F80819181B9015F
:10101000681B790BCB016417750710F0841B950BC7
:101020000895AF92BF92CF92DF92EF92FF920F930B
:101030001F93CF93DF936C015B017A01FC01C281A6
:10104000D381048115810C1B1D0B4017510708F437
:101050008A01F60184859585A801B5018C0F9D1F35
:101060000E9450220E151F0558F4A701401B510B7A
:10107000B501600F711FF601848595850E9450228D
:10108000CE018E0D9F1DF6012481358182179307B5
:1010900010F0821B930BF60193838283C701DF91CB
:1010A000CF911F910F91FF90EF90DF90CF90BF9065
:1010B000AF900895CF92DF92EF92FF920F931F931C
:1010C000CF93DF931F921F92CDB7DEB75A83498328
:1010D00021153105C9F06B017C01FC01868580FD7D
:1010E00008C0CA012417350708F4C9019A83898307
:1010F00011C02017310758F042E050E0BE016F5F89
:101100007F4FC7018EDF06C080E090E008C080E01E
:1011100090E005C049815A81B601C70182DF0F9076
:101120000F90DF91CF911F910F91FF90EF90DF9083
:10113000CF900895AF92BF92CF92DF92EF92FF923D
:101140000F931F93CF93DF937C015B01E90142175B
:10115000530708F4EA01209779F1F7010081118122
:10116000C480D580C01AD10ACC15DD0508F46E0103
:10117000F70164857585600F711FA601C5010E9486
:101180005022CC16DD0658F4AE014C195D09F7016A
:1011900064857585C5018C0D9D1D0E9450220C0F24
:1011A0001D1FF701848195810817190710F0081B8E
:1011B000190BF70111830083CE01DF91CF911F91AD
:1011C0000F91FF90EF90DF90CF90BF90AF90089578
:1011D000EF92FF921F93CF93DF93EB0111E0413029
:1011E00009F010E0209711F4C1E0D0E07C012FEF6E
:1011F000E21AF20A419659D9009781F020E1FC01E8
:1012000011922A95E9F79C01205F3F4FFC01358739
:101210002487F582E482D783C6831687DF91CF9136
:101220001F91FF90EF900895CF93DF93FC012785E6
:101230000FB6F8940F9280859185892BD1F4828521
:101240009385892BC1F48685468157816481758198
:10125000A485B58590E1EF0119929A95E9F7B587D4
:10126000A48775836483578346838687278781E0B5
:1012700003C080E001C080E00F900FBEDF91CF91EE
:101280000895FC01248135818081918142815381BF
:10129000820F931F0197841B950B8217930710F001
:1012A000821B930B0895AF92BF92CF92DF92EF9281
:1012B000FF920F931F93CF93DF93EC015B016A01C1
:1012C00079018E8580FF04C08A010E5F1F4F01C027
:1012D0008A01CE01D6DF9C01A601B501CE01EADE6E
:1012E0006C01892BB1F0CE0189DE2E813F818217FE
:1012F000930778F088859985892B59F08885998599
:1013000000E010E020E040E050E0BA012FD719865D
:101310001886C601DF91CF911F910F91FF90EF903A
:10132000DF90CF90BF90AF9008956F927F928F9291
:101330009F92AF92BF92CF92DF92EF92FF920F9364
:101340001F93CF93DF931F921F92CDB7DEB76C012F
:101350003B014A017901FC01868580FD03C0A12C77
:10136000B12C04C06894AA24A1F8B12CE114F104B2
:1013700029F10FB6F8940F92C60140DE8C01A81631
:10138000B90638F080E090E081D7C8D4F6019187A3
:1013900080870F900FBEA016B106B0F000E010E0FD
:1013A00020E030E0A90160E070E0CB01DED5F6017D
:1013B00011861086C60122DE8C0103C0C6011EDE26
:1013C0008C01A016B106B8F5A114B104C1F0F60164
:1013D000E080F1809801A501BE016F5F7F4FC601DB
:1013E000A9DE89819A810A191B098816990630F4A9
:1013F000F601F182E082812C912C01C04C01980110
:10140000A401B301C60196DE7C01892BB1F0EBD1BA
:10141000F60182859385892B61F08285938500E0B2
:1014200010E020E040E050E0BA0122D6F601138639
:101430001286A3D202C0E12CF12CC7010F900F90AD
:10144000DF91CF911F910F91FF90EF90DF90CF90A0
:10145000BF90AF909F908F907F906F900895E09194
:101460009606F09197068081811107C08FEF9FEF5C
:1014700090936E0680936D060895E0919606F09124
:1014800097060580F681E02D0680F781E02D8281A8
:10149000938190936E0680936D060895FF920F934B
:1014A0001F93CF93DF93EC01F62E009175061091F8
:1014B00076068091CE069091CF0602967CD8CF3FDB
:1014C0008FEFD80761F4FF2051F06091CE06709144
:1014D000CF066E5F7F4F88E796E01BD82DC0C00F08
:1014E000D11FE091CE06F091CF06D383C283C017FF
:1014F000D10760F46091CE067091CF06809194067A
:10150000909195066E5F7F4F25D816C06091CE06EC
:101510007091CF0680919606909197066E5F7F4FEF
:1015200019D880916D0690916E06C817D90720F4DE
:10153000D0936E06C0936D06DF91CF911F910F91EE
:10154000FF9008954F925F926F927F928F929F9239
:10155000AF92BF92CF92DF92EF92FF920F93CF9311
:10156000DF934C016B015A012901CA010E94550207
:101570003C01892B09F4F3C08CE290E00E945502F3
:10158000EC01892B99F0788E6F8AA50165EA70E0ED
:10159000C3010E94592281E0A81AB1088F89988D51
:1015A000A80EB91EC114D10429F420C0C3010E94A1
:1015B0006802D5C0D6018C91898F8C918823A1F0C7
:1015C000AE01465E5F4FF6013196B8E0CB0ED11CFE
:1015D000CF012191DA012D93AD01DC018C9188239B
:1015E00019F0EC15FD05A1F718A201C0198E043001
:1015F00008F003E00E8B0BA31CA26E01B2E0CB0E31
:10160000D11CC6010E948502CE010C960E94850263
:10161000D987C88784E090E0801B91099D878C87DB
:10162000DB8BCA8B1EA21DA21FA218A619A61AA682
:101630001BA6A201B401C5010E94020399838883FD
:10164000E114F10419F0F701D183C0830FB6F894C7
:101650000F92809177068F5F809377068091CE06F8
:101660009091CF06892BD1F5D093CF06C093CE06AB
:1016700080917706813009F041C08AEA96E00E94A5
:10168000770283EB96E00E9477028CEB96E00E9453
:10169000770285EC96E00E94770281EA96E00E944C
:1016A000770288E996E00E9477028BE896E00E9434
:1016B000770282E896E00E94770288E796E00E942F
:1016C000770281EA96E0909397068093960688E9E0
:1016D00096E0909395068093940610C080917306CF
:1016E00081110CC0E091CE06F091CF0696898E89CB
:1016F000891720F0D093CF06C093CE0680916F0655
:101700008F5F80936F0689A38E89909174069817D6
:1017100010F48093740690E09C01220F331F220F77
:10172000331F220F331F820F931FB6018655994F27
:101730000E9489020F900FBE80917306882359F092
:10174000E091CE06F091CF0696898E89981728F4FD
:1017500007D881E005C081E003C081E001C08FEFC0
:10176000DF91CF910F91FF90EF90DF90CF90BF90DE
:10177000AF909F908F907F906F905F904F90089563
:10178000EF92FF920F930F2EFBE6EF2EF6E0FF2E67
:10179000F02D00E020E030E040EC50E06DE372E03E
:1017A0008DEC90E0CFDE8130D1F4DCD58130B9F41E
:1017B000F8948FEF9FEF90936E0680936D0681E013
:1017C000809373061092760610927506E091CE060D
:1017D000F091CF0685A10E9445020E9474030F91EB
:1017E000FF90EF90089580916A068F5F80936A065C
:1017F00008950FB6F8940F92809175069091760631
:101800000F900FBE0895CF92DF92EF92FF920F9349
:101810001F93CF93DF9380916A06811198C0E09067
:101820007506F09076068FEFE81AF80AF0927606C1
:10183000E0927506E114F104B1F48091960690915E
:101840009706209194063091950630939706209341
:1018500096069093950680939406809170068F5F0C
:1018600080937006FCDD80916D0690916E06E816FF
:10187000F90610F4D12C53C0D12CCC24C394E091A0
:101880009606F09197068081811107C08FEF9FEF38
:1018900090936E0680936D0642C0E0919606F0919B
:1018A00097060580F681E02DC681D7818A819B81CC
:1018B000E816F90628F490936E0680936D062FC003
:1018C0008E010E5F1F4FC8010E94DB028C899D892B
:1018D000892B21F0CE010C960E94DB028E8990911B
:1018E0007406981710F48093740690E09C01220F00
:1018F000331F220F331F220F331F820F931FB80194
:101900008655994F0E948902E091CE06F091CF064C
:101910009E898689981708F4B2CFDC2CB0CFE0916D
:10192000CE06F091CF06868990E0FC01EE0FFF1FF6
:10193000EE0FFF1FEE0FFF1F8E0F9F1FFC01E655DE
:10194000F94F8081823048F0DD24D39406C0809125
:1019500072068F5F80937206D12C80917106882366
:1019600011F0DD24D3948D2DDF91CF911F910F9134
:10197000FF90EF90DF90CF900895DF92EF92FF926B
:101980000F931F93CF93DF930FB6F8940F9280912C
:101990006A06815080936A0680916A0681115DC053
:1019A00080917706811133C05BC0D7011596ED9108
:1019B000FC911697C681D781CE010C960E94DB025E
:1019C0008E010E5F1F4FC8010E94DB028E8990912D
:1019D0007406981710F48093740690E09C01220F0F
:1019E000331F220F331F220F331F820F931FB801A3
:1019F0008655994F0E948902E091CE06F091CF065C
:101A00009E898689981768F0D09271060AC0C0E056
:101A1000D0E00F2EFBE8EF2EF6E0FF2EF02DDD24B8
:101A2000D394F70180818111C0CFCD2B09F017DD50
:101A3000C0917206CC2349F0D1E0E5DE8111D0934C
:101A40007106C150D1F710927206809171068823F9
:101A500031F00E94B00381E003C080E001C080E06B
:101A60000F900FBEDF91CF911F910F91FF90EF90DC
:101A7000DF900895CF93DF93EC01892B39F0B3DE2B
:101A800060E0CE010BDD79DF811102C00E94B0035E
:101A9000DF91CF91089580916A06882321F081E03B
:101AA00080937106089510927106E091CE06F09130
:101AB000CF0685A10E944F02A091CE06B091CF061D
:101AC000E091CE06F091CF062D913C918789908DC3
:101AD0008217930758F06091CE067091CF068091DF
:101AE000CE069091CF06675E7F4F55D52091740644
:101AF000822F90E0FC01EE0FFF1FEE0FFF1FEE0F95
:101B0000FF1FE80FF91FE655F94F3081311111C061
:101B10002150822F90E0FC01EE0FFF1FEE0FFF1F00
:101B2000EE0FFF1FE80FF91FE655F94F3081332301
:101B300079F3AC01440F551F440F551F440F551F37
:101B4000480F591FDA01A655B94F1196ED91FC9136
:101B500012970280F381E02D1296FC93EE93119779
:101B60004355594FE417F50729F442815381FD018C
:101B700052834183FC01EE0FFF1FEE0FFF1FEE0F9C
:101B8000FF1F8E0F9F1FFC01E655F94F0180F28168
:101B9000E02D868197819093CF068093CE06209387
:101BA0007406E091CE06F091CF0685A10C94450213
:101BB0000895CF93DF93EB016091CE067091CF062D
:101BC000645F7F4F0E94AA0261E0CE0167DCDF9173
:101BD000CF9108950F931F93CF938B01C42F6091E2
:101BE000CE067091CF06645F7F4F0E948902CC239E
:101BF00011F00FEF1FEF6C2FC80150DCCF911F9138
:101C00000F9108950F931F93CF93DF93DC011596E7
:101C1000ED91FC911697C681D7818E01045F1F4F0D
:101C2000C8010E94DB0280916A0681111CC00A5023
:101C30001109C8010E94DB028E89909174069817E1
:101C400010F48093740690E09C01220F331F220F42
:101C5000331F220F331F820F931FB8018655994FF0
:101C60000E94890205C0B8018BE896E00E948902B3
:101C7000E091CE06F091CF069E898689891720F4DF
:101C800081E08093710601C080E0DF91CF911F91C8
:101C90000F91089520917006FC0120832091750614
:101CA00030917606328321830895CF93DF930FB668
:101CB000F8940F922091750630917606DB014D91D4
:101CC0005C914F3FBFEF5B07E9F0EC01E981FA81DE
:101CD000A0917006B881BA1719F02E173F07A0F42B
:101CE0002E1B3F0B2417350740F4FB01421B530BFF
:101CF00051834083CFDF80E008C0FB011182108256
:101D000081E003C080E001C081E00F900FBEDF9151
:101D1000CF91089581E08093710608958091CE0659
:101D20009091CF06089580917306882331F08091B9
:101D30006A06882321F080E0089581E0089582E01A
:101D400008950F931F93CF93DF93FC01892B09F420
:101D500064C02689A091CE06B091CF0656968C918C
:101D6000281708F04EC084859585992364F0A091CA
:101D7000CE06B091CF0656963C9184E090E0831B4E
:101D800091099587848730E0C901880F991F880FD2
:101D9000991F880F991F280F391F2655394F8285A3
:101DA00093858217930721F58F01EF012296CE01CB
:101DB0000E94DB02E091CE06F091CF068689F80101
:101DC000868B90917406981710F48093740690E0B7
:101DD0009C01220F331F220F331F220F331F820F4C
:101DE000931FBE018655994F0E94890281E016C05B
:101DF000A091CE06B091CF0656968C91868B81E04D
:101E00000DC0A091CE06B091CF0681E023A15696D9
:101E10009C91291718F080E001C080E0DF91CF91FC
:101E20001F910F9108950F931F93CF93DF93FC01A0
:101E3000892B79F184A1815084A3268993A1291744
:101E400051F181112AC0EF018F010E5F1F4FC801B0
:101E50000E94DB028BA18E8B24E030E0281B31092D
:101E60003D872C8790917406981710F48093740620
:101E700090E09C01220F331F220F331F220F331FCC
:101E8000820F931FB8018655994F0E94890281E005
:101E900005C080E003C080E001C080E0DF91CF9109
:101EA0001F910F9108950F931F93CF93DF93FC0120
:101EB000892B09F443C093A1961708F4962F8689BD
:101EC0008917E1F124A12130C9F5968B2485358548
:101ED000332334F024E030E0291B3109358724878F
:101EE00090E09C01220F331F220F331F220F331F5C
:101EF000820F931F8655994F2285338528173907FE
:101F0000E9F4EF018F010E5F1F4FC8010E94DB0251
:101F10008E8990917406981710F48093740690E05F
:101F20009C01220F331F220F331F220F331F820FFA
:101F3000931FB8018655994F0E948902DF91CF9176
:101F40001F910F9108958091CE069091CF06892B15
:101F500039F0E091CE06F091CF0684A18F5F84A383
:101F60008091CE069091CF0608954F925F926F9226
:101F70007F928F929F92AF92BF92EF92FF920F93B8
:101F80001F9349015A010FB6F8940F92E091CE06C3
:101F9000F091CF0623A5223021F1E091CE06F091F9
:101FA000CF0647A050A461A472A4DC01CB018095A8
:101FB0009095A095B09584219521A621B72187A35E
:101FC00090A7A1A7B2A7E091CE06F091CF0681E03D
:101FD00083A7E114F10429F061E0C7015FDA0E94F0
:101FE000B0030F900FBE0FB6F8940F9201151105B4
:101FF00069F0E091CE06F091CF0687A190A5A1A54A
:10200000B2A5F80180839183A283B383E091CE06C9
:10201000F091CF0683A58230B1F4E091CE06F09125
:10202000CF0687A190A5A1A5B2A580949094A09475
:10203000B09488229922AA22BB2287A290A6A1A6A8
:10204000B2A681E001C080E0E091CE06F091CF061B
:1020500013A60F900FBE1F910F91FF90EF90BF90AE
:10206000AF909F908F907F906F905F904F9008956A
:102070000F931F93CF93DF93FC010FB6F8940F9249
:102080000115110549F087A190A5A1A5B2A5E80108
:1020900088839983AA83BB8383A592E093A7223088
:1020A000B1F018F4213031F02AC02330E9F02430A7
:1020B00001F125C007A110A521A532A5402B512B68
:1020C000622B732B47A350A761A772A718C047A123
:1020D00050A561A572A54F5F5F4F6F4F7F4F47A31C
:1020E00050A761A772A70BC047A350A761A772A70B
:1020F00006C0823079F147A350A761A772A781304B
:1021000059F5EF018F010E5F1F4FC8010E94DB02DE
:102110008E8990917406981710F48093740690E05D
:102120009C01220F331F220F331F220F331F820FF8
:10213000931FB8018655994F0E948902E091CE06FF
:10214000F091CF069E898689891740F40E94B003DA
:1021500081E005C080E003C081E001C081E00F9014
:102160000FBEDF91CF911F910F910895EF92FF92D3
:102170000F931F93CF93DF93FC010115110549F0D5
:1021800087A190A5A1A5B2A5E80188839983AA8318
:10219000BB8383A592E093A72230B1F018F42130DD
:1021A00031F02BC02330E9F0243001F126C007A123
:1021B00010A521A532A5402B512B622B732B47A3D1
:1021C00050A761A772A719C047A150A561A572A524
:1021D0004F5F5F4F6F4F7F4F47A350A761A772A715
:1021E0000CC047A350A761A772A707C0823009F4AB
:1021F00041C047A350A761A772A78130E9F5EF015D
:1022000080916A0681111DC08F010E5F1F4FC801AA
:102210000E94DB028E8990917406981710F48093C7
:10222000740690E09C01220F331F220F331F220FF0
:10223000331F820F931FB8018655994F0E94890260
:1022400007C0BF01645F7F4F8BE896E00E94890260
:10225000E091CE06F091CF069E898689891770F4A9
:10226000E114F10419F081E0F701808381E08093AB
:10227000710605C080E003C081E001C081E0DF910C
:10228000CF911F910F91FF90EF900895009721F447
:102290008091CE069091CF060FB6F8940F92FC0174
:1022A00023A5223019F413A681E001C080E00F902D
:1022B0000FBE0895FC017383628391878087461760
:1022C000570790F0421B530B848595854817590793
:1022D000E0F4BF016E5F7F4F8091D6069091D706E4
:1022E0000E94AA0280E008954217530718F462176B
:1022F000730768F4BF016E5F7F4F8091D80690919D
:10230000D9060E94AA0280E0089581E0089581E044
:1023100008950FB6F8940F928091D4069091D50647
:10232000892BE9F483EE96E00E9477028AED96E02D
:102330000E94770283EE96E09093D9068093D806A8
:102340008AED96E09093D7068093D60640E065E04C
:102350008AE00E948B059093D5068093D4060F9057
:102360000FBE0895EF92FF920F93D3DF8091D406B2
:102370009091D506892B89F00F2EF2EDEF2EF6E025
:10238000FF2EF02D03E020E030E045E550E062E470
:1023900072E083E091E0D6D801C080E00F91FF9019
:1023A000EF9008958F929F92AF92BF92CF92DF925B
:1023B000FF920F931F93CF93DF934C015B01F42E99
:1023C000690184E190E00E945502EC01892B99F0AB
:1023D0001B8A9FDF99828882BD86AC86DF86CE8687
:1023E000198B088BCE0102960E948502FF2019F0FE
:1023F0008B8984608B8BCE01DF91CF911F910F91E0
:10240000FF90DF90CF90BF90AF909F908F900895F6
:102410000F931F93CF93DF9300D01F921F92CDB7DE
:10242000DEB7E091D406F091D506309769F1D90175
:1024300069835B834A839D838C836630E4F473DC19
:10244000823061F420E0A801BE016F5F7F4F809170
:10245000D4069091D5060E94B90517C020E040E04F
:1024600050E0BE016F5F7F4F8091D4069091D506FA
:102470000E94B9050AC020E0AD01BE016F5F7F4F29
:10248000CF010E94660601C080E00F900F900F9070
:102490000F900F90DF91CF911F910F910895AF9200
:1024A000BF92CF92DF92EF92FF920F931F93CF9341
:1024B000DF936C019ED97C018091D0069091D1066A
:1024C000E816F90608F047C02FC00580F681E02D18
:1024D000A080B180C681D7818E010E5F1F4FC801D9
:1024E0000E94DB02E889F989CE0119958B8982FF68
:1024F0001BC08C859D858A0D9B1DA816B90660F4AE
:102500009B838A83D987C887B8018091D806909128
:10251000D9060E94AA0208C000E010E020E030E0E6
:10252000A50160E0CE0174DFE091D806F091D906F4
:1025300080818111CACF8091D6069091D706909361
:10254000D9068093D806F093D706E093D60681E0AB
:10255000F601808302C0F6011082F092D106E0926B
:10256000D006C701DF91CF911F910F91FF90EF909F
:10257000DF90CF90BF90AF9008950895279A2F9A3B
:102580002FEF80E792E0215080409040E1F700C0BB
:1025900000001F9AF5CF279A2F9A2FEF87EA91E62E
:1025A000215080409040E1F700C000001F9AF5CF15
:1025B00081B1816881B90E943F0280E00E941D1EA6
:1025C000C3D075D10E9439020FD00FD112D900E0CB
:1025D00010E020E030E0AC0161E08091590890917A
:1025E0005A0816DFCDD8FFCF88E090D181E0C1C373
:1025F0000895CF93DF9381E0F8D382E090E03ADA58
:1026000080E0F3D386E990E035DA03D4882321F023
:102610008AE492E00E949D2286E990E02BDA26D59A
:10262000882321F081E692E00E949D228CEE96E0C4
:1026300002D4882329F082E792E00E949D220EC0F6
:102640008CEE96E09F938F938EE792E09F938F930B
:102650000E948A220F900F900F900F904CEE56E040
:102660006CE872E08DEA92E0DFD5882321F08EEBF2
:1026700092E00E949D2280E033D4883029F48EECD1
:1026800092E00E949D2213C0873089F4C5E0D0E01B
:1026900080E026D4873039F48DED92E00E949D22AF
:1026A0002197B1F704C089EE92E00E949D22DF914C
:1026B000CF910895CF93DF93CDB7DEB766970FB66E
:1026C000F894DEBF0FBECDBF8EE390E0D3D987EF85
:1026D00092E09F938F930E948A2284E08A83898369
:1026E00081E08B8381E48C8382E08D8382E88E831A
:1026F000BE016F5F7F4F80E016D40F900F908D303A
:1027000049F481E093E09F938F930E948A220F9077
:102710000F900EC08E3061F01F928F9389E093E08E
:102720009F938F930E948A220F900F900F900F908B
:102730008EE390E09FD966960FB6F894DEBF0FBE89
:10274000CDBFDF91CF9108958091550890915608A3
:10275000892B39F481E00E944E06909356088093AD
:1027600055088091610890916208892B39F481E0C5
:102770000E944E06909362088093610880916308DE
:1027800090916408892B39F481E00E944E06909361
:1027900064088093630808958EE093E09F938F937D
:1027A0000E948A228EE390E065D923DF8EE390E0D9
:1027B00061D90F900F906FEF7FEF80916308909138
:1027C00064080E9427078130B1F78EE390E052D968
:1027D00071DF20E040E050E060E070E0809163084D
:1027E000909164080E94B905E6CFEF92FF920F9393
:1027F0000F2EF7E5EF2EF8E0FF2EF02D02E021E09E
:1028000030E040EC50E068E173E08CEC93E10E9432
:10281000A20A0F91FF90EF90089520E040E050E071
:1028200060E070E080915508909156080E94B905CB
:10283000813041F08BE593E09F938F930E948A2231
:102840000F900F90089520E040E050E060E070E0CD
:1028500080916108909162080E94B905813041F031
:102860008BE593E09F938F930E948A220F900F90A5
:10287000089589E693E09F938F930E948A2220E037
:1028800040E050E060E070E080916308909164085F
:102890000E94B9050F900F90813041F08BE593E0D5
:1028A0009F938F930E948A220F900F9008950F9309
:1028B0001F930DE014E120E030E041E06DE770E0AF
:1028C00081E893E06FDD9093600880935F0803E2F6
:1028D00014E121E030E041E06BEB70E08BE893E045
:1028E00061DD909366088093650809E314E122E0B6
:1028F00030E041E06BEB70E08AE993E053DD9093C8
:102900005A08809359081F910F910895E7E6F8E05F
:102910002AEA39E1318320832DEA39E133832283A6
:1029200028EB39E1358324832CEB39E13783268387
:1029300022EC39E1318720872EEC39E13387228779
:1029400023ED39E1358724872FED39E13787268755
:102950002FEB39E1318B208B24EE39E1338B228B45
:1029600021EF39E1358B248B682FCF01A1C0089569
:10297000CF93DF9390E0FC01EE0FFF1FE80FF91FEC
:10298000EE0FFF1FE350F94F238121110AC0EF0121
:10299000E0916F08F09170086A818881998119959A
:1029A00012C0DC01AA0FBB1FED01C80FD91FCC0F4D
:1029B000DD1FC350D94FE0917908F0917A086A8100
:1029C000888199811995DF91CF910895CF93DF93F5
:1029D00090E0FC01EE0FFF1FE80FF91FEE0FFF1F45
:1029E000E350F94F238121110AC0EF01E0917908EA
:1029F000F0917A086A8188819981199512C0DC0169
:102A0000AA0FBB1FED01C80FD91FCC0FDD1FC3508C
:102A1000D94FE0916F08F09170086A81888199819F
:102A20001995DF91CF91089585EA93E00E949D2248
:102A30000F2EF7E6CF2EF8E0DF2EF02D04E0CDEFDD
:102A4000D6E010E08C81813069F0E8F0823039F511
:102A5000D6011C96ED91FC911D976A818881998120
:102A600019951DC08D818F5F8A3010F48D8317C03A
:102A70001D82D6011C96ED91FC911D976A8188817B
:102A8000998119950CC08D81882331F0812F9EDFAB
:102A90008D8181508D8303C00C83812F69DF1F5F7F
:102AA0002696143079F685E090E00E943A0DC7CF63
:102AB000CF92DF92EF92FF920F931F93CF93DF930A
:102AC000062F0F2EF7E6EF2EF8E0FF2EF02DD701A0
:102AD0001896ED91FC91199766E087E290E01995C0
:102AE000CDEFD6E00F2EF8E2CF2ED12CF02DD982EB
:102AF000C88286E08A831B8214E01C8380E038DF72
:102B0000D7011896ED91FC91199767E087E290E064
:102B10001995DF82CE8287E0888719861A8781E03F
:102B200027DFD7011896ED91FC91199765E083E3B3
:102B300090E01995D7011896ED91FC91199761E0F5
:102B400084E390E0199584E390E09D878C8785E08D
:102B50008E871F86188B82E00BDFD7011896ED91C8
:102B6000FC91199764E081E091E01995D7011896DE
:102B7000ED91FC91199761E082E091E0199582E076
:102B800091E09B8B8A8B1C8B1D8A1E8B83E0F0DE71
:102B9000E12CF12C20E030E040EC50E06CEB73E0F5
:102BA00084E195E10E94A20ADF91CF911F910F91DC
:102BB000FF90EF90DF90CF9008950F931F93CF93E6
:102BC000DF931F921F92CDB7DEB78C0119822DC003
:102BD000E0917907EC3250F481E08E0F8093790711
:102BE000F0E0E755F84F8A81808302C010927907A0
:102BF0008A818A30D1F44091790750E0FA01E95591
:102C0000F84F1082415051099E012F5F3F4F69EAF2
:102C100077E080917A0790917B070E945309898120
:102C200081110E94B00310927907BE016E5F7F4F41
:102C3000C80171D5882361F20F900F90DF91CF9179
:102C40001F910F9108950F931F93CF93DF938C01E2
:102C5000EB0180917A0790917B070E941409B801DB
:102C600085E197E00E946B22209779F0E5E1F7E09B
:102C700001900020E9F7319780E290E09183808312
:102C8000BE0185E197E00E946022E5E1F7E0DF0107
:102C90000D900020E9F711978DE09AE011969C9332
:102CA0008E9312961C9201900020E9F73197E5511E
:102CB000F740AE2F85E197E0AC016A2F80917C0749
:102CC00090917D07D8D481110FC028E235E04DE204
:102CD00050E063E078E080917A0790917B070E9452
:102CE000950983E098E002C080E090E0DF91CF9109
:102CF0001F910F910895AF92BF92CF92DF92EF9202
:102D0000FF920F931F93CF93DF936C01FC0101900F
:102D10000020E9F731977F01E81AF90A08E316E085
:102D2000C0E0D0E0F80160817181A701C6010E9476
:102D30007222892B49F4FE01EE0FFF1FEC0FFD1FDD
:102D4000E95CF94F808107C021960D5F1F4FC131AB
:102D5000D10541F780E1DF91CF911F910F91FF9055
:102D6000EF90DF90CF90BF90AF9008956CDFC3CF0E
:102D700008958F929F92AF92CF92EF920F93CF933D
:102D8000C82F41E060E070E088EC90E00E94E80825
:102D900090937B0780937A070F2EFDED8F2EF5E140
:102DA0009F2EF02D6894AA24A6F86894CC24C6F827
:102DB000E12C00E023E040E051EE60E070E08C2F79
:102DC0009FD390937D0780937C07E0916F08F091EB
:102DD000700864E087E091E01995CF910F91EF9032
:102DE000CF90AF909F908F900895882349F0E09105
:102DF0007908F0917A0864E088E091E019950895E7
:102E0000E0916F08F091700864E088E091E0199516
:102E1000089560E070E083EE93E015DFE3E0F8E012
:102E200001900020E9F73197E350F84081E0759771
:102E300008F080E00895CF93DF93EC0160E070E04C
:102E400084EF93E000DFE3E0F8E001900020E9F791
:102E5000E451F84039F463E078E0CE010E946B223F
:102E600080E002C0188281E0DF91CF910895FC01DB
:102E700001900020E9F79F012151310928173907F6
:102E800029F4BC0182E294E071CF089589E00895AD
:102E9000FC0101900020E9F79F0121513109281719
:102EA000390729F4BC0181E394E060CF089589E0FB
:102EB0000895FC0101900020E9F79F01215231099A
:102EC0002817390729F4BC0180E494E04FCF089516
:102ED00089E0089560E070E08FE794E047CF0895BF
:102EE000E82FF0E0EE0FFF1FED5CF94F608171817C
:102EF00088E894E03BDF811112C028E235E04DE222
:102F000050E063E078E080917A0790917B070E941F
:102F10009509882321F083E098E0EDCE089583E0C1
:102F200098E0E9CE0895CF93DF931F92CDB7DEB737
:102F3000DB0111969C911197953108F087C0992378
:102F400081F160E070E0272F30E0462F50E0FD0176
:102F5000E40FF51F928192959F709A3010F0995C62
:102F600001C0905DF901EC56F84F90832F5F3F4F01
:102F7000FD01E40FF51F92819F70492F50E04A3008
:102F8000510514F0995C01C0905DF901EC56F84FC1
:102F900090837E5F6F5F11969C911197691798F2ED
:102FA00001C070E0E72FF0E0EC56F84F10824C9132
:102FB000811103C081E994E002C083E994E024E92F
:102FC00037E03F932F931F924F939F938F9387E9FF
:102FD00094E09F938F9386ED97E09F938F930E9449
:102FE000CD2260E070E086ED97E0C0DE0FB6F89489
:102FF000DEBF0FBECDBF8E3051F587E08983BE01A5
:103000006F5F7F4F83E098E030D180937E07E98146
:10301000F0E0ED5FF74FDF010D900020E9F7119729
:10302000AE1BBF0BAA2381F0BB271197CD010AF479
:1030300001969595879580937F07AF014F5F5F4F0E
:1030400064E180E897E03DD18EE001C084E10F901B
:10305000DF91CF910895813019F067EA74E002C0E2
:1030600067E675E08BEA94E081CE08952F923F9257
:103070004F925F926F927F928F929F92AF92BF9288
:10308000CF92DF92EF92FF920F931F93CF93DF9334
:10309000CDB7DEB7A0970FB6F894DEBF0FBECDBF99
:1030A00060EF74E08CEF94E0CEDD25DE8111A3C0EB
:1030B00080E2EDE1F2E0DE01119601900D928A9539
:1030C000E1F79E012F5F3F4F6901E12CF12C0F2E9C
:1030D000F8E0AF2EF5E0BF2EF02D06ED17E00F2E35
:1030E000F1E24F2EF5E05F2EF02D0F2EF8E38F2E3C
:1030F000F5E09F2EF02D0F2EF2E56F2EF5E07F2EDE
:10310000F02D3E2C2F2CFF92EF92BF92AF921F9387
:103110000F930E94CD2260E070E0C80194DDEBDDEA
:103120000F900F900F900F900F900F90811163C030
:1031300032E03E15E8F4F60183818F9382818F930C
:1031400081818F9380818F93FF92EF925F924F9254
:103150001F930F930E94CD2260E070E0C80173DDE1
:10316000CADD0FB6F894DEBF0FBECDBF811143C0DC
:103170002F923F929F928F921F930F930E94CD2286
:1031800060E070E0C8015FDDB6DD0F900F900F903A
:103190000F900F900F9081112EC02F923F927F922F
:1031A0006F921F930F930E94CD2260E070E0C801E0
:1031B0004ADDA1DD0F900F900F900F900F900F90B0
:1031C000811119C03FEFE31AF30A84E0C80ED11C45
:1031D00098E0E916F10409F094CF60E070E08AE627
:1031E00095E031DD88DD811106C060E070E08BE79D
:1031F00095E029DD80DDA0960FB6F894DEBF0FBE06
:10320000CDBFDF91CF911F910F91FF90EF90DF9095
:10321000CF90BF90AF909F908F907F906F905F9076
:103220004F903F902F900895EF92FF920F931F932E
:10323000CF93DF93EC018B017A0181E00CDF8111E8
:103240000DC0CE0125DE811109C0C80132DE811119
:1032500005C0C7010CDE811101C03CDEDF91CF91BA
:103260001F910F91FF90EF900895DC01009729F1D5
:10327000FB012081FC0101900020E9F73197E81B58
:10328000F90B822F90E0E817F907C8F080E008C03A
:10329000880F382F330F330F830F8053890F2F5F21
:1032A000FD01E20FF11D908130ED390F3A3010F43D
:1032B0009111EECFFB012083089580E0089580E016
:1032C00008950F931F93CF93DF93DC01EA012097BA
:1032D000E1F1FA0101900020E9F73197E41BF50BC9
:1032E000329710F532C08D01040F151F30E0AE018A
:1032F000420F531FFA019081913428F09753592FB0
:103300005295507F03C0592F5295507F2C0F3D1F6F
:10331000F9019181913410F0975301C09053950FAA
:10332000F80190838F5F01C080E0282F220F482F83
:1033300050E0FE0101900020E9F73197EC1BFD0BF6
:103340004E175F0710F48613CECFDF91CF911F91F8
:103350000F910895FC0180810895FC01208181E096
:1033600090E002C0880F991F6A95E2F782230895C2
:10337000FC01808186230895FC0160830895FC018F
:1033800010820895FC01408121E030E002C0220F4C
:10339000331F6A95E2F7242B20830895FC012081D6
:1033A000622B60830895FC01408121E030E002C07F
:1033B000220F331F6A95E2F7242720830895FC012A
:1033C0002081622760830895FC01908121E030E034
:1033D00002C0220F331F6A95E2F72095292320832C
:1033E0000895FC0190816095692360830895809120
:1033F0003308860F8093330890913608913079F026
:1034000028F09230A9F0933019F108956F3F09F038
:1034100048C01092330881E08093360808956638DA
:1034200009F03FC01092320882E080933608089578
:10343000E091320881E08E0F80933208F0E0E05D89
:10344000F74F6083823069F583E0809336080895F2
:103450009091320821E0290F20933208963009F527
:1034600081110EC0E0E3F8E0808190E0982F88277A
:103470002181820F911D909338088093370804C0F2
:10348000109238081092370810923608E0913408EC
:10349000F0913508309729F08091370890913808DD
:1034A000199508958F929F92AF92CF92EF920F93BA
:1034B000CF93DF93EB010F2EF7EF8F2EF9E19F2EC5
:1034C000F02D6894AA24A4F86894CC24C4F8E12CC4
:1034D00000E023E040E855E260E070E011D0909316
:1034E0003A0880933908D0933508C0933408DF91A7
:1034F000CF910F91EF90CF90AF909F908F900895C4
:103500002F923F924F925F926F927F928F929F92F3
:10351000AF92CF92EF92FF920F931F93CF93DF93CF
:10352000CDB7DEB7F82E2A013B0188E090E093D6B4
:103530008C018F2D90E0880F991FFC01E55CF74FFF
:1035400011830083FC01EA5FFD4F80819181D801E6
:103550008D939C936C2D70E084E090E062D61C010A
:1035600061E070E086E090E05CD67C014C2DB1011A
:103570004AD4F801F582E4826A2D70E084E090E09C
:1035800050D61C0161E070E086E090E04AD67C01F4
:103590004A2DB10138D4D8011396FC92EE921297BD
:1035A00017969C928E921697FFB6F894ED91FC9127
:1035B000119736978081826080838D909C90C301A3
:1035C000B20136D520E030E040E051E4BFD59B01A8
:1035D000AC0160E074E284E79BE496D420E030E044
:1035E00040E85FE32CD4F8D4F40132976083D8012B
:1035F000ED91FC911197359788E98083ED91FC91CD
:10360000349786E08083FFBEC801DF91CF911F9180
:103610000F91FF90EF90CF90AF909F908F907F9001
:103620006F905F904F903F902F900895CF93DF93CE
:10363000EC01EA81FB81938182812581981B922391
:1036400084819817A1F0938126952923A081B181C7
:10365000A20FB11D6C939F5F258192239383E88114
:10366000F981359780818062808380E001C082E0AB
:10367000DF91CF910895EF92FF920F931F93CF9315
:10368000DF937C01DC011296ED91FC9113979381FD
:103690008281981B858198238481891B861798F1E4
:1036A000662341F1842F952FDC016150462F50E0B5
:1036B0004F5F5F4F480F591FE701EA81FB819381FC
:1036C00082812581981B92238481981779F08C91AF
:1036D000938126952923608171818B01020F111D31
:1036E000E80188839F5F8581982393831196A417AF
:1036F000B50711F7D701ED91FC9135978081806274
:10370000808380E001C082E0DF91CF911F910F9113
:10371000FF90EF900895DC011496ED91FC911597C0
:1037200093818281981789F092818581869589237A
:10373000A081B181A80FB11D8C91DB018C939F5F9B
:1037400085819823928380E0089583E008951F92F5
:103750000F920FB60F9211240BB60F922F933F9337
:103760004F935F936F937F938F939F93AF93BF9389
:10377000CF93DF93EF93FF93A0913B08B0913C0868
:10378000109711F16091C6001496ED91FC91159778
:10379000938182812581981B92238481981761F0FF
:1037A000838126952823C081D181C20FD11D6883D2
:1037B0008F5F9581892383831696ED91FC911797EE
:1037C000309711F0CD011995FF91EF91DF91CF91D5
:1037D000BF91AF919F918F917F916F915F914F9129
:1037E0003F912F910F900BBE0F900FBE0F901F9027
:1037F00018951F920F920FB60F9211240BB60F92CD
:103800002F938F939F93AF93BF93EF93FF93E09189
:103810003B08F0913C083097B9F00280F381E02D2D
:10382000938182819817B1F092818581282F269506
:103830002923A081B181A20FB11D2C919F5F892303
:1038400082832093C6000BC0E1ECF0E080818F7D85
:10385000808305C0E1ECF0E080818F7D8083FF9163
:10386000EF91BF91AF919F918F912F910F900BBED0
:103870000F900FBE0F901F9018951F920F920FB6CA
:103880000F9211240BB60F922F933F934F935F9398
:103890006F937F938F939F93AF93BF93CF93DF9358
:1038A000EF93FF93A0913D08B0913E08109711F15E
:1038B0006091CE001496ED91FC91159793818281D1
:1038C0002581981B92238481981761F08381269526
:1038D0002823C081D181C20FD11D68838F5F95815C
:1038E000892383831696ED91FC911797309711F0F9
:1038F000CD011995FF91EF91DF91CF91BF91AF91DC
:103900009F918F917F916F915F914F913F912F91F7
:103910000F900BBE0F900FBE0F901F9018951F9227
:103920000F920FB60F9211240BB60F922F938F9315
:103930009F93AF93BF93EF93FF93E0913D08F09176
:103940003E083097B9F00280F381E02D93818281A7
:103950009817B1F092818581282F26952923A0817F
:10396000B181A20FB11D2C919F5F89238283209387
:10397000CE000BC0E9ECF0E080818F7D808305C034
:10398000E9ECF0E080818F7D8083FF91EF91BF9122
:10399000AF919F918F912F910F900BBE0F900FBE03
:1039A0000F901F9018951F920F920FB60F9211242F
:1039B0000BB60F922F933F934F935F936F937F9329
:1039C0008F939F93AF93BF93CF93DF93EF93FF9327
:1039D000A0913F08B0914008109711F16091D60076
:1039E0001496ED91FC911597938182812581981B06
:1039F00092238481981761F0838126952823C081C2
:103A0000D181C20FD11D68838F5F95818923838304
:103A10001696ED91FC911797309711F0CD011995FD
:103A2000FF91EF91DF91CF91BF91AF919F918F91D6
:103A30007F916F915F914F913F912F910F900BBEAE
:103A40000F900FBE0F901F9018951F920F920FB6F8
:103A50000F9211240BB60F922F938F939F93AF93D6
:103A6000BF93EF93FF93E0913F08F09140083097A8
:103A7000B9F00280F381E02D938182819817B1F033
:103A800092818581282F26952923A081B181A20FBB
:103A9000B11D2C919F5F892382832093D6000BC098
:103AA000E1EDF0E080818F7D808305C0E1EDF0E005
:103AB00080818F7D8083FF91EF91BF91AF919F9126
:103AC0008F912F910F900BBE0F900FBE0F901F90F4
:103AD00018951F920F920FB60F9211240BB60F92EA
:103AE0002F933F934F935F936F937F938F939F9306
:103AF000AF93BF93CF93DF93EF93FF93A0914108D0
:103B0000B0914208109711F1609136011496ED9131
:103B1000FC911597938182812581981B9223848142
:103B2000981761F0838126952823C081D181C20F27
:103B3000D11D68838F5F9581892383831696ED91CC
:103B4000FC911797309711F0CD011995FF91EF91E6
:103B5000DF91CF91BF91AF919F918F917F916F91A5
:103B60005F914F913F912F910F900BBE0F900FBE21
:103B70000F901F9018951F920F920FB60F9211245D
:103B80000BB60F922F938F939F93AF93BF93EF93A7
:103B9000FF93E0914108F09142083097B9F002801C
:103BA000F381E02D938182819817B1F09281858114
:103BB000282F26952923A081B181A20FB11D2C9118
:103BC0009F5F89238283209336010BC0E1E3F1E0FC
:103BD00080818F7D808305C0E1E3F1E080818F7D6E
:103BE0008083FF91EF91BF91AF919F918F912F9122
:103BF0000F900BBE0F900FBE0F901F901895CF9394
:103C0000DF931F92CDB7DEB7BE016F5F7F4F80910C
:103C10004308909144087FDD8111F6CF898190E0BF
:103C20000F90DF91CF910895682F80914308909174
:103C30004408FCDC80E090E008958F929F92AF9260
:103C4000CF92EF920F93812C912C6894AA24A7F81D
:103C50006894CC24C7F8E12C00E023E040E051EE6A
:103C600060E070E04DDC9093440880934308E1E805
:103C7000F8E08EE092E091838083938382830F91BA
:103C8000EF90CF90AF909F908F9008951F920F92DA
:103C90000FB60F9211240BB60F922F933F934F93B1
:103CA0005F936F937F938F939F93AF93BF93EF93A4
:103CB000FF93E091B9008E2F90E0FC013897E13539
:103CC000F10508F075C08827E458FF4F8F4FA1C257
:103CD00010924508E091450880914808E81770F473
:103CE00081E08E0F80934508F0E0E75BF74F80811D
:103CF0008093BB0085E88093BC0072C084E9809308
:103D0000BC008091460890914708DC011296ED9125
:103D1000FC911397309709F463C020E040E050E035
:103D200064E019955DC0E091450881E08E0F8093B5
:103D300045088091BB00F0E0E75BF74F80838091FE
:103D4000B900803411F4109245082091450830E004
:103D50008091480890E001972817390724F485ECF2
:103D60008093BC003DC085E88093BC0039C0809141
:103D7000BB00E0914508F0E0E75BF74F808384E902
:103D80008093BC008091460890914708DC01129610
:103D9000ED91FC911397309719F12091480849E46F
:103DA00058E065E019951CC085EA8093BC0018C0F6
:103DB0008091B90080931C0284E08093BC008091C4
:103DC000460890914708DC011296ED91FC911397FB
:103DD000309731F020E040E050E060911C021995EE
:103DE000FF91EF91BF91AF919F918F917F916F91D3
:103DF0005F914F913F912F910F900BBE0F900FBE8F
:103E00000F901F901895FC01411101C045D3842FDC
:103E100090E09C012150310982239323892B09F0E2
:103E20003BD3413808F038D3128213824483440FC5
:103E3000415045837183608380E090E0089550583D
:103E4000BB27AA270ED048C139D130F03ED120F08F
:103E500031F49F3F11F41EF42EC10EF4E095E7FB00
:103E600024C1E92F4AD180F3BA1762077307840788
:103E7000950718F071F49EF562C10EF4E0950B2ED3
:103E8000BA2FA02D0B01B90190010C01CA01A001AC
:103E90001124FF27591B99F0593F50F4503E68F107
:103EA0001A16F040A22F232F342F4427585FF3CF48
:103EB000469537952795A795F0405395C9F77EF419
:103EC0001F16BA0B620B730B840BBAF09150A1F062
:103ED000FF0FBB1F661F771F881FC2F70EC0BA0FE8
:103EE000621F731F841F48F4879577956795B79570
:103EF000F7959E3F08F0B3CF9395880F08F0992768
:103F0000EE0F9795879508950CD0E6C0DED040F06F
:103F1000D5D030F021F45F3F19F0C7C0511110C166
:103F2000CAC0EBD098F39923C9F35523B1F3951B7D
:103F3000550BBB27AA2762177307840738F09F5FCA
:103F40005F4F220F331F441FAA1FA9F333D00E2E39
:103F50003AF0E0E830D091505040E695001CCAF7A6
:103F600029D0FE2F27D0660F771F881FBB1F26176B
:103F700037074807AB07B0E809F0BB0B802DBF013E
:103F8000FF2793585F4F2AF09E3F510568F08DC080
:103F9000D7C05F3FECF3983EDCF386957795679545
:103FA000B795F7959F5FC9F7880F911D96958795EF
:103FB00097F90895E1E0660F771F881FBB1F62170E
:103FC00073078407BA0720F0621B730B840BBA0BCC
:103FD000EE1F88F7E095089598D088F09F5790F0ED
:103FE000B92F9927B751A0F0D1F0660F771F881F1E
:103FF000991F1AF0BA95C9F712C0B13081F09FD05D
:10400000B1E008959CC0672F782F8827B85F39F0FA
:10401000B93FCCF3869577956795B395D9F73EF47C
:1040200090958095709561957F4F8F4F9F4F089524
:10403000E89409C097FB3EF4909580957095619542
:104040007F4F8F4F9F4F9923A9F0F92F96E9BB27F8
:104050009395F695879577956795B795F111F8CF74
:10406000FAF4BB0F11F460FF1BC06F5F7F4F8F4FDF
:104070009F4F16C0882311F096E911C0772321F0D5
:104080009EE8872F762F05C0662371F096E8862F6D
:1040900070E060E02AF09A95660F771F881FDAF7C4
:1040A000880F9695879597F9089597F99F6780E807
:1040B00070E060E008959FEF80EC089500240A947A
:1040C0001616170618060906089500240A941216F3
:1040D0001306140605060895092E0394000C11F426
:1040E000882352F0BB0F40F4BF2B11F460FF04C0D3
:1040F0006F5F7F4F8F4F9F4F089557FD9058440F2C
:10410000551F59F05F3F71F04795880F97FB991F36
:1041100061F09F3F79F087950895121613061406F3
:10412000551FF2CF4695F1DF08C016161706180680
:10413000991FF1CF86957105610508940895E8945B
:10414000BB2766277727CB0197F908950BD0C4CFFB
:10415000B5DF28F0BADF18F0952309F0A6CFABCF72
:104160001124EECFCADFA0F3959FD1F3950F50E055
:10417000551F629FF001729FBB27F00DB11D639F19
:10418000AA27F00DB11DAA1F649F6627B00DA11DBF
:10419000661F829F2227B00DA11D621F739FB00D65
:1041A000A11D621F839FA00D611D221F749F3327D5
:1041B000A00D611D231F849F600D211D822F762F6E
:1041C0006A2F11249F5750408AF0E1F088234AF06B
:1041D000EE0FFF1FBB1F661F771F881F91505040B7
:1041E000A9F79E3F510570F060CFAACF5F3FECF377
:1041F000983EDCF3869577956795B795F795E795A3
:104200009F5FC1F7FE2B880F911D9695879597F9B3
:104210000895EE0FFF1F881F8BBF0790F691E02DCA
:1042200019940F931F93CF93DF93869F8001879FED
:10423000100D969F100D1124C8010DD0EC010097B0
:1042400021F0A80160E070E034D1CE01DF91CF9180
:104250001F910F9108950F931F93CF93DF93823097
:10426000910510F482E090E0E0917F08F0918008E1
:1042700020E030E0A0E0B0E0309719F140815181BA
:104280000281138148175907C8F08417950769F40C
:10429000109731F012960C93129713961C9327C027
:1042A00000937F081093800822C02115310519F072
:1042B0004217530718F49A01BD01EF01DF01F8011D
:1042C000DBCF21153105F9F0281B390B24303105DE
:1042D00080F48A819B816115710521F0FB01938334
:1042E000828304C09093800880937F08FE013296F9
:1042F00044C0FE01E20FF31F8193919322503109D4
:10430000398328833AC020917D0830917E08232B81
:1043100041F4209102023091030230937E082093F1
:104320007D0820910002309101022115310541F4F0
:104330002DB73EB74091040250910502241B350B66
:10434000E0917D08F0917E08E217F307A0F42E1BA0
:104350003F0B2817390778F0AC014E5F5F4F2417E9
:10436000350748F04E0F5F1F50937E0840937D083D
:104370008193919302C0E0E0F0E0CF01DF91CF9113
:104380001F910F910895CF93DF93009709F481C097
:10439000FC01329713821282A0917F08B0918008AD
:1043A000109781F420813181820F931F20917D0825
:1043B00030917E082817390751F5F0937E08E09375
:1043C0007D0867C0ED0120E030E0CE17DF0740F444
:1043D0004A815B819E0141155105F1F0EA01F5CF5B
:1043E000D383C28340815181840F951FC817D90799
:1043F00059F488819981840F951F02969183808357
:104400008A819B81938382832115310529F4F0935E
:104410008008E0937F083DC0E901FB83EA8349916E
:104420005991C40FD51FEC17FD0761F4808191816C
:10443000840F951F0296E901998388838281938175
:104440009B838A83E0E0F0E012968D919C91139714
:10445000009719F0FD01DC01F7CF8D919C91119728
:104460009D012E5F3F4F820F931F20917D08309159
:104470007E082817390769F4309729F410928008CC
:1044800010927F0802C013821282B0937E08A0931C
:104490007D08DF91CF91089581E090E0F89458C3B2
:1044A000FB01DC0102C001900D9241505040D8F751
:1044B0000895DC0101C06D9341505040E0F708952C
:1044C000FB01DC010D900020E9F7119701900D929E
:1044D0000020E1F70895FB01DC0101900D9200201E
:1044E000E1F70895FB01DC014150504088F08D91C7
:1044F00081341CF08B350CF4805E619161341CF0CA
:104500006B350CF4605E861B611171F3990B089595
:10451000881BFCCFCF93DF93CDB7DEB7AE014A5FE8
:104520005F4FFA0161917191AF0180918308909181
:10453000840861D0DF91CF9108950F931F93CF939B
:10454000DF93E0918308F0918408238121FF1BC051
:104550008C01D0E0C0E0F80181918F016091830867
:1045600070918408DB011896ED91FC9119978823CE
:1045700031F01995892B79F3DFEFCFEFECCF8AE09B
:104580001995892B19F08FEF9FEF02C08D2F9C2F6B
:10459000DF91CF911F910F9108950F931F93CF93A8
:1045A000DF93CDB7DEB72E970FB6F894DEBF0FBE00
:1045B000CDBF0E891F8986E08C831A8309838FEF14
:1045C0009FE79E838D83AE01465E5F4F688D798D38
:1045D000CE01019610D0EF81F885E00FF11F108217
:1045E0002E960FB6F894DEBF0FBECDBFDF91CF91F0
:1045F0001F910F9108952F923F924F925F926F9269
:104600007F928F929F92AF92BF92CF92DF92EF9262
:10461000FF920F931F93CF93DF93CDB7DEB72B9706
:104620000FB6F894DEBF0FBECDBF6C017B018A01CF
:10463000FC0117821682838181FFBFC1CE010196E2
:104640003C01F6019381F70193FD859193FF8191E0
:104650007F01882309F4ADC1853239F493FD85913A
:1046600093FF81917F01853221F4B60190E0D6D18C
:10467000E8CF912C212C312CFFE1F315D8F08B32AF
:1046800079F038F4803279F08332A1F4232D20615F
:104690001DC08D3261F0803369F4232D216016C076
:1046A000832D8260382EE32DE4603E2E2AC0F32D48
:1046B000F8601DC037FC2DC020ED280F2A3040F0D7
:1046C0008E32B9F436FC75C1232D2064322E19C008
:1046D00036FE06C08AE0989E200D1124922E11C04D
:1046E000EAE02E9E200D1124222EF32DF0623F2EA3
:1046F00008C08C3621F4832D8068382E02C088369D
:1047000041F4F70193FD859193FF81917F01811120
:10471000B3CF982F9F7D9554933028F40C5F1F4F93
:104720009FE399830DC0833631F0833771F0833571
:1047300009F055C020C0F801808189830E5F1F4FAA
:1047400088248394912C530112C02801F2E04F0E6B
:10475000511CF801A080B18036FE03C0692D70E0C5
:1047600002C06FEF7FEFC5014ED14C018201F32DE6
:10477000FF773F2E15C0280122E0420E511CF801A0
:10478000A080B18036FE03C0692D70E002C06FEFDB
:104790007FEFC5012DD14C01F32DF0683F2E820132
:1047A00033FC19C0822D90E088169906A0F4B6015A
:1047B00080E290E033D12A94F5CFF50137FC859162
:1047C00037FE81915F01B60190E028D121102A9433
:1047D00021E0821A91088114910479F7E1C08436AE
:1047E00011F0893639F5F80137FE07C06081718113
:1047F000828193810C5F1F4F08C060817181072EF9
:10480000000C880B990B0E5F1F4FF32DFF763F2E88
:1048100097FF09C090958095709561957F4F8F4F58
:104820009F4FF0683F2E2AE030E0A30133D1882E5D
:10483000861844C0853731F4232D2F7EB22E2AE00E
:1048400030E025C0932D997FB92E8F36C1F018F432
:10485000883579F0AEC0803719F0883721F0A9C0CB
:10486000E92FE061BE2EB4FE0DC0FB2DF460BF2E1B
:1048700009C034FE0AC0292F2660B22E06C028E0E7
:1048800030E005C020E130E002C020E132E0F80174
:10489000B7FE07C060817181828193810C5F1F4FD9
:1048A00006C06081718180E090E00E5F1F4FA30120
:1048B000F1D0882E8618FB2DFF773F2E36FE0DC0D7
:1048C000232D2E7FA22E891458F434FE0BC032FC07
:1048D00009C0832D8E7EA82E05C0B82CA32C03C042
:1048E000B82C01C0B92CA4FE0FC0FE01E80DF11DCB
:1048F0008081803321F49A2D997EA92E09C0A2FED1
:1049000006C0B394B39404C08A2D867809F0B3949A
:10491000A3FC10C0A0FE06C0B21480F4280C922C98
:104920009B180DC0B21458F4B60180E290E076D026
:10493000B394F8CFB21418F42B1802C0982C212C81
:10494000A4FE0FC0B60180E390E068D0A2FE16C0BE
:10495000A1FC03C088E790E002C088E590E0B601C2
:104960000CC08A2D867851F0A1FE02C08BE201C0F6
:1049700080E2A7FC8DE2B60190E050D0891430F4BB
:10498000B60180E390E04AD09A94F8CF8A94F3017C
:10499000E80DF11D8081B60190E040D08110F6CF86
:1049A000222009F44ECEB60180E290E037D02A945E
:1049B000F7CFF6018681978102C08FEF9FEF2B968C
:1049C0000FB6F894DEBF0FBECDBFDF91CF911F9120
:1049D0000F91FF90EF90DF90CF90BF90AF909F909E
:1049E0008F907F906F905F904F903F902F900895A1
:1049F000FC010590615070400110D8F780959095AA
:104A00008E0F9F1F0895FC016150704001900110AE
:104A1000D8F7809590958E0F9F1F08950F931F9341
:104A2000CF93DF93FB01238121FD03C08FEF9FEF25
:104A30002CC022FF16C04681578124813581421740
:104A4000530744F4A081B1819D012F5F3F4F318313
:104A500020838C93268137812F5F3F4F37832683B6
:104A600014C08B01EC01FB010084F185E02D199548
:104A7000892BE1F6D80116968D919C911797019696
:104A800017969C938E931697CE01DF91CF911F912D
:104A90000F910895FA01AA27283051F1203181F1B0
:104AA000E8946F936E7F6E5F7F4F8F4F9F4FAF4F36
:104AB000B1E03ED0B4E03CD0670F781F891F9A1F49
:104AC000A11D680F791F8A1F911DA11D6A0F711DFD
:104AD000811D911DA11D20D009F468943F912AE009
:104AE000269F11243019305D3193DEF6CF010895F1
:104AF000462F4770405D4193B3E00FD0C9F7F6CF22
:104B0000462F4F70405D4A3318F0495D31FD4052E9
:104B1000419302D0A9F7EACFB4E0A695979587957F
:104B200077956795BA95C9F700976105710508955E
:104B30009B01AC010A2E069457954795379527950A
:104B4000BA95C9F7620F731F841F951FA01D0895A2
:044B5000F894FFCF07
:104B5400000087082000C600CE00D6003601000001
:104B6400000300000000141EFF1D0000F8A027BE73
:104B740033E034C1332042C43360E5AE33A0F2B134
:104B840033E0FFB433200DB833601ABB3349444CCF
:104B94004500546D722053766300464143544F528E
:104BA400595F52455345545F4641494C555245203F
:104BB40000434F4E4649475552455F425245414B8B
:104BC4002000485755495F4552524F5220002573E3
:104BD4002C204445565F455549200A006439346405
:104BE4003339396634376635653335356162626326
:104BF40032663633616439313831653100653534B4
:104C0400353963326166326439303631660049447D
:104C1400454E544954595F425245414B20004C4F34
:104C240052415F414343455054454420004C4F5248
:104C3400415F44454E494544004C4F52415F414316
:104C4400434550544544006C6F72612073656E6433
:104C54000053454E44202121003C25693E007461E7
:104C6400736B206C6F7261004C6F52612073656EC0
:104C740064206461746100434F322076616C756511
:104C8400203D202564200A0074656D702076616CD7
:104C94007565203D202569200A0068756D207661C0
:104CA4006C7565203D202564200A00776520646FBB
:104CB4006E7420686176652000756E626C6F636B3C
:104CC400206C6F72612073656D6170686F7265200E
:104CD40000434F322054696D65720054656D702035
:104CE40048756D2054696D6572004C6F5261205493
:104CF400696D65720048414C206C65642074617371
:104D04006B207374617274656421210048414C5FA7
:104D14004C454400737973207265736574006D614A
:104D240063207061757365006D61632072657375CE
:104D34006D650073797320666163746F727952458F
:104D440053455400737973206765742068776575DB
:104D540069006D6163206765742067776E62006D1A
:104D6400616320736574206C696E6B63686B2025C6
:104D740064006D616320736574206465766575698C
:104D8400006D6163207365742061707065756900DE
:104D94006D616320736574206170706B6579006D5B
:104DA400616320736574206E776B736B6579006D36
:104DB40061632073657420617070736B6579006D35
:104DC4006163207365742064657661646472006D48
:104DD40061632073617665006D6163206A6F696E3B
:104DE40000756E636E66006D6163207478202573B0
:104DF400202564202573006F6666006D616320734F
:104E0400657420616472006D61632067657420615C
:104E14006472006D6163207365742064722025647C
:104E2400006D616320676574206472006D616320A6
:104E340073657420727864656C617931202564002F
:104E44003320383639353235303030006D616320E7
:104E540073657420727832006D6163207365742009
:104E6400636820646379636C65202564203739396D
:104E7400006D6163207365742063682066726571D8
:104E840020256420256C75006D6163207365742092
:104E9400636820647272616E676520256420302027
:104EA40037006D61632073657420636820737461D7
:104EB400747573202564206F6E006D6163207365C3
:104EC40074207077726964782031006D6163207397
:104ED400657420726574782037006F7461610061B5
:104EE4006270004B4559535F4E4F545F494E4954CD
:104EF400004E4F5F465245455F43480053494C4579
:104F04004E540042555359004D41435F504155534F
:104F1400454400494E56414C49445F504152414D2D
:104F2400004E4F545F4A4F494E454400494E564146
:104F34004C49445F444154415F4C454E0046524104
:104F44004D455F434F554E5445525F4552525F5253
:104F5400454A4F494E5F4E4545444544004D414303
:104F64005F54585F4F4B004D41435F52585F4F4B66
:104F7400004D41435F4552524F5200554E4B4E4FE8
:104F8400574E008A058F05001E060125060293056B
:104F940003A10504AC0505B30506B80507E202083C
:104FA400EE0209C3050AD1050BDC050CED050D0D58
:0A4FB400060E17060F2106102B064B
:00000001FF
