S01600004D79466972737450726F6A6563742E7372656369
S1130000B2C10000D1C10000CFC10000CDC10000C9
S1130010CBC10000C9C10000C7C10000C5C10000B8
S1130020C3C10000C1C10000BFC10000BDC10000C8
S1130030ECC30000B9C10000B7C10000B5C10000A5
S1130040B3C10000B1C10000AFC10000ADC10000E8
S1130050ABC10000A9C10000A7C10000A5C10000F8
S1130060A3C10000A1C100009FC100009DC1000008
S11300709BC1000099C1000097C1000095C1000018
S113008093C1000091C100008FC100008DC1000028
S11300908BC1000089C1000087C1000085C1000038
S11300A083C1000081C100007FC100007DC1000048
S11300B07BC1000079C1000077C1000075C1000058
S11300C073C1000071C100006FC100006DC1000068
S11300D06BC1000069C1000067C1000065C1000078
S11300E063C1000043014301430172017A018901A4
S11300F04301430172017A010CE212E00F2EF4E590
S1130100EF2EF2E0FF2EF02D80912B02882311F1C7
S11301100FB6F8940F92D8011596ED91FC911697AD
S1130120C681D781CE010296D8D180912102815017
S11301308093210280912B02815080932B020F9097
S11301400FBE8F89988D58D1CE0156D180912B0244
S11301508111DECFF7018081823008F093D20E94B2
S1130160590CD2CFCF93DF9300D000D0CDB7DEB7F8
S1130170CE0101964C0144244394E12CF12C512CE2
S1130180C82ED92CE0918202F091830280818823C9
S113019009F4D6C00580F681E02DA080B18092D705
S11301A0C4010E94EB0B8C018981811148C00A159E
S11301B01B05B0F10E942909E0918202F0918302AB
S11301C00580F681E02D66807780C301029685D193
S11301D0D30153968C91539782FF17C01C966D914F
S11301E07C911D976A0D7B1D9501A801C3010E9496
S11301F0300B882369F00E2D1F2D2E2D3F2DA501C8
S1130200652DC3010E94A70B03C08E7FF301838B6E
S1130210D3015096ED91FC915197C301199584C077
S1130220452DB501601B710B80917E0290917F0278
S11302307DD50E942909811177C024D275C00E94FE
S1130240290972C0898188230CF46EC0AC80BD80FA
S1130250F50182859385892B19F0C50102963DD15C
S1130260CE0106960E94EB0BAC01E9810E2E000C28
S1130270FF0BEA30F10508F057C08827EE58FF4F0E
S11302808F4F0C947B0CD50153968C9153978160BE
S113029053968C9353972A813B811C966D917C9144
S11302A01D97620F731FC5010E94300B8823E1F173
S11302B0D5015096ED91FC915197C5011995F50121
S11302C0838982FF31C04A815B8184859585480F8B
S11302D0591F0E2D1F2D2E2D3F2D652DC5010E945A
S11302E0A70B22C0D50153968C9153978E7F5396BA
S11302F08C931AC0F50183898160838B6A817B8129
S113030075876487640F751F9A01C5010E94300BBD
S11303100BC0D50153968C9181FD03C0C5016CD0EF
S113032003C08E7FF501838B4E2D5F2D6C2D7D2DAB
S113033080917E0290917F0270D4811183CF22CF6D
S1130340C1D6C4010E94EB0B8C018981811177CF46
S1130350E0918002F09181028081442D8111452D2C
S1130360AE2CBF2C5ECF11241FBECFEFD1E2DEBF77
S1130370CDBF00E00CBF12E0A0E0B2E0ECE6FBE190
S113038000E00BBF02C007900D92A431B107D9F76A
S113039022E0A4E1B2E001C01D92AA39B207E1F75C
S11303A00E94740C0C94B40D2BCEE7E0F1E0808134
S11303B08F6080830895E8E0F1E09081907F9083DE
S11303C090818F70982B90830895E8E0F1E080810C
S11303D0807F80830895CF93DF93EC0173D6CE01A1
S11303E00E94830CEC0135D7209711F40E945A0C1B
S11303F0CE01DF91CF910895CF93DF93009731F031
S1130400EC0160D6CE010E941B0D23D7DF91CF9162
S11304100895FC010396928381832FEF3FEF348389
S11304202383968385839087878310820895FC01B4
S1130430118610860895CF93DF939C01FB01DC01A4
S11304401196CD91DC911297D383C2838C819D81C7
S1130450958384838C819D81DC0113967C936E93B8
S113046012977D836C8331872087F90180818F5FA8
S11304708083DF91CF910895CF93DF93EB0148817F
S113048059814F3F2FEF520721F4FC01A781B0851A
S11304900DC0DC01139601C0DF011296ED91FC91B1
S11304A013972081318142175307B0F71296ED91CB
S11304B0FC911397FB83EA83D583C483BD83AC8308
S11304C01396DC93CE93129799878887FC01208139
S11304D02F5F2083DF91CF910895CF93DF93FC01A9
S11304E0A085B185C281D381848195819D838C83CC
S11304F0C481D581828193819B838A8311968D9156
S11305009C911297E817F90731F48481958112962A
S11305109C938E931197118610868C9181508C93A5
S11305208C91DF91CF91089531E1FC0130833197B3
S113053022E220833197A3E3A0833197608331972C
S113054070833197108231971082319760E860830D
S1130550319710823197108231971082319762E07F
S11305606083319763E06083319764E060833197FF
S113057065E06083319766E06083319767E060836C
S1130580319768E06083319769E06083319760E177
S1130590608331973083319732E13083319733E18F
S11305A03083319734E13083319735E130833197AB
S11305B036E13083319737E13083319738E1308346
S11305C0319739E13083319730E23083319731E22A
S11305D0308331972083319723E2208331974083FE
S11305E031975083319726E22083319727E2208385
S11305F0319728E22083319729E22083319720E341
S11306002083319721E3208389970895A89590EC5E
S113061088E10FB6F894A895809360000FBE90937C
S11306206000A0917802B0917902CD91CDBFDD91A7
S1130630DEBFFF91EF91DF91CF91BF91AF919F9179
S11306408F917F916F915F914F913F912F911F9166
S11306500F91FF90EF90DF90CF90BF90AF909F905D
S11306608F907F906F905F904F903F902F901F904E
S11306700F900CBE0F900BBE0F900FBE0F900895FD
S113068081E008950F920FB6F8940F920BB60F9273
S11306900CB60F921F9211242F923F924F925F92A9
S11306A06F927F928F929F92AF92BF92CF92DF927E
S11306B0EF92FF920F931F932F933F934F935F9368
S11306C06F937F938F939F93AF93BF93CF93DF9356
S11306D0EF93FF93A0917802B09179020DB60D9239
S11306E00EB60D922FD6A0917802B0917902CD91D9
S11306F0CDBFDD91DEBFFF91EF91DF91CF91BF912F
S1130700AF919F918F917F916F915F914F913F91A5
S11307102F911F910F91FF90EF90DF90CF90BF909A
S1130720AF909F908F907F906F905F904F903F908D
S11307302F901F900F900CBE0F900BBE0F900FBE0A
S11307400F9008950F920FB6F8940F920BB60F9274
S11307500CB60F921F9211242F923F924F925F92E8
S11307606F927F928F929F92AF92BF92CF92DF92BD
S1130770EF92FF920F931F932F933F934F935F93A7
S11307806F937F938F939F93AF93BF93CF93DF9395
S1130790EF93FF93A0917802B09179020DB60D9278
S11307A00EB60D9213BE9ED48111CCD5A0917802C1
S11307B0B0917902CD91CDBFDD91DEBFFF91EF9174
S11307C0DF91CF91BF91AF919F918F917F916F9165
S11307D05F914F913F912F911F910F91FF90EF9057
S11307E0DF90CF90BF90AF909F908F907F906F904D
S11307F05F904F903F902F901F900F900CBE0F90E2
S11308000BBE0F900FBE0F9008959CDF18950FB686
S1130810F8940F92FC01928D0F900FBE81E091111C
S113082080E008950F931F93CF93DF93EC01042F7F
S11308301A8D4C8D41110BC088819981892B09F047
S113084041C08C819D81CCD61D821C8242C0011185
S113085017C050E08A819B810E94A40D2C8D8A814F
S11308609B81820F911D9B838A832C813D818217FA
S1130870930750F1888199819B838A8380E029C002
S113088050E08E819F810E94A40D8C8D90E0919503
S1130890819591092E813F81280F391F3F832E8333
S11308A0488159812417350730F42C813D81820F0A
S11308B0931F9F838E83023049F4112349F0115012
S11308C080E007C080E005C080E003C080E001C094
S11308D080E01F5F1A8FDF91CF911F910F910895D0
S11308E0FC01448D4423A9F050E026813781240F74
S11308F0351F37832683848195812817390720F093
S11309008081918197838683CB01668177810C9462
S1130910A40D0895EF92FF920F931F93CF938C0130
S11309200FB6F8940F92FC01C68D1C169CF48189B5
S1130930811106C00FC0F8018189811105C00AC068
S11309407801F1E1EF0EF11CC701B1D5811136D662
S1130950C15089F78FEFF801868F0F900FBE0FB645
S1130960F8940F92C58D1C169CF48085811106C0E5
S11309700FC0F8018085811105C00AC07801F8E034
S1130980EF0EF11CC70193D5811118D6C15089F718
S11309908FEFF801858F0F900FBECF911F910F91AC
S11309A0FF90EF900895CF93DF93EC010FB6F89486
S11309B00F92E881F9818B8D2C8D90E030E0829F3D
S11309C0A001839F500D929F500D11244E0F5F1F65
S11309D05D834C831A8EFB83EA830197829FA00177
S11309E0839F500D929F500D1124CF01840F951FAA
S11309F09F838E838FEF8D8F8E8F61110AC08885C0
S1130A00882369F0CE01089652D5882341F03ADE56
S1130A1006C0CE010896FDDCCE014196FADC0F90AB
S1130A200FBE81E0DF91CF910895FF920F931F9342
S1130A30CF93DF93082F162FF42E6623B9F0869FE9
S1130A40C00111248196C7DCEC01009741F414C065
S1130A500B8F1C8F61E0CE01A6DFF8A20DC081963A
S1130A6099838883F5CFD983C883F2CF81E290E05C
S1130A70B2DCEC01892BB9F7CE01DF91CF911F9144
S1130A800F91FF9008959F92AF92BF92CF92DF9201
S1130A90EF92FF920F931F93CF93DF9300D01F9297
S1130AA01F92CDB7DEB78C016B015D834C83A22E00
S1130AB0B12C992493947C0188E0E80EF11C0FB6C4
S1130AC0F8940F92F801928D838D981718F0F2E044
S1130AD0AF1215C04A2DB601C801A4DEF8019189F0
S1130AE0992339F0C8014196E2D4882321F0CADD64
S1130AF002C08111C7DD0F900FBE81E045C08C811B
S1130B009D81892B21F40F900FBE80E03DC0B11070
S1130B1004C0CE01019612D5B92C0F900FBED2D2CB
S1130B200FB6F8940F92F801858D8F3F09F4158E56
S1130B30F801868D8F3F09F4168E0F900FBEBE010B
S1130B406C5F7F4FCE01019604D5811119C00FB699
S1130B50F8940F92F801928D838D0F900FBE981325
S1130B600BC06C817D81C7017AD4C801D3DE71D3F7
S1130B708111A5CF87DDA3CFC801CCDE6AD39FCF77
S1130B80C801C8DE66D380E00F900F900F900F90DD
S1130B900F90DF91CF911F910F91FF90EF90DF9015
S1130BA0CF90BF90AF909F900895EF92FF920F93D4
S1130BB01F93CF93DF938A01FC01528D338D53171A
S1130BC010F02230E1F4422F7801EC011E8D2ADE70
S1130BD01F3F79F489898823A1F0CE01419667D417
S1130BE0882389F0E114F10481F081E0F701808326
S1130BF00DC0FF24F394F10EFE8E81E007C080E067
S1130C0005C081E003C081E001C081E0DF91CF91A4
S1130C101F910F91FF90EF9008959F92AF92BF9212
S1130C20CF92DF92EF92FF920F931F93CF93DF93B4
S1130C3000D01F921F92CDB7DEB78C015B015D839C
S1130C404C83E12C992493946C0181E1C80ED11C4E
S1130C500FB6F8940F92F801F28CFF2091F0B501D1
S1130C60C8013EDEFA94F801F28E8085882329F0CB
S1130C70C80108961CD4811105DD0F900FBE81E0D8
S1130C8044C08C819D81892B21F40F900FBE80E09C
S1130C903CC0E11004C0CE01019650D4E92C0F9061
S1130CA00FBE10D20FB6F8940F92F801858D8F3FC6
S1130CB009F4158EF801868D8F3F09F4168E0F9076
S1130CC00FBEBE016C5F7F4FCE01019642D48111ED
S1130CD013C0C8019CDD882359F06C817D81C60155
S1130CE0BED3C80117DEB5D28111B2CFCBDCB0CFF1
S1130CF0C80110DEAED2ACCFC8010CDEAAD2C80146
S1130D0086DD882309F4A4CF80E00F900F900F9024
S1130D100F900F90DF91CF911F910F91FF90EF9063
S1130D20DF90CF90BF90AF909F900895CF93DF93C3
S1130D30EC010FB6F8940F928D8D8F3F09F41D8E40
S1130D408E8D8F3F09F41E8E0F900FBE8A8D8111F8
S1130D5003C0CE01419693D3CE01DCDDDF91CF9168
S1130D600895E0914002F09141028081811107C011
S1130D708FEF9FEF90931802809317020895E091EC
S1130D804002F09141020580F681E02D0680F78152
S1130D90E02D828193819093180280931702089525
S1130DA0FF920F931F93CF93DF93EC01F62E0091E4
S1130DB01F0210912002809178029091790202968C
S1130DC08CDBCF3F8FEFD80761F4FF2051F06091A7
S1130DD07802709179026E5F7F4F82E292E02BDBA2
S1130DE02DC0C00FD11FE0917802F0917902D38316
S1130DF0C283C017D10760F46091780270917902C0
S1130E0080913E0290913F026E5F7F4F35DB16C0AA
S1130E106091780270917902809140029091410230
S1130E206E5F7F4F29DB8091170290911802C817DB
S1130E30D90720F4D0931802C0931702DF91CF9101
S1130E401F910F91FF9008954F925F926F927F923E
S1130E508F929F92AF92BF92CF92DF92EF92FF92C6
S1130E600F93CF93DF934C016B015A012901CA01FF
S1130E70B2DA3C01892B09F4E3C08CE290E0ABDAEE
S1130E80EC01892B91F0788E6F8AA50165EA70E0F8
S1130E90C30163D681E0A81AB1088F89988DA80E82
S1130EA0B91EC114D10421F41FC0C301A5DAC8C0FE
S1130EB0D6018C91898F8C918823A1F0AE01465E76
S1130EC05F4FF6013196B8E0CB0ED11CCF012191D2
S1130ED0DA012D93AD01DC018C91882319F0EC1516
S1130EE0FD05A1F718A201C0198E043008F003E033
S1130EF00E8B0BA31CA26E01B2E0CB0ED11CC6015B
S1130F0096DACE010C9693DAD987C88784E090E00C
S1130F10801B91099D878C87DB8BCA8B1EA21DA227
S1130F201FA218A619A61AA61BA6A201B401C501E0
S1130F30FBDA99838883E114F10419F0F701D18372
S1130F40C0830FB6F8940F92809121028F5F809333
S1130F5021028091780290917902892B89F5D093AE
S1130F607902C093780280912102813009F038C05F
S1130F7084E592E04EDA8DE592E04BDA86E692E083
S1130F8048DA8FE692E045DA8BE492E042DA82E4D2
S1130F9092E03FDA85E392E03CDA8CE292E039DADF
S1130FA082E292E036DA8BE492E0909341028093FD
S1130FB0400282E492E090933F0280933E0210C08C
S1130FC080911D0281110CC0E0917802F0917902A8
S1130FD096898E89891720F0D0937902C09378027C
S1130FE0809119028F5F8093190289A38E89909151
S1130FF01E02981710F480931E0290E09C01220FA9
S1131000331F220F331F220F331F820F931FB6018A
S11310108C5A9D4F10DA0F900FBE80911D028823C9
S113102059F0E0917802F091790296898E899817A7
S113103028F428DB81E005C081E003C081E001C021
S11310408FEFDF91CF910F91FF90EF90DF90CF90D2
S1131050BF90AF909F908F907F906F905F904F90D4
S11310600895EF92FF920F930F2EF5E1EF2EF2E029
S1131070FF2EF02D00E020E030E040EC50E066E090
S113108072E08CE790E0E0DE8130C1F440D381303F
S1131090A9F4F8948FEF9FEF9093180280931702AE
S11310A081E080931D021092200210921F02E091B1
S11310B07802F091790285A17ED9A8DA0F91FF9088
S11310C0EF900895809114028F5F80931402089525
S11310D00FB6F8940F9280911F02909120020F9006
S11310E00FBE0895CF92DF92EF92FF920F931F935A
S11310F0CF93DF9380911402811195C0E0901F0279
S1131100F09020028FEFE81AF80AF0922002E092A1
S11311101F02E114F104B1F4809140029091410264
S113112020913E0230913F023093410220934002CD
S113113090933F0280933E0280911A028F5F8093C6
S11311401A020FDE8091170290911802E816F90630
S113115010F4D12C50C0D12CCC24C394E091400283
S1131160F09141028081811107C08FEF9FEF90932E
S11311701802809317023FC0E0914002F0914102AF
S11311800580F681E02DC681D7818A819B81E8168E
S1131190F90628F490931802809317022CC08E014C
S11311A00E5F1F4FC80199D98C899D89892B19F02D
S11311B0CE010C9692D98E8990911E02981710F444
S11311C080931E0290E09C01220F331F220F331FD5
S11311D0220F331F820F931FB8018C5A9D4F2BD9B6
S11311E0E0917802F09179029E898689981708F433
S11311F0B5CFDC2CB3CFE0917802F09179028689E7
S113120090E0FC01EE0FFF1FEE0FFF1FEE0FFF1F1C
S11312108E0F9F1FFC01EC5AFD4F8081823048F0F5
S1131220DD24D39406C080911C028F5F80931C023E
S1131230D12C80911B02882311F0DD24D3948D2DB1
S1131240DF91CF911F910F91FF90EF90DF90CF909E
S11312500895DF92EF92FF920F931F93CF93DF9342
S11312600FB6F8940F928091140281508093140267
S113127080911402811159C080912102811130C0E2
S113128057C0D7011596ED91FC911697C681D78169
S1131290CE010C9622D98E010E5F1F4FC8011DD9B5
S11312A08E8990911E02981710F480931E0290E08C
S11312B09C01220F331F220F331F220F331F820F73
S11312C0931FB8018C5A9D4FB6D8E0917802F091E3
S11312D079029E898689981768F0D0921B020AC009
S11312E0C0E0D0E00F2EF5E3EF2EF2E0FF2EF02D5C
S11312F0DD24D394F70180818111C3CFCD2B09F074
S113130030DDC0911C02CC2349F0D1E0EBDE811129
S1131310D0931B02C150D1F710921C0280911B0282
S1131320882329F0AFD981E003C080E001C080E0C8
S11313300F900FBEDF91CF911F910F91FF90EF900F
S1131340DF90089580911402882321F081E0809336
S11313501B02089510921B02E0917802F091790229
S113136085A133D8A0917802B0917902E0917802F6
S1131370F09179022D913C918789908D8217930782
S113138058F060917802709179028091780290917E
S11313907902675E7F4F9BD220911E02822F90E0DC
S11313A0FC01EE0FFF1FEE0FFF1FEE0FFF1FE80FF4
S11313B0F91FEC5AFD4F3081311111C02150822F99
S11313C090E0FC01EE0FFF1FEE0FFF1FEE0FFF1F5B
S11313D0E80FF91FEC5AFD4F3081332379F3AC0148
S11313E0440F551F440F551F440F551F480F591FD5
S11313F0DA01AC5ABD4F1196ED91FC91129702801F
S1131400F381E02D1296FC93EE931197495A5D4FA8
S1131410E417F50729F442815381FD015283418386
S1131420FC01EE0FFF1FEE0FFF1FEE0FFF1F8E0FCD
S11314309F1FFC01EC5AFD4F0180F281E02D868153
S11314409781909379028093780220931E02E09111
S11314507802F091790285A10C94DB010895CF9371
S1131460DF93EB016091780270917902645F7F4FA2
S113147003D861E0CE0194DCDF91CF9108950F93FE
S11314801F93CF938B01C42F6091780270917902DE
S1131490645F7F4F0E941B02CC2311F00FEF1FEFFC
S11314A06C2FC8017DDCCF911F910F9108950F938C
S11314B01F93CF93DF93DC011596ED91FC91169762
S11314C0C681D7818E01045F1F4FC80106D8809161
S11314D0140281111CC00A501109C8010E946D0236
S11314E08E8990911E02981710F480931E0290E04A
S11314F09C01220F331F220F331F220F331F820F31
S1131500931FB8018C5A9D4F0E941B0205C0B8015D
S113151085E392E00E941B02E0917802F091790247
S11315209E898689891720F481E080931B0201C07B
S113153080E0DF91CF911F910F91089520911A02BD
S1131540FC01208320911F023091200232832183E9
S11315500895CF93DF930FB6F8940F9220911F0252
S113156030912002DB014D915C914F3FBFEF5B074F
S1131570E9F0EC01E981FA81A0911A02B881BA1765
S113158019F02E173F07A0F42E1B3F0B2417350725
S113159040F4FB01421B530B51834083CFDF80E0B7
S11315A008C0FB011182108281E003C080E001C009
S11315B081E00F900FBEDF91CF91089581E0809379
S11315C01B02089580911D02882331F0809114023A
S11315D0882321F080E0089581E0089582E0089551
S11315E00F931F93CF93DF93FC01892B79F184A18F
S11315F0815084A3268993A1291751F181112AC00E
S1131600EF018F010E5F1F4FC8010E946D028BA175
S11316108E8B24E030E0281B31093D872C87909184
S11316201E02981710F480931E0290E09C01220F72
S1131630331F220F331F220F331F820F931FB80152
S11316408C5A9D4F0E941B0281E005C080E003C0BC
S113165080E001C080E0DF91CF911F910F91089548
S1131660FC0173836283918780874617570790F044
S1131670421B530B8485958548175907E0F4BF0135
S11316806E5F7F4F80918002909181020E943C02A4
S113169080E008954217530718F46217730768F43B
S11316A0BF016E5F7F4F80918202909183020E94FE
S11316B03C0280E0089581E0089581E008950FB62A
S11316C0F8940F9280917E0290917F02892BE1F42D
S11316D08DE892E00E94090284E892E00E940902E7
S11316E08DE892E0909383028093820284E892E0F2
S11316F0909381028093800240E065E08AE095D96E
S113170090937F0280937E020F900FBE0895EF9214
S1131710FF920F93D4DF80917E0290917F02892BF8
S113172089F00F2EFCE7EF2EF2E0FF2EF02D03E000
S113173020E030E045E550E06BE072E082EB90E0C1
S113174083DB01C080E00F91FF90EF9008950F9329
S11317501F93CF93DF9300D01F921F92CDB7DEB7B4
S1131760E0917E02F0917F02309751F1D9016983B3
S11317705B834A839D838C836630D4F423DF823079
S113178059F420E0A801BE016F5F7F4F80917E0273
S113179090917F0278D915C020E040E050E0BE016E
S11317A06F5F7F4F80917E0290917F026CD909C058
S11317B020E0AD01BE016F5F7F4FCF01F6D901C0BC
S11317C080E00F900F900F900F900F90DF91CF91CA
S11317D01F910F910895AF92BF92CF92DF92EF9233
S11317E0FF920F931F93CF93DF936C0171DC7C0105
S11317F080917A0290917B02E816F90608F047C0BE
S11318002FC00580F681E02DA080B180C681D781EC
S11318108E010E5F1F4FC8010E946D02E889F9898D
S1131820CE0119958B8982FF1BC08C859D858A0DFD
S11318309B1DA816B90660F49B838A83D987C88741
S1131840B80180918202909183020E943C0208C0F8
S113185000E010E020E030E0A50160E0CE0177DF99
S1131860E0918202F091830280818111CACF80913C
S11318708002909181029093830280938202F0937C
S11318808102E093800281E0F601808302C0F601C8
S11318901082F0927B02E0927A02C701DF91CF912D
S11318A01F910F91FF90EF90DF90CF90BF90AF907A
S11318B008950895279A2F9A2FEF80E792E02150F8
S11318C080409040E1F700C000001F9AF5CF279AAE
S11318D02F9A2FEF87EA91E6215080409040E1F75C
S11318E000C000001F9AF5CF81B1816881B90E94C0
S11318F0D501B7DBFFCFEE0FFF1F881F8BBF07900B
S1131900F691E02D19940F931F93CF93DF938230B8
S1131910910510F482E090E0E0919802F091990230
S113192020E030E0A0E0B0E0309719F1408151812F
S11319300281138148175907C8F08417950769F481
S1131940109731F012960C93129713961C9327C09C
S1131950009398021093990222C02115310519F0C1
S11319604217530718F49A01BD01EF01DF01F80192
S1131970DBCF21153105F9F0281B390B2430310553
S113198080F48A819B816115710521F0FB019383A9
S1131990828304C09093990280939802FE01329648
S11319A044C0FE01E20FF31F819391932250310949
S11319B0398328833AC02091960230919702232BD1
S11319C041F4209102023091030230939702209354
S11319D0960220910002309101022115310541F453
S11319E02DB73EB74091040250910502241B350BDC
S11319F0E0919602F0919702E217F307A0F42E1BF0
S1131A003F0B2817390778F0AC014E5F5F4F24175E
S1131A10350748F04E0F5F1F50939702409396028C
S1131A208193919302C0E0E0F0E0CF01DF91CF9188
S1131A301F910F910895CF93DF93009709F481C00C
S1131A40FC01329713821282A0919802B0919902FC
S1131A50109781F420813181820F931F2091960287
S1131A60309197022817390751F5F0939702E093C4
S1131A70960267C0ED0120E030E0CE17DF0740F4A6
S1131A804A815B819E0141155105F1F0EA01F5CFD0
S1131A90D383C28340815181840F951FC817D9070E
S1131AA059F488819981840F951F029691838083CC
S1131AB08A819B81938382832115310529F4F093D4
S1131AC09902E09398023DC0E901FB83EA834991BE
S1131AD05991C40FD51FEC17FD0761F480819181E2
S1131AE0840F951F0296E9019983888382819381EB
S1131AF09B838A83E0E0F0E012968D919C9113978A
S1131B00009719F0FD01DC01F7CF8D919C9111979D
S1131B109D012E5F3F4F820F931F209196023091BB
S1131B2097022817390769F4309729F4109299021B
S1131B301092980202C013821282B0939702A0936B
S1131B409602DF91CF910895FB01DC0102C0019060
S1131B500D9241505040D8F70895DC0101C06D93B7
S10F1B6041505040E0F70895F894FFCF86
S1131B6C00009A02200049444C4500546D722053E5
S1071B7C7663000088
S9030000FC
